{
  "_format": "hh-sol-artifact-1",
  "contractName": "FHEDonationRound",
  "sourceName": "src/FHEDonationRound.sol",
  "abi": [
    {
      "inputs": [],
      "stateMutability": "nonpayable",
      "type": "constructor"
    },
    {
      "inputs": [],
      "name": "EnforcedPause",
      "type": "error"
    },
    {
      "inputs": [],
      "name": "ExpectedPause",
      "type": "error"
    },
    {
      "inputs": [
        {
          "internalType": "address",
          "name": "owner",
          "type": "address"
        }
      ],
      "name": "OwnableInvalidOwner",
      "type": "error"
    },
    {
      "inputs": [
        {
          "internalType": "address",
          "name": "account",
          "type": "address"
        }
      ],
      "name": "OwnableUnauthorizedAccount",
      "type": "error"
    },
    {
      "inputs": [],
      "name": "ReentrancyGuardReentrantCall",
      "type": "error"
    },
    {
      "anonymous": false,
      "inputs": [
        {
          "indexed": true,
          "internalType": "uint256",
          "name": "roundId",
          "type": "uint256"
        },
        {
          "indexed": true,
          "internalType": "uint256",
          "name": "projectId",
          "type": "uint256"
        },
        {
          "indexed": true,
          "internalType": "address",
          "name": "donor",
          "type": "address"
        }
      ],
      "name": "DonationReceived",
      "type": "event"
    },
    {
      "anonymous": false,
      "inputs": [
        {
          "indexed": true,
          "internalType": "uint256",
          "name": "roundId",
          "type": "uint256"
        },
        {
          "indexed": false,
          "internalType": "uint256",
          "name": "projectsProcessed",
          "type": "uint256"
        }
      ],
      "name": "MatchingCalculated",
      "type": "event"
    },
    {
      "anonymous": false,
      "inputs": [
        {
          "indexed": true,
          "internalType": "uint256",
          "name": "roundId",
          "type": "uint256"
        },
        {
          "indexed": true,
          "internalType": "address",
          "name": "contributor",
          "type": "address"
        }
      ],
      "name": "MatchingPoolIncreased",
      "type": "event"
    },
    {
      "anonymous": false,
      "inputs": [
        {
          "indexed": true,
          "internalType": "address",
          "name": "previousOwner",
          "type": "address"
        },
        {
          "indexed": true,
          "internalType": "address",
          "name": "newOwner",
          "type": "address"
        }
      ],
      "name": "OwnershipTransferred",
      "type": "event"
    },
    {
      "anonymous": false,
      "inputs": [
        {
          "indexed": false,
          "internalType": "address",
          "name": "account",
          "type": "address"
        }
      ],
      "name": "Paused",
      "type": "event"
    },
    {
      "anonymous": false,
      "inputs": [
        {
          "indexed": true,
          "internalType": "address",
          "name": "user",
          "type": "address"
        },
        {
          "indexed": true,
          "internalType": "bytes32",
          "name": "dataId",
          "type": "bytes32"
        }
      ],
      "name": "ReencryptionPermissionGranted",
      "type": "event"
    },
    {
      "anonymous": false,
      "inputs": [
        {
          "indexed": true,
          "internalType": "address",
          "name": "user",
          "type": "address"
        },
        {
          "indexed": true,
          "internalType": "bytes32",
          "name": "dataId",
          "type": "bytes32"
        }
      ],
      "name": "ReencryptionPermissionRevoked",
      "type": "event"
    },
    {
      "anonymous": false,
      "inputs": [
        {
          "indexed": true,
          "internalType": "uint256",
          "name": "roundId",
          "type": "uint256"
        },
        {
          "indexed": false,
          "internalType": "string",
          "name": "name",
          "type": "string"
        },
        {
          "indexed": false,
          "internalType": "uint256",
          "name": "startTime",
          "type": "uint256"
        },
        {
          "indexed": false,
          "internalType": "uint256",
          "name": "endTime",
          "type": "uint256"
        }
      ],
      "name": "RoundCreated",
      "type": "event"
    },
    {
      "anonymous": false,
      "inputs": [
        {
          "indexed": true,
          "internalType": "uint256",
          "name": "roundId",
          "type": "uint256"
        },
        {
          "indexed": false,
          "internalType": "uint256",
          "name": "timestamp",
          "type": "uint256"
        }
      ],
      "name": "RoundFinalized",
      "type": "event"
    },
    {
      "anonymous": false,
      "inputs": [
        {
          "indexed": false,
          "internalType": "address",
          "name": "account",
          "type": "address"
        }
      ],
      "name": "Unpaused",
      "type": "event"
    },
    {
      "inputs": [
        {
          "internalType": "uint256",
          "name": "roundId",
          "type": "uint256"
        },
        {
          "internalType": "uint256",
          "name": "amount",
          "type": "uint256"
        }
      ],
      "name": "addToMatchingPool",
      "outputs": [],
      "stateMutability": "nonpayable",
      "type": "function"
    },
    {
      "inputs": [
        {
          "internalType": "uint256",
          "name": "roundId",
          "type": "uint256"
        }
      ],
      "name": "calculateMatching",
      "outputs": [],
      "stateMutability": "nonpayable",
      "type": "function"
    },
    {
      "inputs": [
        {
          "internalType": "string",
          "name": "name",
          "type": "string"
        },
        {
          "internalType": "uint256",
          "name": "startTime",
          "type": "uint256"
        },
        {
          "internalType": "uint256",
          "name": "endTime",
          "type": "uint256"
        },
        {
          "internalType": "uint256",
          "name": "matchingPoolAmount",
          "type": "uint256"
        },
        {
          "internalType": "uint256",
          "name": "minDonation",
          "type": "uint256"
        },
        {
          "internalType": "uint256",
          "name": "maxDonation",
          "type": "uint256"
        }
      ],
      "name": "createRound",
      "outputs": [
        {
          "internalType": "uint256",
          "name": "roundId",
          "type": "uint256"
        }
      ],
      "stateMutability": "nonpayable",
      "type": "function"
    },
    {
      "inputs": [
        {
          "internalType": "uint256",
          "name": "",
          "type": "uint256"
        },
        {
          "internalType": "address",
          "name": "",
          "type": "address"
        },
        {
          "internalType": "uint256",
          "name": "",
          "type": "uint256"
        }
      ],
      "name": "donorContributions",
      "outputs": [
        {
          "internalType": "euint32",
          "name": "",
          "type": "bytes32"
        }
      ],
      "stateMutability": "view",
      "type": "function"
    },
    {
      "inputs": [
        {
          "internalType": "uint256",
          "name": "roundId",
          "type": "uint256"
        }
      ],
      "name": "finalizeRound",
      "outputs": [],
      "stateMutability": "nonpayable",
      "type": "function"
    },
    {
      "inputs": [
        {
          "internalType": "uint256",
          "name": "roundId",
          "type": "uint256"
        },
        {
          "internalType": "uint256",
          "name": "projectId",
          "type": "uint256"
        },
        {
          "internalType": "address",
          "name": "donor",
          "type": "address"
        }
      ],
      "name": "getEncryptedDonation",
      "outputs": [
        {
          "internalType": "euint32",
          "name": "",
          "type": "bytes32"
        }
      ],
      "stateMutability": "view",
      "type": "function"
    },
    {
      "inputs": [
        {
          "internalType": "uint256",
          "name": "roundId",
          "type": "uint256"
        },
        {
          "internalType": "uint256",
          "name": "projectId",
          "type": "uint256"
        }
      ],
      "name": "getEncryptedMatchingAmount",
      "outputs": [
        {
          "internalType": "euint32",
          "name": "",
          "type": "bytes32"
        }
      ],
      "stateMutability": "view",
      "type": "function"
    },
    {
      "inputs": [
        {
          "internalType": "uint256",
          "name": "roundId",
          "type": "uint256"
        },
        {
          "internalType": "uint256",
          "name": "projectId",
          "type": "uint256"
        }
      ],
      "name": "getEncryptedProjectTotal",
      "outputs": [
        {
          "internalType": "euint32",
          "name": "",
          "type": "bytes32"
        }
      ],
      "stateMutability": "view",
      "type": "function"
    },
    {
      "inputs": [
        {
          "internalType": "uint256",
          "name": "roundId",
          "type": "uint256"
        }
      ],
      "name": "getRoundInfo",
      "outputs": [
        {
          "internalType": "string",
          "name": "name",
          "type": "string"
        },
        {
          "internalType": "uint256",
          "name": "startTime",
          "type": "uint256"
        },
        {
          "internalType": "uint256",
          "name": "endTime",
          "type": "uint256"
        },
        {
          "internalType": "uint256",
          "name": "minDonation",
          "type": "uint256"
        },
        {
          "internalType": "uint256",
          "name": "maxDonation",
          "type": "uint256"
        },
        {
          "internalType": "bool",
          "name": "isFinalized",
          "type": "bool"
        },
        {
          "internalType": "uint256",
          "name": "totalProjects",
          "type": "uint256"
        },
        {
          "internalType": "uint256",
          "name": "totalDonors",
          "type": "uint256"
        }
      ],
      "stateMutability": "view",
      "type": "function"
    },
    {
      "inputs": [
        {
          "internalType": "address",
          "name": "user",
          "type": "address"
        },
        {
          "internalType": "bytes32",
          "name": "dataId",
          "type": "bytes32"
        }
      ],
      "name": "hasReencryptionPermission",
      "outputs": [
        {
          "internalType": "bool",
          "name": "",
          "type": "bool"
        }
      ],
      "stateMutability": "view",
      "type": "function"
    },
    {
      "inputs": [],
      "name": "matchingCapPercentage",
      "outputs": [
        {
          "internalType": "uint256",
          "name": "",
          "type": "uint256"
        }
      ],
      "stateMutability": "view",
      "type": "function"
    },
    {
      "inputs": [],
      "name": "minProjectsForMatching",
      "outputs": [
        {
          "internalType": "uint256",
          "name": "",
          "type": "uint256"
        }
      ],
      "stateMutability": "view",
      "type": "function"
    },
    {
      "inputs": [],
      "name": "nextRoundId",
      "outputs": [
        {
          "internalType": "uint256",
          "name": "",
          "type": "uint256"
        }
      ],
      "stateMutability": "view",
      "type": "function"
    },
    {
      "inputs": [],
      "name": "owner",
      "outputs": [
        {
          "internalType": "address",
          "name": "",
          "type": "address"
        }
      ],
      "stateMutability": "view",
      "type": "function"
    },
    {
      "inputs": [],
      "name": "pause",
      "outputs": [],
      "stateMutability": "nonpayable",
      "type": "function"
    },
    {
      "inputs": [],
      "name": "paused",
      "outputs": [
        {
          "internalType": "bool",
          "name": "",
          "type": "bool"
        }
      ],
      "stateMutability": "view",
      "type": "function"
    },
    {
      "inputs": [
        {
          "internalType": "uint256",
          "name": "roundId",
          "type": "uint256"
        },
        {
          "internalType": "uint256",
          "name": "projectId",
          "type": "uint256"
        },
        {
          "internalType": "externalEuint32",
          "name": "encryptedAmountHandle",
          "type": "bytes32"
        },
        {
          "internalType": "bytes",
          "name": "inputProof",
          "type": "bytes"
        }
      ],
      "name": "processDonation",
      "outputs": [],
      "stateMutability": "nonpayable",
      "type": "function"
    },
    {
      "inputs": [
        {
          "internalType": "uint256",
          "name": "roundId",
          "type": "uint256"
        },
        {
          "internalType": "uint256[]",
          "name": "projectIds",
          "type": "uint256[]"
        },
        {
          "internalType": "bytes[]",
          "name": "encryptedAmounts",
          "type": "bytes[]"
        },
        {
          "internalType": "bytes[]",
          "name": "proofs",
          "type": "bytes[]"
        }
      ],
      "name": "processDonationBatch",
      "outputs": [],
      "stateMutability": "nonpayable",
      "type": "function"
    },
    {
      "inputs": [
        {
          "internalType": "uint256",
          "name": "",
          "type": "uint256"
        },
        {
          "internalType": "uint256",
          "name": "",
          "type": "uint256"
        }
      ],
      "name": "projectDonations",
      "outputs": [
        {
          "internalType": "euint32",
          "name": "totalAmount",
          "type": "bytes32"
        },
        {
          "internalType": "uint256",
          "name": "donorCount",
          "type": "uint256"
        },
        {
          "internalType": "bool",
          "name": "hasMatching",
          "type": "bool"
        }
      ],
      "stateMutability": "view",
      "type": "function"
    },
    {
      "inputs": [
        {
          "internalType": "uint256",
          "name": "",
          "type": "uint256"
        },
        {
          "internalType": "uint256",
          "name": "",
          "type": "uint256"
        }
      ],
      "name": "projectMatching",
      "outputs": [
        {
          "internalType": "euint32",
          "name": "",
          "type": "bytes32"
        }
      ],
      "stateMutability": "view",
      "type": "function"
    },
    {
      "inputs": [],
      "name": "protocolId",
      "outputs": [
        {
          "internalType": "uint256",
          "name": "",
          "type": "uint256"
        }
      ],
      "stateMutability": "pure",
      "type": "function"
    },
    {
      "inputs": [],
      "name": "renounceOwnership",
      "outputs": [],
      "stateMutability": "nonpayable",
      "type": "function"
    },
    {
      "inputs": [
        {
          "internalType": "uint256",
          "name": "",
          "type": "uint256"
        },
        {
          "internalType": "uint256",
          "name": "",
          "type": "uint256"
        }
      ],
      "name": "roundDonors",
      "outputs": [
        {
          "internalType": "address",
          "name": "",
          "type": "address"
        }
      ],
      "stateMutability": "view",
      "type": "function"
    },
    {
      "inputs": [
        {
          "internalType": "uint256",
          "name": "",
          "type": "uint256"
        },
        {
          "internalType": "uint256",
          "name": "",
          "type": "uint256"
        }
      ],
      "name": "roundProjects",
      "outputs": [
        {
          "internalType": "uint256",
          "name": "",
          "type": "uint256"
        }
      ],
      "stateMutability": "view",
      "type": "function"
    },
    {
      "inputs": [
        {
          "internalType": "uint256",
          "name": "",
          "type": "uint256"
        }
      ],
      "name": "rounds",
      "outputs": [
        {
          "internalType": "uint256",
          "name": "id",
          "type": "uint256"
        },
        {
          "internalType": "string",
          "name": "name",
          "type": "string"
        },
        {
          "internalType": "uint256",
          "name": "startTime",
          "type": "uint256"
        },
        {
          "internalType": "uint256",
          "name": "endTime",
          "type": "uint256"
        },
        {
          "internalType": "uint256",
          "name": "matchingPool",
          "type": "uint256"
        },
        {
          "internalType": "uint256",
          "name": "minDonation",
          "type": "uint256"
        },
        {
          "internalType": "uint256",
          "name": "maxDonation",
          "type": "uint256"
        },
        {
          "internalType": "bool",
          "name": "isFinalized",
          "type": "bool"
        },
        {
          "internalType": "uint256",
          "name": "totalProjects",
          "type": "uint256"
        },
        {
          "internalType": "uint256",
          "name": "totalDonors",
          "type": "uint256"
        }
      ],
      "stateMutability": "view",
      "type": "function"
    },
    {
      "inputs": [
        {
          "internalType": "address",
          "name": "newOwner",
          "type": "address"
        }
      ],
      "name": "transferOwnership",
      "outputs": [],
      "stateMutability": "nonpayable",
      "type": "function"
    },
    {
      "inputs": [],
      "name": "unpause",
      "outputs": [],
      "stateMutability": "nonpayable",
      "type": "function"
    }
  ],
  "bytecode": "0x6080604052346200002657620000146200006c565b604051612b01620004558239612b0190f35b5f80fd5b905f19905b9181191691161790565b6200004962000049620000499290565b90565b906200006062000049620000689262000039565b82546200002a565b9055565b62000076620000ad565b620000856107d0600b6200004c565b620000936003600c6200004c565b620000ab620000a3600162000039565b60046200004c565b565b620000ab620000bc33620000d0565b620000ab620000ca62000246565b620002e5565b620000ab90620000e7565b62000049600162000039565b620000f29062000150565b620000ab62000100620000db565b60016200004c565b6200011862000049620000499290565b6001600160a01b031690565b620000499062000108565b6200013a9062000118565b9052565b602081019291620000ab91906200012f565b6200015b5f62000124565b620001668162000118565b620001718362000118565b14620001835750620000ab906200035f565b620001a9906200019260405190565b631e4fbdf760e01b8152918291600483016200013e565b0390fd5b634e487b7160e01b5f52604160045260245ffd5b90601f01601f191681019081106001600160401b03821117620001e357604052565b620001ad565b90620000ab620001f860405190565b9283620001c1565b620000496080620001e9565b6200021662000200565b5f8082526020820181905260408201819052606082015290565b620000496200020c565b906200013a9062000118565b6200025062000230565b5073a02cda4ca3a71d7c46997716f4283aa851c28812620002c26200027462000200565b916200029573687820221192c5b662b25367f70076a37bc79b6c846200023a565b620002b873848b0066793bcc60346da1f49049357399b8d595602085016200023a565b604083016200023a565b62000049731364cbbf2cdf5032c47d8226a6f6fbd2afcdacac606083016200023a565b620000ab90620003c8565b620000499062000118565b620000499054620002f0565b906001600160a01b03906200002f565b620000499062000118906001600160a01b031682565b620000499062000317565b62000049906200032d565b906200035762000049620000689262000338565b825462000307565b6200038b62000384620003725f620002fb565b6200037e845f62000343565b62000338565b9162000338565b907f8be0079c531659141344cd1fd0a4f28419497f9722a3daafe3b4186f6b6457e0620003b760405190565b5f90a3565b62000049905162000118565b620000ab9060036200044c60607f9e7b61f58c47dc699ac88507c4f5bb9f121c03808c5676a8078fe583e4649700936200040d6200040682620003bc565b8662000343565b620004296200041f60208301620003bc565b6001870162000343565b620004456200043b60408301620003bc565b6002870162000343565b01620003bc565b91016200034356fe60806040526004361015610011575f80fd5b5f3560e01c806331a3248c146101c05780633469f6e2146101bb5780633f4ba83a146101b65780634002eda6146101b15780634cea3878146101ac57806359408948146101a75780635c975abb146101a25780636197377c1461019d57806364725aef14610198578063677a50c0146101935780636fee1b811461018e578063715018a61461018957806372503922146101845780638233ab391461017f578063841951c31461017a5780638456cb591461017557806388c3ffb0146101705780638c65c81f1461016b5780638da5cb5b14610166578063a509a48414610161578063b99f79e01461015c578063c56f3cac14610157578063cb02027214610152578063da1f12ab1461014d578063e198ad1914610148578063ea9627c1146101435763f2fde38b036101c557610c4b565b610c1b565b610bd2565b610b4e565b610b32565b610b07565b610a96565b610a7a565b6109cd565b610993565b61073f565b610682565b610669565b61064e565b610627565b61059a565b61057e565b610532565b61046a565b61044e565b6103af565b610381565b610322565b6102ef565b6102cc565b6102a5565b610261565b5f80fd5b805b036101c557565b905035906101df826101c9565b565b91906040838203126101c5576102049060206101fd82866101d2565b94016101d2565b90565b6102046102046102049290565b9061021e90610207565b5f5260205260405f2090565b610204916008021c81565b90610204915461022a565b610258610204926102535f936008610214565b610214565b610235565b9052565b346101c55761028d61027d6102773660046101e1565b90610240565b6040519182918290815260200190565b0390f35b906020828203126101c557610204916101d2565b346101c5576102bd6102b8366004610291565b610e3d565b604051005b5f9103126101c557565b346101c5576102dc3660046102c2565b6102bd610e59565b6102045f6004610235565b346101c5576102ff3660046102c2565b61028d61027d6102e4565b9182918290815260200190565b6102045f600b610235565b346101c5576103323660046102c2565b61028d61027d610317565b6001600160a01b031690565b6001600160a01b0381166101cb565b905035906101df82610349565b91906040838203126101c5576102049060206101fd8286610358565b346101c55761028d61039d610397366004610365565b90610e67565b60405191829182901515815260200190565b346101c5576103bf3660046102c2565b61028d61039d610e8d565b909182601f830112156101c55781359167ffffffffffffffff83116101c55760200192600183028401116101c557565b906080828203126101c55761040f81836101d2565b9261041d82602085016101d2565b9261042b83604083016101d2565b92606082013567ffffffffffffffff81116101c55761044a92016103ca565b9091565b346101c5576102bd6104613660046103fa565b93929092611405565b346101c55761028d61027d6104803660046101e1565b90611412565b909182601f830112156101c55781359167ffffffffffffffff83116101c55760200192602083028401116101c557565b9190916080818403126101c5576104cd83826101d2565b92602082013567ffffffffffffffff81116101c557816104ee918401610486565b929093604082013567ffffffffffffffff81116101c55783610511918401610486565b929093606082013567ffffffffffffffff81116101c55761044a9201610486565b346101c5576105423660046104b6565b959490949391936114dc565b90916060828403126101c55761020461056784846101d2565b93604061057782602087016101d2565b9401610358565b346101c55761028d61027d61059436600461054e565b916114e1565b346101c5576105aa3660046102c2565b6102bd611536565b90916060828403126101c5576102046105cb84846101d2565b9360406101fd8260208701610358565b6102049061033d906001600160a01b031682565b610204906105db565b610204906105ef565b9061021e906105f8565b610204926102535f93610622610258946007610214565b610601565b346101c55761028d61027d61063d3660046105b2565b9161060b565b6102045f600c610235565b346101c55761065e3660046102c2565b61028d61027d610643565b346101c5576102bd61067c3660046101e1565b9061163f565b346101c5576106923660046102c2565b6102bd61165c565b5f5b8381106106ab5750505f910152565b818101518382015260200161069c565b6106dc6106e56020936106ef936106d0815190565b80835293849260200190565b9586910161069a565b601f01601f191690565b0190565b95939198979694929061010087018781035f890152610711916106bb565b986020870161071e919052565b604086015260608501526080840152151560a083015260c082015260e00152565b346101c55761028d61075a610755366004610291565b611729565b9461076d98969894919493929360405190565b988998896106f3565b6102049081565b6102049054610776565b634e487b7160e01b5f52602260045260245ffd5b90600160028304921680156107bb575b60208310146107b657565b610787565b91607f16916107ab565b80545f9392916107e16107d78361079b565b8085529360200190565b916001811690811561083057506001146107fa57505050565b61080b91929394505f5260205f2090565b915f925b81841061081c5750500190565b80548484015260209093019260010161080f565b92949550505060ff1916825215156020020190565b90610204916107c5565b634e487b7160e01b5f52604160045260245ffd5b90601f01601f1916810190811067ffffffffffffffff82111761088557604052565b61084f565b906101df6108a49261089b60405190565b93848092610845565b0383610863565b6108b6906005610214565b906108c08261077d565b916108cd6001820161088a565b916108da6002830161077d565b916108e76003820161077d565b916108f46004830161077d565b916109016005820161077d565b9161090e6006830161077d565b9161091d600782015460ff1690565b91610204600961092f6008850161077d565b930161077d565b908152919998979196919591949193919290610140880188810360208a015261095e916106bb565b996040880161096b919052565b6060870152608086015260a085015260c0840152151560e08301526101008201526101200152565b346101c55761028d6109ae6109a9366004610291565b6108ab565b966109c49a989a96919695929594939460405190565b9a8b9a8b610936565b346101c5576109dd3660046102c2565b61028d6109e861174e565b604051918291826001600160a01b03909116815260200190565b634e487b7160e01b5f52603260045260245ffd5b8054821015610a3657610a2e6001915f5260205f2090565b910201905f90565b610a02565b610204916008021c61033d565b906102049154610a3b565b610a5e90600a610214565b80548210156101c55761020491610a7491610a16565b90610a48565b346101c55761028d6109e8610a903660046101e1565b90610a53565b346101c5576102bd610aa9366004610291565b611a44565b90610253610abd926006610214565b610ac68161077d565b916102046002610ad86001850161077d565b93015460ff1690565b9081526060810193926101df929091604091610aff905b6020830152565b019015159052565b346101c55761028d610b23610b1d3660046101e1565b90610aae565b60405191939193849384610ae1565b346101c55761028d61027d610b483660046101e1565b90611a4d565b346101c557610b5e3660046102c2565b61028d61027d611a68565b91909160c0818403126101c557803567ffffffffffffffff81116101c55783610b939183016103ca565b929093610ba381602085016101d2565b92610bb182604083016101d2565b92610204610bc284606085016101d2565b9360a06101fd82608087016101d2565b346101c55761028d61027d610be8366004610b69565b95949094939193611de8565b610bff906009610214565b80548210156101c55761020491610c1591610a16565b90610235565b346101c55761028d61027d610c313660046101e1565b90610bf4565b906020828203126101c55761020491610358565b346101c5576102bd610c5e366004610c37565b611e61565b15610c6a57565b60405162461bcd60e51b8152602060048201526014602482015273149bdd5b9908191bd95cc81b9bdd08195e1a5cdd60621b6044820152606490fd5b0390fd5b6101df90610cde610cc76002610cc1846005610214565b0161077d565b610cd7610cd35f610207565b9190565b1415610c63565b610d21565b15610cea57565b60405162461bcd60e51b815260206004820152600f60248201526e149bdd5b99081b9bdd08195b991959608a1b6044820152606490fd5b6101df90610d42610d3b6102046003610cc1856005610214565b4211610ce3565b6101df90610d4e611e6a565b610dbd565b15610d5a57565b60405162461bcd60e51b8152602060048201526011602482015270105b1c9958591e48199a5b985b1a5e9959607a1b6044820152606490fd5b9060ff905b9181191691161790565b90610db2610204610db992151590565b8254610d93565b9055565b610e0590610de8610de3610ddf6007610dd7856005610214565b015460ff1690565b1590565b610d53565b610e0060016007610dfa846005610214565b01610da2565b610207565b7f2b034c48d6d3c5fa40da8afd25e88ee8ad074a546e1a3f05a860c6106b99b82b610e2f60405190565b42815280602081015b0390a2565b6101df90610caa565b610e4e611e6a565b6101df6101df611efb565b6101df610e46565b9061021e565b61020491610e81610e8692610e795f90565b506003610601565b610e61565b5460ff1690565b60025460ff1690565b15610e9d57565b60405162461bcd60e51b8152602060048201526011602482015270149bdd5b99081b9bdd081cdd185c9d1959607a1b6044820152606490fd5b15610edd57565b60405162461bcd60e51b815260206004820152600b60248201526a149bdd5b9908195b99195960aa1b6044820152606490fd5b15610f1757565b60405162461bcd60e51b815260206004820152600f60248201526e149bdd5b9908199a5b985b1a5e9959608a1b6044820152606490fd5b906101df94939291610fa6610fa1610ddf6007610dd7856005610f84610f7c6102046002610cc18686610214565b421015610e96565b610253610f996102046003610cc18686610214565b421115610ed6565b610f10565b906101df94939291610fb6611f03565b90610fcb94939291610fc6611f2d565b611164565b6101df611f6d565b906101df610fe060405190565b9283610863565b67ffffffffffffffff811161088557602090601f01601f19160190565b90825f939282370152565b9092919261102461101f82610fe7565b610fd3565b93818552818301116101c5576101df916020850190611004565b61020491369161100f565b6110566102046102049290565b63ffffffff1690565b905f1990610d98565b90611076610204610db99290565b825461105f565b634e487b7160e01b5f52601160045260245ffd5b5f19811461109f5760010190565b61107d565b90611076610204610db992610207565b915f1960089290920291821b911b610d98565b91906110d8610204610db993610207565b9083546110b4565b90815491600160401b83101561088557826111039160016101df95018155610a16565b906110c7565b916001600160a01b0360089290920291821b911b610d98565b9190611133610204610db9936105f8565b908354611109565b90815491600160401b831015610885578261115e9160016101df95018155610a16565b90611122565b9261117a9291946111749161103e565b90611f7f565b60016111c26111a061119b86610253611194886007610214565b3390610601565b61077d565b926111bb6111b56111b05f611049565b611faf565b85611fcd565b5083612037565b916112226111ff6111f86005956111e96111b06111e46006610cc18c8c610214565b611049565b6111f38183612069565b6120d3565b92836120f6565b9161121b81611216896102536111948b6007610214565b611068565b3390612160565b5061122c8161216b565b5061125d61124261020487610253886006610214565b918290611257906112528361077d565b612037565b90611068565b016112678161077d565b611273610cd35f610207565b1480156113f1575b6112cd575b505061128e61129491610207565b91610207565b61129d336105f8565b917fd1509d0d614d0c3e599471b10aa247cc85ce44879836c03502258b44cc12af026112c860405190565b5f90a4565b8061119b6112e56112e06112eb9461077d565b611091565b826110a4565b6001906112fb610cd36001610207565b146113c6575b5f61131061020485600a610214565b918061131b5f610207565b905b611376575b50509261128e9281926113386112949615151590565b611346575b50509250611280565b61136e9260099261025361135b93339061113b565b016113686112e08261077d565b906110a4565b805f8061133d565b611381610204855490565b8110156113c157611395610a748286610a16565b6113a7335b916001600160a01b031690565b146113b5576001018161131d565b50905082611294611322565b611322565b6113dd846113d8610204866009610214565b6110e0565b6113ec600861135b8585610214565b611301565b50611400610ddf85338661217e565b61127b565b906101df94939291610f4e565b6102049161025361119b926114245f90565b506008610214565b611452610fa1610ddf6007610dd7856005610f84610f7c6102046002610cc18686610214565b61145a611f03565b611462611f2d565b60405162461bcd60e51b815260206004820152604660248201527f426174636820646f6e6174696f6e73206e6f7420737570706f727465642e205560448201527f736520696e646976696475616c2070726f63657373446f6e6174696f6e28292060648201526531b0b636399760d11b608482015260a490fd5b61142c565b906102536102049361062261119b946114f75f90565b506007610214565b611507611e6a565b6101df611525565b61033d6102046102049290565b6102049061150f565b6101df6115315f61151c565b6121bd565b6101df6114ff565b906101df91611556610cc76002610cc1846005610214565b906101df91611563611f03565b6115b6565b1561156f57565b60405162461bcd60e51b81526020600482015260126024820152710416d6f756e74206d757374206265203e20360741b6044820152606490fd5b9190820180921161109f57565b610e00611606926115d3610fa1610ddf6007610dd7876005610214565b6115e66115df5f610207565b8211611568565b61136860046115f6856005610214565b01916116018361077d565b6115a9565b61160f336105f8565b907f08f17d8a7695a5e52e32908dc0e87d3d2eb73920998250f69e5a6f8d76fcaeca61163a60405190565b5f90a3565b906101df9161153e565b611651611e6a565b6101df6101df61224d565b6101df611649565b906116889897969594939291611683610cc76002610cc18c6005610214565b61169b565b9091929394959697565b6102049061088a565b506116b59761020497509550600594506102149350505050565b9060018201916116c76002820161077d565b926116d46003830161077d565b926116e16005840161077d565b926116ee6006820161077d565b926116fd600783015460ff1690565b9261171f61171960096117126008870161077d565b950161077d565b92611692565b9796959493929190565b611688905f8080808080806060611664565b6102049061033d565b610204905461173b565b6102045f611744565b6101df9061176e610cc76002610cc1846005610214565b6101df90611788610d3b6102046003610cc1856005610214565b6101df90611794611e6a565b61187d565b156117a057565b60405162461bcd60e51b81526020600482015260136024820152724e6f7420656e6f7567682070726f6a6563747360681b6044820152606490fd5b67ffffffffffffffff81116108855760208091020190565b9061180061101f836117db565b918252565b369037565b906101df61182061181a846117f3565b936117db565b601f190160208401611805565b90611836825190565b811015610a36576020809102010190565b8181029291811591840414171561109f57565b634e487b7160e01b5f52601260045260245ffd5b8115611878570490565b61185a565b90611894610de3610ddf6007610dd7866005610214565b6118a2610204836009610214565b916118c56118ae845490565b6118be610cd3610204600c61077d565b1015611799565b6118d16111b05f611049565b906118e26118dd855490565b61180a565b906118ec5f610207565b925b6118f9610204875490565b84101561193c5761192f6119369161191d611917610c15888b610a16565b85612255565b906112528261192c898961182d565b52565b9360010190565b926118ee565b509150506119986111b06119566004610cc1856005610214565b61198961198061196f611969600b61077d565b84611847565b61197a612710610207565b9061186e565b9161197a885490565b90808211611a3c575b50611049565b926119a25f610207565b6119ad610204835490565b8110156119f857806119ed60016002610dfa6119cf610c156119f39789610a16565b6119e28b611216836102538d6008610214565b610253896006610214565b60010190565b6119a2565b507f194efc8de30318e7527d26ff1ac690f0bcb6d19090504f98417e17f258d608f291929350611a32611a2c610e38925490565b93610207565b9261030a60405190565b90505f611992565b6101df90611757565b610cc1610204926102535f93611a605f90565b506006610214565b61020461230f565b9061020497969594939291611a83611f03565b611ce3565b15611a8f57565b60405162461bcd60e51b8152602060048201526012602482015271496e76616c69642073746172742074696d6560701b6044820152606490fd5b15611ad057565b60405162461bcd60e51b815260206004820152601060248201526f496e76616c696420656e642074696d6560801b6044820152606490fd5b15611b0f57565b60405162461bcd60e51b815260206004820152601760248201527f496e76616c696420646f6e6174696f6e206c696d6974730000000000000000006044820152606490fd5b6101df915f916110c7565b818110611b6a575050565b80611b775f600193611b54565b01611b5f565b9190601f8111611b8c57505050565b611b9c6101df935f5260205f2090565b906020601f840181900483019310611bbe575b6020601f909101040190611b5f565b9091508190611baf565b919067ffffffffffffffff821161088557611bed82611be7855461079b565b85611b7d565b5f90601f8311600114611c2557610db992915f9183611c1a575b50505f19600883021c1916906002021790565b013590505f80611c07565b90601f19831691611c39855f5260205f2090565b925f5b818110611c7557509160029391856001969410611c5d575b50505002019055565b01355f19601f84166008021c191690555f8080611c54565b92936020600181928786013581550195019301611c3c565b906101df9291611bc8565b91906106e581611caf816106ef9560209181520190565b8095611004565b611cdf611cd76040936101df9698979560608501918583035f870152611c98565b966020830152565b0152565b5094969592949193909290611cf9428611611a88565b611d04858711611ac9565b611d0f888311611b08565b611d19600461077d565b91611d2383611091565b611d2e9060046110a4565b8298611d3b846005610214565b92611d4685856110a4565b611d54878760018701611c8d565b611d6188600286016110a4565b611d6e89600386016110a4565b611d7b90600485016110a4565b611d8890600584016110a4565b611d9590600683016110a4565b6007015f611da291610da2565b611dab90610207565b93611db560405190565b938493611dc29385611cb6565b037fe5fc1affaef00db854e626dd509a961dc2f0565b785b436f277c8fe47fcac96391a2565b610204969594939291905f611a70565b6101df90611e04611e6a565b611e0d5f61151c565b6001600160a01b0381166001600160a01b03831614611e3057506101df906121bd565b610ca690611e3d60405190565b631e4fbdf760e01b8152918291600483016001600160a01b03909116815260200190565b6101df90611df8565b611e7261174e565b3390611e7d8261139a565b03611e855750565b610ca690611e9260405190565b63118cdaa760e01b8152918291600483016001600160a01b03909116815260200190565b611ebe61231a565b6101df611ecc5f6002610da2565b7f5db9ee0a495bf2e6ff9c91a7834c1ba4fdd244a5e8aa4e537bd38aeae4b073aa611ef6336109e8565b0390a1565b6101df611eb6565b611f0b610e8d565b611f1157565b60405163d93c066560e01b8152600490fd5b6102046002610207565b611f37600161077d565b611f3f611f23565b908114611f51576101df9060016110a4565b604051633ee5aeb560e01b8152600490fd5b6102046001610207565b6101df611f78611f63565b60016110a4565b600461020492611f9761020493611f935f90565b5090565b6123ec565b6102046102046102049263ffffffff1690565b6102046004611fc861020493611fc25f90565b50611f9c565b612536565b5f6102049261020492611fdd5f90565b50611fea610ddf826125b3565b612025575b611ffb610ddf836125b3565b612008575b905b9061260f565b9050612002610cd361201c6111b085611049565b92915050612000565b506120326111b083611049565b611fef565b61205661204f610204936120485f90565b5083612681565b91826126eb565b61206363ffffffff611faf565b906120d3565b5f61020492610204926120795f90565b50612086610ddf826125b3565b6120c1575b612097610ddf836125b3565b6120a4575b905b90612755565b905061209e610cd36120b86111b085611049565b9291505061209c565b506120ce6111b083611049565b61208b565b90610204926120f0610cd36120ec61020495611f935f90565b9390565b916127db565b5f61020492610204926121065f90565b50612113610ddf826125b3565b61214e575b612124610ddf836125b3565b612131575b905b9061282c565b905061212b610cd36121456111b085611049565b92915050612129565b5061215b6111b083611049565b612118565b906102049082612897565b61020481612178306105f8565b90612897565b6121919291610622610253926114f75f90565b50600190565b906001600160a01b0390610d98565b906121b6610204610db9926105f8565b8254612197565b6121e16121db6121cc5f611744565b6121d6845f6121a6565b6105f8565b916105f8565b907f8be0079c531659141344cd1fd0a4f28419497f9722a3daafe3b4186f6b6457e061163a60405190565b612214611f03565b6101df61222360016002610da2565b7f62e78cea01bee320cd4e420270b5ea74000d11b0c9f74754ebdbfc544b05a258611ef6336109e8565b6101df61220c565b9061225f5f611049565b9061226982611faf565b9261227861020482600a610214565b906122825f610207565b945b61228f610204845490565b861015612306576122f9612300916122f36122c961119b886102538c6122c3610a746122bc8c6007610214565b928d610a16565b90610601565b6122e46122de6122d88b611faf565b83612069565b916128fa565b6122ed8a611faf565b916120d3565b90612037565b9560010190565b94612284565b94505050505090565b610204612711610207565b612325610ddf610e8d565b61232b57565b604051638dfc202b60e01b8152600490fd5b905051906101df826101c9565b906020828203126101c5576102049161233d565b634e487b7160e01b5f52602160045260245ffd5b6054111561237c57565b61235e565b906101df82612372565b61020490612381565b61025d9061238b565b9493916060916101df946123cc6123d9936123bc60808b01945f8c0152565b6001600160a01b031660208a0152565b87820360408901526106bb565b940190612394565b6040513d5f823e3d90fd5b6124609193926020916123fc5f90565b505f80516020612aac833981519152955f61243a6121d6807f9e7b61f58c47dc699ac88507c4f5bb9f121c03808c5676a8078fe583e4649701611744565b9261244460405190565b9687958694859363196d0b9b60e01b855233906004860161239d565b03925af19081156124ec575f916124f1575b506124856121d66121d65f849601611744565b803b156101c5576124c45f9291839261249d60405190565b630f8e573b60e21b8152600481019190915233602482015293849283919082906044820190565b03925af180156124ec576124d55750565b6101df905f6124e48183610863565b8101906102c2565b6123e1565b612513915060203d602011612519575b61250b8183610863565b81019061234a565b5f612472565b503d612501565b9081526040810192916101df9160200190612394565b6125859160209161255b6121d68060015f80516020612aac8339815191525b01611744565b905f61256660405190565b80968195829461257a639cd07acb60e01b90565b845260048401612520565b03925af19081156124ec575f9161259a575090565b610204915060203d6020116125195761250b8183610863565b6125bf610cd35f610207565b141590565b6125d76125d16102049290565b60f81b90565b6001600160f81b03191690565b9081526060810193926101df9290916040916125ff90610af8565b01906001600160f81b0319169052565b906020916125859361261e5f90565b50156126725761262e60016125c4565b915b5f61264d6121d68060015f80516020612aac833981519152612555565b9261265760405190565b9687958694859363f77f3f1d60e01b5b8552600485016125e4565b61267b5f6125c4565b91612630565b5f61020492610204926126915f90565b5061269e610ddf826125b3565b6126d9575b6126af610ddf836125b3565b6126bc575b905b90612937565b90506126b6610cd36126d06111b085611049565b929150506126b4565b506126e66111b083611049565b6126a3565b5f61020492610204926126fb5f90565b50612708610ddf826125b3565b612743575b612719610ddf836125b3565b612726575b905b906129a2565b9050612720610cd361273a6111b085611049565b9291505061271e565b506127506111b083611049565b61270d565b90602091612585936127645f90565b50156127b15761277460016125c4565b915b5f6127936121d68060015f80516020612aac833981519152612555565b9261279d60405190565b968795869485936385362ee760e01b612667565b6127ba5f6125c4565b91612776565b9081526060810193926101df929091604091611cdf90610af8565b91612585926020926127ea5f90565b505f6128086121d68060015f80516020612aac833981519152612555565b9261281260405190565b96879586948593637702dcff60e01b8552600485016127c0565b906020916125859361283b5f90565b50156128885761284b60016125c4565b915b5f61286a6121d68060015f80516020612aac833981519152612555565b9261287460405190565b968795869485936303056db360e31b612667565b6128915f6125c4565b9161284d565b6128b26121d6805f5f80516020612aac833981519152612555565b91823b156101c5576124c4925f92836128ca60405190565b8096819582946128de63b9496b6260e01b90565b845260048401526001600160a01b031660248301526044820190565b610204906129075f611049565b9061206361293161292061291a85611faf565b84611fcd565b9261292b6002611049565b90612a0d565b92611faf565b90602091612585936129465f90565b50156129935761295660016125c4565b915b5f6129756121d68060015f80516020612aac833981519152612555565b9261297f60405190565b9687958694859363022f65e760e31b612667565b61299c5f6125c4565b91612958565b90602091612585936129b15f90565b50156129fe576129c160016125c4565b915b5f6129e06121d68060015f80516020612aac833981519152612555565b926129ea60405190565b96879586948593637210768160e01b612667565b612a075f6125c4565b916129c3565b6102049161020491612a21610ddf826125b3565b612a3f575b610e00612a33612a399290565b92611f9c565b90612a5e565b50612a39610e00612a33612a556111b05f611049565b92505050612a26565b61258591602091612a6f60016125c4565b915f612a8d6121d68060015f80516020612aac833981519152612555565b92612a9760405190565b96879586948593635a53accb60e01b61266756fe9e7b61f58c47dc699ac88507c4f5bb9f121c03808c5676a8078fe583e4649700a2646970667358221220f32a648bee380c3d53ab987763c5005f114ac6ddf2f5785202d8383e2f5a8de264736f6c63430008180033",
  "linkReferences": {},
  "deployedLinkReferences": {}
}