{
  "_format": "hh-sol-artifact-1",
  "contractName": "FHEDonationRound",
  "sourceName": "src/FHEDonationRound.sol",
  "abi": [
    {
      "inputs": [],
      "stateMutability": "nonpayable",
      "type": "constructor"
    },
    {
      "inputs": [],
      "name": "EnforcedPause",
      "type": "error"
    },
    {
      "inputs": [],
      "name": "ExpectedPause",
      "type": "error"
    },
    {
      "inputs": [
        {
          "internalType": "address",
          "name": "owner",
          "type": "address"
        }
      ],
      "name": "OwnableInvalidOwner",
      "type": "error"
    },
    {
      "inputs": [
        {
          "internalType": "address",
          "name": "account",
          "type": "address"
        }
      ],
      "name": "OwnableUnauthorizedAccount",
      "type": "error"
    },
    {
      "inputs": [],
      "name": "ReentrancyGuardReentrantCall",
      "type": "error"
    },
    {
      "anonymous": false,
      "inputs": [
        {
          "indexed": true,
          "internalType": "uint256",
          "name": "roundId",
          "type": "uint256"
        },
        {
          "indexed": true,
          "internalType": "uint256",
          "name": "projectId",
          "type": "uint256"
        },
        {
          "indexed": true,
          "internalType": "address",
          "name": "donor",
          "type": "address"
        }
      ],
      "name": "DonationReceived",
      "type": "event"
    },
    {
      "anonymous": false,
      "inputs": [
        {
          "indexed": true,
          "internalType": "uint256",
          "name": "roundId",
          "type": "uint256"
        },
        {
          "indexed": false,
          "internalType": "uint256",
          "name": "projectsProcessed",
          "type": "uint256"
        }
      ],
      "name": "MatchingCalculated",
      "type": "event"
    },
    {
      "anonymous": false,
      "inputs": [
        {
          "indexed": true,
          "internalType": "uint256",
          "name": "roundId",
          "type": "uint256"
        },
        {
          "indexed": true,
          "internalType": "address",
          "name": "contributor",
          "type": "address"
        }
      ],
      "name": "MatchingPoolIncreased",
      "type": "event"
    },
    {
      "anonymous": false,
      "inputs": [
        {
          "indexed": true,
          "internalType": "address",
          "name": "previousOwner",
          "type": "address"
        },
        {
          "indexed": true,
          "internalType": "address",
          "name": "newOwner",
          "type": "address"
        }
      ],
      "name": "OwnershipTransferred",
      "type": "event"
    },
    {
      "anonymous": false,
      "inputs": [
        {
          "indexed": false,
          "internalType": "address",
          "name": "account",
          "type": "address"
        }
      ],
      "name": "Paused",
      "type": "event"
    },
    {
      "anonymous": false,
      "inputs": [
        {
          "indexed": true,
          "internalType": "address",
          "name": "user",
          "type": "address"
        },
        {
          "indexed": true,
          "internalType": "bytes32",
          "name": "dataId",
          "type": "bytes32"
        }
      ],
      "name": "ReencryptionPermissionGranted",
      "type": "event"
    },
    {
      "anonymous": false,
      "inputs": [
        {
          "indexed": true,
          "internalType": "address",
          "name": "user",
          "type": "address"
        },
        {
          "indexed": true,
          "internalType": "bytes32",
          "name": "dataId",
          "type": "bytes32"
        }
      ],
      "name": "ReencryptionPermissionRevoked",
      "type": "event"
    },
    {
      "anonymous": false,
      "inputs": [
        {
          "indexed": true,
          "internalType": "uint256",
          "name": "roundId",
          "type": "uint256"
        },
        {
          "indexed": false,
          "internalType": "string",
          "name": "name",
          "type": "string"
        },
        {
          "indexed": false,
          "internalType": "uint256",
          "name": "startTime",
          "type": "uint256"
        },
        {
          "indexed": false,
          "internalType": "uint256",
          "name": "endTime",
          "type": "uint256"
        }
      ],
      "name": "RoundCreated",
      "type": "event"
    },
    {
      "anonymous": false,
      "inputs": [
        {
          "indexed": true,
          "internalType": "uint256",
          "name": "roundId",
          "type": "uint256"
        },
        {
          "indexed": false,
          "internalType": "uint256",
          "name": "timestamp",
          "type": "uint256"
        }
      ],
      "name": "RoundFinalized",
      "type": "event"
    },
    {
      "anonymous": false,
      "inputs": [
        {
          "indexed": false,
          "internalType": "address",
          "name": "account",
          "type": "address"
        }
      ],
      "name": "Unpaused",
      "type": "event"
    },
    {
      "inputs": [
        {
          "internalType": "uint256",
          "name": "roundId",
          "type": "uint256"
        },
        {
          "internalType": "externalEuint32",
          "name": "encryptedAmountHandle",
          "type": "bytes32"
        },
        {
          "internalType": "bytes",
          "name": "inputProof",
          "type": "bytes"
        }
      ],
      "name": "addToMatchingPool",
      "outputs": [],
      "stateMutability": "nonpayable",
      "type": "function"
    },
    {
      "inputs": [
        {
          "internalType": "uint256",
          "name": "roundId",
          "type": "uint256"
        }
      ],
      "name": "calculateMatching",
      "outputs": [],
      "stateMutability": "nonpayable",
      "type": "function"
    },
    {
      "inputs": [
        {
          "internalType": "string",
          "name": "name",
          "type": "string"
        },
        {
          "internalType": "uint256",
          "name": "startTime",
          "type": "uint256"
        },
        {
          "internalType": "uint256",
          "name": "endTime",
          "type": "uint256"
        },
        {
          "internalType": "externalEuint32",
          "name": "encryptedMatchingPoolHandle",
          "type": "bytes32"
        },
        {
          "internalType": "bytes",
          "name": "inputProof",
          "type": "bytes"
        },
        {
          "internalType": "uint256",
          "name": "minDonation",
          "type": "uint256"
        },
        {
          "internalType": "uint256",
          "name": "maxDonation",
          "type": "uint256"
        }
      ],
      "name": "createRound",
      "outputs": [
        {
          "internalType": "uint256",
          "name": "roundId",
          "type": "uint256"
        }
      ],
      "stateMutability": "nonpayable",
      "type": "function"
    },
    {
      "inputs": [
        {
          "internalType": "uint256",
          "name": "",
          "type": "uint256"
        },
        {
          "internalType": "address",
          "name": "",
          "type": "address"
        },
        {
          "internalType": "uint256",
          "name": "",
          "type": "uint256"
        }
      ],
      "name": "donorContributions",
      "outputs": [
        {
          "internalType": "euint32",
          "name": "",
          "type": "bytes32"
        }
      ],
      "stateMutability": "view",
      "type": "function"
    },
    {
      "inputs": [
        {
          "internalType": "uint256",
          "name": "roundId",
          "type": "uint256"
        }
      ],
      "name": "finalizeRound",
      "outputs": [],
      "stateMutability": "nonpayable",
      "type": "function"
    },
    {
      "inputs": [
        {
          "internalType": "uint256",
          "name": "roundId",
          "type": "uint256"
        },
        {
          "internalType": "uint256",
          "name": "projectId",
          "type": "uint256"
        },
        {
          "internalType": "address",
          "name": "donor",
          "type": "address"
        }
      ],
      "name": "getEncryptedDonation",
      "outputs": [
        {
          "internalType": "euint32",
          "name": "",
          "type": "bytes32"
        }
      ],
      "stateMutability": "view",
      "type": "function"
    },
    {
      "inputs": [
        {
          "internalType": "uint256",
          "name": "roundId",
          "type": "uint256"
        },
        {
          "internalType": "uint256",
          "name": "projectId",
          "type": "uint256"
        }
      ],
      "name": "getEncryptedMatchingAmount",
      "outputs": [
        {
          "internalType": "euint32",
          "name": "",
          "type": "bytes32"
        }
      ],
      "stateMutability": "view",
      "type": "function"
    },
    {
      "inputs": [
        {
          "internalType": "uint256",
          "name": "roundId",
          "type": "uint256"
        },
        {
          "internalType": "uint256",
          "name": "projectId",
          "type": "uint256"
        }
      ],
      "name": "getEncryptedProjectTotal",
      "outputs": [
        {
          "internalType": "euint32",
          "name": "",
          "type": "bytes32"
        }
      ],
      "stateMutability": "view",
      "type": "function"
    },
    {
      "inputs": [
        {
          "internalType": "uint256",
          "name": "roundId",
          "type": "uint256"
        }
      ],
      "name": "getRoundInfo",
      "outputs": [
        {
          "internalType": "string",
          "name": "name",
          "type": "string"
        },
        {
          "internalType": "uint256",
          "name": "startTime",
          "type": "uint256"
        },
        {
          "internalType": "uint256",
          "name": "endTime",
          "type": "uint256"
        },
        {
          "internalType": "uint256",
          "name": "minDonation",
          "type": "uint256"
        },
        {
          "internalType": "uint256",
          "name": "maxDonation",
          "type": "uint256"
        },
        {
          "internalType": "bool",
          "name": "isFinalized",
          "type": "bool"
        },
        {
          "internalType": "uint256",
          "name": "totalProjects",
          "type": "uint256"
        },
        {
          "internalType": "uint256",
          "name": "totalDonors",
          "type": "uint256"
        }
      ],
      "stateMutability": "view",
      "type": "function"
    },
    {
      "inputs": [
        {
          "internalType": "address",
          "name": "user",
          "type": "address"
        },
        {
          "internalType": "bytes32",
          "name": "dataId",
          "type": "bytes32"
        }
      ],
      "name": "hasReencryptionPermission",
      "outputs": [
        {
          "internalType": "bool",
          "name": "",
          "type": "bool"
        }
      ],
      "stateMutability": "view",
      "type": "function"
    },
    {
      "inputs": [],
      "name": "matchingCapPercentage",
      "outputs": [
        {
          "internalType": "uint256",
          "name": "",
          "type": "uint256"
        }
      ],
      "stateMutability": "view",
      "type": "function"
    },
    {
      "inputs": [],
      "name": "minProjectsForMatching",
      "outputs": [
        {
          "internalType": "uint256",
          "name": "",
          "type": "uint256"
        }
      ],
      "stateMutability": "view",
      "type": "function"
    },
    {
      "inputs": [],
      "name": "nextRoundId",
      "outputs": [
        {
          "internalType": "uint256",
          "name": "",
          "type": "uint256"
        }
      ],
      "stateMutability": "view",
      "type": "function"
    },
    {
      "inputs": [],
      "name": "owner",
      "outputs": [
        {
          "internalType": "address",
          "name": "",
          "type": "address"
        }
      ],
      "stateMutability": "view",
      "type": "function"
    },
    {
      "inputs": [],
      "name": "pause",
      "outputs": [],
      "stateMutability": "nonpayable",
      "type": "function"
    },
    {
      "inputs": [],
      "name": "paused",
      "outputs": [
        {
          "internalType": "bool",
          "name": "",
          "type": "bool"
        }
      ],
      "stateMutability": "view",
      "type": "function"
    },
    {
      "inputs": [
        {
          "internalType": "uint256",
          "name": "roundId",
          "type": "uint256"
        },
        {
          "internalType": "uint256",
          "name": "projectId",
          "type": "uint256"
        },
        {
          "internalType": "externalEuint32",
          "name": "encryptedAmountHandle",
          "type": "bytes32"
        },
        {
          "internalType": "bytes",
          "name": "inputProof",
          "type": "bytes"
        }
      ],
      "name": "processDonation",
      "outputs": [],
      "stateMutability": "nonpayable",
      "type": "function"
    },
    {
      "inputs": [
        {
          "internalType": "uint256",
          "name": "roundId",
          "type": "uint256"
        },
        {
          "internalType": "uint256[]",
          "name": "projectIds",
          "type": "uint256[]"
        },
        {
          "internalType": "bytes[]",
          "name": "encryptedAmounts",
          "type": "bytes[]"
        },
        {
          "internalType": "bytes[]",
          "name": "proofs",
          "type": "bytes[]"
        }
      ],
      "name": "processDonationBatch",
      "outputs": [],
      "stateMutability": "nonpayable",
      "type": "function"
    },
    {
      "inputs": [
        {
          "internalType": "uint256",
          "name": "",
          "type": "uint256"
        },
        {
          "internalType": "uint256",
          "name": "",
          "type": "uint256"
        }
      ],
      "name": "projectDonations",
      "outputs": [
        {
          "internalType": "euint32",
          "name": "totalAmount",
          "type": "bytes32"
        },
        {
          "internalType": "uint256",
          "name": "donorCount",
          "type": "uint256"
        },
        {
          "internalType": "bool",
          "name": "hasMatching",
          "type": "bool"
        }
      ],
      "stateMutability": "view",
      "type": "function"
    },
    {
      "inputs": [
        {
          "internalType": "uint256",
          "name": "",
          "type": "uint256"
        },
        {
          "internalType": "uint256",
          "name": "",
          "type": "uint256"
        }
      ],
      "name": "projectMatching",
      "outputs": [
        {
          "internalType": "euint32",
          "name": "",
          "type": "bytes32"
        }
      ],
      "stateMutability": "view",
      "type": "function"
    },
    {
      "inputs": [],
      "name": "protocolId",
      "outputs": [
        {
          "internalType": "uint256",
          "name": "",
          "type": "uint256"
        }
      ],
      "stateMutability": "pure",
      "type": "function"
    },
    {
      "inputs": [],
      "name": "renounceOwnership",
      "outputs": [],
      "stateMutability": "nonpayable",
      "type": "function"
    },
    {
      "inputs": [
        {
          "internalType": "uint256",
          "name": "",
          "type": "uint256"
        },
        {
          "internalType": "uint256",
          "name": "",
          "type": "uint256"
        }
      ],
      "name": "roundDonors",
      "outputs": [
        {
          "internalType": "address",
          "name": "",
          "type": "address"
        }
      ],
      "stateMutability": "view",
      "type": "function"
    },
    {
      "inputs": [
        {
          "internalType": "uint256",
          "name": "",
          "type": "uint256"
        },
        {
          "internalType": "uint256",
          "name": "",
          "type": "uint256"
        }
      ],
      "name": "roundProjects",
      "outputs": [
        {
          "internalType": "uint256",
          "name": "",
          "type": "uint256"
        }
      ],
      "stateMutability": "view",
      "type": "function"
    },
    {
      "inputs": [
        {
          "internalType": "uint256",
          "name": "",
          "type": "uint256"
        }
      ],
      "name": "rounds",
      "outputs": [
        {
          "internalType": "uint256",
          "name": "id",
          "type": "uint256"
        },
        {
          "internalType": "string",
          "name": "name",
          "type": "string"
        },
        {
          "internalType": "uint256",
          "name": "startTime",
          "type": "uint256"
        },
        {
          "internalType": "uint256",
          "name": "endTime",
          "type": "uint256"
        },
        {
          "internalType": "euint32",
          "name": "matchingPool",
          "type": "bytes32"
        },
        {
          "internalType": "uint256",
          "name": "minDonation",
          "type": "uint256"
        },
        {
          "internalType": "uint256",
          "name": "maxDonation",
          "type": "uint256"
        },
        {
          "internalType": "bool",
          "name": "isFinalized",
          "type": "bool"
        },
        {
          "internalType": "uint256",
          "name": "totalProjects",
          "type": "uint256"
        },
        {
          "internalType": "uint256",
          "name": "totalDonors",
          "type": "uint256"
        }
      ],
      "stateMutability": "view",
      "type": "function"
    },
    {
      "inputs": [
        {
          "internalType": "address",
          "name": "newOwner",
          "type": "address"
        }
      ],
      "name": "transferOwnership",
      "outputs": [],
      "stateMutability": "nonpayable",
      "type": "function"
    },
    {
      "inputs": [],
      "name": "unpause",
      "outputs": [],
      "stateMutability": "nonpayable",
      "type": "function"
    }
  ],
  "bytecode": "0x6080604052346200002657620000146200006c565b604051612cc8620004558239612cc890f35b5f80fd5b905f19905b9181191691161790565b6200004962000049620000499290565b90565b906200006062000049620000689262000039565b82546200002a565b9055565b62000076620000ad565b620000856107d0600b6200004c565b620000936003600c6200004c565b620000ab620000a3600162000039565b60046200004c565b565b620000ab620000bc33620000d0565b620000ab620000ca62000246565b620002e5565b620000ab90620000e7565b62000049600162000039565b620000f29062000150565b620000ab62000100620000db565b60016200004c565b6200011862000049620000499290565b6001600160a01b031690565b620000499062000108565b6200013a9062000118565b9052565b602081019291620000ab91906200012f565b6200015b5f62000124565b620001668162000118565b620001718362000118565b14620001835750620000ab906200035f565b620001a9906200019260405190565b631e4fbdf760e01b8152918291600483016200013e565b0390fd5b634e487b7160e01b5f52604160045260245ffd5b90601f01601f191681019081106001600160401b03821117620001e357604052565b620001ad565b90620000ab620001f860405190565b9283620001c1565b620000496080620001e9565b6200021662000200565b5f8082526020820181905260408201819052606082015290565b620000496200020c565b906200013a9062000118565b6200025062000230565b5073a02cda4ca3a71d7c46997716f4283aa851c28812620002c26200027462000200565b916200029573687820221192c5b662b25367f70076a37bc79b6c846200023a565b620002b873848b0066793bcc60346da1f49049357399b8d595602085016200023a565b604083016200023a565b62000049731364cbbf2cdf5032c47d8226a6f6fbd2afcdacac606083016200023a565b620000ab90620003c8565b620000499062000118565b620000499054620002f0565b906001600160a01b03906200002f565b620000499062000118906001600160a01b031682565b620000499062000317565b62000049906200032d565b906200035762000049620000689262000338565b825462000307565b6200038b62000384620003725f620002fb565b6200037e845f62000343565b62000338565b9162000338565b907f8be0079c531659141344cd1fd0a4f28419497f9722a3daafe3b4186f6b6457e0620003b760405190565b5f90a3565b62000049905162000118565b620000ab9060036200044c60607f9e7b61f58c47dc699ac88507c4f5bb9f121c03808c5676a8078fe583e4649700936200040d6200040682620003bc565b8662000343565b620004296200041f60208301620003bc565b6001870162000343565b620004456200043b60408301620003bc565b6002870162000343565b01620003bc565b91016200034356fe60806040526004361015610011575f80fd5b5f3560e01c806331a3248c146101c05780633469f6e2146101bb5780633f4ba83a146101b65780634002eda6146101b15780634cea3878146101ac57806359408948146101a75780635c975abb146101a25780636197377c1461019d57806363bdd1591461019857806364725aef14610193578063677a50c01461018e5780636fee1b8114610189578063715018a614610184578063725039221461017f5780638233ab391461017a5780638456cb591461017557806385bc0b4d1461017057806388c3ffb01461016b5780638c65c81f146101665780638da5cb5b14610161578063a509a4841461015c578063b99f79e014610157578063c56f3cac14610152578063cb0202721461014d578063da1f12ab14610148578063ea9627c1146101435763f2fde38b036101c557610cac565b610c7c565b610c3a565b610c1e565b610bf3565b610b82565b610b66565b610ab9565b610a7f565b61082c565b61076b565b610712565b6106f7565b6106d0565b610643565b610627565b6105db565b610517565b6104f2565b61044c565b6103af565b610381565b610322565b6102ef565b6102cc565b6102a5565b610261565b5f80fd5b805b036101c557565b905035906101df826101c9565b565b91906040838203126101c5576102049060206101fd82866101d2565b94016101d2565b90565b6102046102046102049290565b9061021e90610207565b5f5260205260405f2090565b610204916008021c81565b90610204915461022a565b610258610204926102535f936008610214565b610214565b610235565b9052565b346101c55761028d61027d6102773660046101e1565b90610240565b6040519182918290815260200190565b0390f35b906020828203126101c557610204916101d2565b346101c5576102bd6102b8366004610291565b610e9e565b604051005b5f9103126101c557565b346101c5576102dc3660046102c2565b6102bd610eba565b6102045f6004610235565b346101c5576102ff3660046102c2565b61028d61027d6102e4565b9182918290815260200190565b6102045f600b610235565b346101c5576103323660046102c2565b61028d61027d610317565b6001600160a01b031690565b6001600160a01b0381166101cb565b905035906101df82610349565b91906040838203126101c5576102049060206101fd8286610358565b346101c55761028d61039d610397366004610365565b90610ec8565b60405191829182901515815260200190565b346101c5576103bf3660046102c2565b61028d61039d610eee565b909182601f830112156101c5578135916001600160401b0383116101c55760200192600183028401116101c557565b906080828203126101c55761040e81836101d2565b9261041c82602085016101d2565b9261042a83604083016101d2565b9260608201356001600160401b0381116101c55761044892016103ca565b9091565b346101c5576102bd61045f3660046103f9565b93929092611465565b919060e0838203126101c55782356001600160401b0381116101c557816104909185016103ca565b9290936104a083602083016101d2565b926104ae81604084016101d2565b926104bc82606085016101d2565b926080810135916001600160401b0383116101c5576104e0846102049484016103ca565b93909460c06101fd8260a087016101d2565b346101c55761028d61027d610508366004610468565b97969096959195949294611815565b346101c55761028d61027d61052d3660046101e1565b90611827565b909182601f830112156101c5578135916001600160401b0383116101c55760200192602083028401116101c557565b9190916080818403126101c55761057983826101d2565b9260208201356001600160401b0381116101c55781610599918401610533565b92909360408201356001600160401b0381116101c557836105bb918401610533565b92909360608201356001600160401b0381116101c5576104489201610533565b346101c5576105eb366004610562565b959490949391936118f1565b90916060828403126101c55761020461061084846101d2565b93604061062082602087016101d2565b9401610358565b346101c55761028d61027d61063d3660046105f7565b916118f6565b346101c5576106533660046102c2565b6102bd61194b565b90916060828403126101c55761020461067484846101d2565b9360406101fd8260208701610358565b6102049061033d906001600160a01b031682565b61020490610684565b61020490610698565b9061021e906106a1565b610204926102535f936106cb610258946007610214565b6106aa565b346101c55761028d61027d6106e636600461065b565b916106b4565b6102045f600c610235565b346101c5576107073660046102c2565b61028d61027d6106ec565b346101c5576107223660046102c2565b6102bd611966565b916060838303126101c55761073f82846101d2565b9261074d83602083016101d2565b9260408201356001600160401b0381116101c55761044892016103ca565b346101c5576102bd61077e36600461072a565b92919091611a1f565b5f5b8381106107985750505f910152565b8181015183820152602001610789565b6107c96107d26020936107dc936107bd815190565b80835293849260200190565b95869101610787565b601f01601f191690565b0190565b95939198979694929061010087018781035f8901526107fe916107a8565b986020870161080b919052565b604086015260608501526080840152151560a083015260c082015260e00152565b346101c55761028d610847610842366004610291565b611af0565b9461085a98969894919493929360405190565b988998896107e0565b6102049081565b6102049054610863565b634e487b7160e01b5f52602260045260245ffd5b90600160028304921680156108a8575b60208310146108a357565b610874565b91607f1691610898565b80545f9392916108ce6108c483610888565b8085529360200190565b916001811690811561091d57506001146108e757505050565b6108f891929394505f5260205f2090565b915f925b8184106109095750500190565b8054848401526020909301926001016108fc565b92949550505060ff1916825215156020020190565b90610204916108b2565b634e487b7160e01b5f52604160045260245ffd5b90601f01601f191681019081106001600160401b0382111761097157604052565b61093c565b906101df6109909261098760405190565b93848092610932565b0383610950565b6109a2906005610214565b906109ac8261086a565b916109b960018201610976565b916109c66002830161086a565b916109d36003820161086a565b916109e06004830161086a565b916109ed6005820161086a565b916109fa6006830161086a565b91610a09600782015460ff1690565b916102046009610a1b6008850161086a565b930161086a565b908152919998979196919591949193919290610140880188810360208a0152610a4a916107a8565b9960408801610a57919052565b6060870152608086015260a085015260c0840152151560e08301526101008201526101200152565b346101c55761028d610a9a610a95366004610291565b610997565b96610ab09a989a96919695929594939460405190565b9a8b9a8b610a22565b346101c557610ac93660046102c2565b61028d610ad4611b15565b604051918291826001600160a01b03909116815260200190565b634e487b7160e01b5f52603260045260245ffd5b8054821015610b2257610b1a6001915f5260205f2090565b910201905f90565b610aee565b610204916008021c61033d565b906102049154610b27565b610b4a90600a610214565b80548210156101c55761020491610b6091610b02565b90610b34565b346101c55761028d610ad4610b7c3660046101e1565b90610b3f565b346101c5576102bd610b95366004610291565b611e11565b90610253610ba9926006610214565b610bb28161086a565b916102046002610bc46001850161086a565b93015460ff1690565b9081526060810193926101df929091604091610beb905b6020830152565b019015159052565b346101c55761028d610c0f610c093660046101e1565b90610b9a565b60405191939193849384610bcd565b346101c55761028d61027d610c343660046101e1565b90611e1a565b346101c557610c4a3660046102c2565b61028d61027d611e35565b610c60906009610214565b80548210156101c55761020491610c7691610b02565b90610235565b346101c55761028d61027d610c923660046101e1565b90610c55565b906020828203126101c55761020491610358565b346101c5576102bd610cbf366004610c98565b611ea6565b15610ccb57565b60405162461bcd60e51b8152602060048201526014602482015273149bdd5b9908191bd95cc81b9bdd08195e1a5cdd60621b6044820152606490fd5b0390fd5b6101df90610d3f610d286002610d22846005610214565b0161086a565b610d38610d345f610207565b9190565b1415610cc4565b610d82565b15610d4b57565b60405162461bcd60e51b815260206004820152600f60248201526e149bdd5b99081b9bdd08195b991959608a1b6044820152606490fd5b6101df90610da3610d9c6102046003610d22856005610214565b4211610d44565b6101df90610daf611eaf565b610e1e565b15610dbb57565b60405162461bcd60e51b8152602060048201526011602482015270105b1c9958591e48199a5b985b1a5e9959607a1b6044820152606490fd5b9060ff905b9181191691161790565b90610e13610204610e1a92151590565b8254610df4565b9055565b610e6690610e49610e44610e406007610e38856005610214565b015460ff1690565b1590565b610db4565b610e6160016007610e5b846005610214565b01610e03565b610207565b7f2b034c48d6d3c5fa40da8afd25e88ee8ad074a546e1a3f05a860c6106b99b82b610e9060405190565b42815280602081015b0390a2565b6101df90610d0b565b610eaf611eaf565b6101df6101df611f40565b6101df610ea7565b9061021e565b61020491610ee2610ee792610eda5f90565b5060036106aa565b610ec2565b5460ff1690565b60025460ff1690565b15610efe57565b60405162461bcd60e51b8152602060048201526011602482015270149bdd5b99081b9bdd081cdd185c9d1959607a1b6044820152606490fd5b15610f3e57565b60405162461bcd60e51b815260206004820152600b60248201526a149bdd5b9908195b99195960aa1b6044820152606490fd5b15610f7857565b60405162461bcd60e51b815260206004820152600f60248201526e149bdd5b9908199a5b985b1a5e9959608a1b6044820152606490fd5b906101df94939291611007611002610e406007610e38856005610fe5610fdd6102046002610d228686610214565b421015610ef7565b610253610ffa6102046003610d228686610214565b421115610f37565b610f71565b906101df94939291611017611f48565b9061102c94939291611027611f72565b6111c4565b6101df611fb2565b906101df61104160405190565b9283610950565b6001600160401b03811161097157602090601f01601f19160190565b90825f939282370152565b9092919261108461107f82611048565b611034565b93818552818301116101c5576101df916020850190611064565b61020491369161106f565b6110b66102046102049290565b63ffffffff1690565b905f1990610df9565b906110d6610204610e1a9290565b82546110bf565b634e487b7160e01b5f52601160045260245ffd5b5f1981146110ff5760010190565b6110dd565b906110d6610204610e1a92610207565b915f1960089290920291821b911b610df9565b9190611138610204610e1a93610207565b908354611114565b90815491600160401b83101561097157826111639160016101df95018155610b02565b90611127565b916001600160a01b0360089290920291821b911b610df9565b9190611193610204610e1a936106a1565b908354611169565b90815491600160401b83101561097157826111be9160016101df95018155610b02565b90611182565b926111da9291946111d49161109e565b90611fc4565b60016112226112006111fb866102536111f4886007610214565b33906106aa565b61086a565b9261121b6112156112105f6110a9565b611ff4565b85612012565b508361207c565b9161128261125f6112586005956112496112106112446006610d228c8c610214565b6110a9565b61125381836120ae565b612118565b928361213b565b9161127b81611276896102536111f48b6007610214565b6110c8565b33906121a5565b5061128c816121b0565b506112bd6112a261020487610253886006610214565b9182906112b7906112b28361086a565b61207c565b906110c8565b016112c78161086a565b6112d3610d345f610207565b148015611451575b61132d575b50506112ee6112f491610207565b91610207565b6112fd336106a1565b917fd1509d0d614d0c3e599471b10aa247cc85ce44879836c03502258b44cc12af0261132860405190565b5f90a4565b806111fb61134561134061134b9461086a565b6110f1565b82611104565b60019061135b610d346001610207565b14611426575b5f61137061020485600a610214565b918061137b5f610207565b905b6113d6575b5050926112ee9281926113986112f49615151590565b6113a6575b505092506112e0565b6113ce926009926102536113bb93339061119b565b016113c86113408261086a565b90611104565b805f8061139d565b6113e1610204855490565b811015611421576113f5610b608286610b02565b611407335b916001600160a01b031690565b14611415576001018161137d565b509050826112f4611382565b611382565b61143d84611438610204866009610214565b611140565b61144c60086113bb8585610214565b611361565b50611460610e408533866121c3565b6112db565b906101df94939291610faf565b90610204999897969594939291611487611eaf565b9061020499989796959493929161149c611f48565b6116fb565b156114a857565b60405162461bcd60e51b8152602060048201526012602482015271496e76616c69642073746172742074696d6560701b6044820152606490fd5b156114e957565b60405162461bcd60e51b815260206004820152601060248201526f496e76616c696420656e642074696d6560801b6044820152606490fd5b1561152857565b60405162461bcd60e51b815260206004820152601760248201527f496e76616c696420646f6e6174696f6e206c696d6974730000000000000000006044820152606490fd5b6101df915f91611127565b818110611583575050565b806115905f60019361156d565b01611578565b9190601f81116115a557505050565b6115b56101df935f5260205f2090565b906020601f8401819004830193106115d7575b6020601f909101040190611578565b90915081906115c8565b91906001600160401b03821161097157611605826115ff8554610888565b85611596565b5f90601f831160011461163d57610e1a92915f9183611632575b50505f19600883021c1916906002021790565b013590505f8061161f565b90601f19831691611651855f5260205f2090565b925f5b81811061168d57509160029391856001969410611675575b50505002019055565b01355f19601f84166008021c191690555f808061166c565b92936020600181928786013581550195019301611654565b906101df92916115e1565b91906107d2816116c7816107dc9560209181520190565b8095611064565b6116f76116ef6040936101df9698979560608501918583035f8701526116b0565b966020830152565b0152565b50949897929691959094939290916117144288116114a1565b61171f8789116114e2565b61172a818311611521565b611734600461086a565b9361173e856110f1565b611749906004611104565b849a611756866005610214565b946117618787611104565b61176f8989600189016116a5565b61177c8a60028801611104565b6117898b60038801611104565b6117929161109e565b61179b91611fc4565b6117a890600485016110c8565b6117b59060058401611104565b6117c29060068301611104565b6007015f6117cf91610e03565b6117d890610207565b936117e260405190565b9384936117ef93856116ce565b037fe5fc1affaef00db854e626dd509a961dc2f0565b785b436f277c8fe47fcac96391a2565b6102049897969594939291905f611472565b610204916102536111fb926118395f90565b506008610214565b611867611002610e406007610e38856005610fe5610fdd6102046002610d228686610214565b61186f611f48565b611877611f72565b60405162461bcd60e51b815260206004820152604660248201527f426174636820646f6e6174696f6e73206e6f7420737570706f727465642e205560448201527f736520696e646976696475616c2070726f63657373446f6e6174696f6e28292060648201526531b0b636399760d11b608482015260a490fd5b611841565b90610253610204936106cb6111fb9461190c5f90565b506007610214565b61191c611eaf565b6101df61193a565b61033d6102046102049290565b61020490611924565b6101df6119465f611931565b612202565b6101df611914565b61195b611eaf565b6101df6101df612292565b6101df611953565b906101df939291611988610d286002610d22846005610214565b906101df939291611997611f48565b60046119e0826119da6119cc610e61966111d46119e69a859a6119c7611002610e406007610e3860059e8f610214565b61109e565b6112b285610d228589610214565b93610214565b016110c8565b6119ef336106a1565b907f08f17d8a7695a5e52e32908dc0e87d3d2eb73920998250f69e5a6f8d76fcaeca611a1a60405190565b5f90a3565b906101df93929161196e565b90611a4f9897969594939291611a4a610d286002610d228c6005610214565b611a62565b9091929394959697565b61020490610976565b50611a7c9761020497509550600594506102149350505050565b906001820191611a8e6002820161086a565b92611a9b6003830161086a565b92611aa86005840161086a565b92611ab56006820161086a565b92611ac4600783015460ff1690565b92611ae6611ae06009611ad96008870161086a565b950161086a565b92611a59565b9796959493929190565b611a4f905f8080808080806060611a2b565b6102049061033d565b6102049054611b02565b6102045f611b0b565b6101df90611b35610d286002610d22846005610214565b6101df90611b4f610d9c6102046003610d22856005610214565b6101df90611b5b611eaf565b611c21565b15611b6757565b60405162461bcd60e51b81526020600482015260136024820152724e6f7420656e6f7567682070726f6a6563747360681b6044820152606490fd5b6001600160401b0381116109715760208091020190565b90611bc661107f83611ba2565b918252565b369037565b906101df611be6611be084611bb9565b93611ba2565b601f190160208401611bcb565b90611bfc825190565b811015610b22576020809102010190565b611c1a6102046102049290565b61ffff1690565b90611c38610e44610e406007610e38866005610214565b611c46610204836009610214565b611c68611c51825490565b611c61610d34610204600c61086a565b1015611b60565b611c746112105f6110a9565b90611c85611c80825490565b611bd0565b90611c8f5f610207565b925b611c9c610204835490565b841015611cdf57611cd2611cd991611cc0611cba610c768887610b02565b8961229a565b906112b282611ccf8989611bf3565b52565b9360010190565b92611c91565b925090939293611cf56004610d22866005610214565b90611d11611d0b611d06600b61086a565b611c0d565b836123b1565b92611d1b5f610207565b611d26610204835490565b811015611dd05780611dc260016002610e5b8a6102538d9e9d611dbb611dac8e611da18f8f8f611dc89f611d9c92611d96611d67610c7684611d7896610b02565b9c611d8f611d7c611d788686611bf3565b5190565b611d89611d788787611bf3565b906123fd565b50806123fd565b50611bf3565b6123fd565b9061125381836120ae565b61127685610253856008610214565b6006610214565b60010190565b969596611d1b565b50547f194efc8de30318e7527d26ff1ac690f0bcb6d19090504f98417e17f258d608f29450610e999350611e079250905093610207565b9261030a60405190565b6101df90611b1e565b610d22610204926102535f93611e2d5f90565b506006610214565b610204612407565b6101df90611e49611eaf565b611e525f611931565b6001600160a01b0381166001600160a01b03831614611e7557506101df90612202565b610d0790611e8260405190565b631e4fbdf760e01b8152918291600483016001600160a01b03909116815260200190565b6101df90611e3d565b611eb7611b15565b3390611ec2826113fa565b03611eca5750565b610d0790611ed760405190565b63118cdaa760e01b8152918291600483016001600160a01b03909116815260200190565b611f03612412565b6101df611f115f6002610e03565b7f5db9ee0a495bf2e6ff9c91a7834c1ba4fdd244a5e8aa4e537bd38aeae4b073aa611f3b33610ad4565b0390a1565b6101df611efb565b611f50610eee565b611f5657565b60405163d93c066560e01b8152600490fd5b6102046002610207565b611f7c600161086a565b611f84611f68565b908114611f96576101df906001611104565b604051633ee5aeb560e01b8152600490fd5b6102046001610207565b6101df611fbd611fa8565b6001611104565b600461020492611fdc61020493611fd85f90565b5090565b6124e4565b6102046102046102049263ffffffff1690565b610204600461200d610204936120075f90565b50611fe1565b61262e565b5f61020492610204926120225f90565b5061202f610e40826126ab565b61206a575b612040610e40836126ab565b61204d575b905b90612707565b9050612047610d34612061611210856110a9565b92915050612045565b50612077611210836110a9565b612034565b61209b6120946102049361208d5f90565b5083612779565b91826127e3565b6120a863ffffffff611ff4565b90612118565b5f61020492610204926120be5f90565b506120cb610e40826126ab565b612106575b6120dc610e40836126ab565b6120e9575b905b9061284d565b90506120e3610d346120fd611210856110a9565b929150506120e1565b50612113611210836110a9565b6120d0565b9061020492612135610d3461213161020495611fd85f90565b9390565b916128d3565b5f610204926102049261214b5f90565b50612158610e40826126ab565b612193575b612169610e40836126ab565b612176575b905b90612924565b9050612170610d3461218a611210856110a9565b9291505061216e565b506121a0611210836110a9565b61215d565b90610204908261298f565b610204816121bd306106a1565b9061298f565b6121d692916106cb6102539261190c5f90565b50600190565b906001600160a01b0390610df9565b906121fb610204610e1a926106a1565b82546121dc565b6122266122206122115f611b0b565b61221b845f6121eb565b6106a1565b916106a1565b907f8be0079c531659141344cd1fd0a4f28419497f9722a3daafe3b4186f6b6457e0611a1a60405190565b612259611f48565b6101df61226860016002610e03565b7f62e78cea01bee320cd4e420270b5ea74000d11b0c9f74754ebdbfc544b05a258611f3b33610ad4565b6101df612251565b906122a45f6110a9565b906122ae82611ff4565b926122bd61020482600a610214565b906122c75f610207565b945b6122d4610204845490565b86101561234b5761233e6123459161233861230e6111fb886102538c612308610b606123018c6007610214565b928d610b02565b906106aa565b61232961232361231d8b611ff4565b836120ae565b916129f2565b6123328a611ff4565b91612118565b9061207c565b9560010190565b946122c9565b94505050505090565b1561235b57565b60405162461bcd60e51b815260206004820152601760248201527f50657263656e74616765206578636565647320313030250000000000000000006044820152606490fd5b6110b66102046102049261ffff1690565b906123f76123f1610204936123c35f90565b506123eb611210612710956123e66123da88611c0d565b61ffff83161115612354565b6123a0565b90612a29565b916110a9565b90612a93565b6102049190612a29565b610204612711610207565b61241d610e40610eee565b61242357565b604051638dfc202b60e01b8152600490fd5b905051906101df826101c9565b906020828203126101c55761020491612435565b634e487b7160e01b5f52602160045260245ffd5b6054111561247457565b612456565b906101df8261246a565b61020490612479565b61025d90612483565b9493916060916101df946124c46124d1936124b460808b01945f8c0152565b6001600160a01b031660208a0152565b87820360408901526107a8565b94019061248c565b6040513d5f823e3d90fd5b6125589193926020916124f45f90565b505f80516020612c73833981519152955f61253261221b807f9e7b61f58c47dc699ac88507c4f5bb9f121c03808c5676a8078fe583e4649701611b0b565b9261253c60405190565b9687958694859363196d0b9b60e01b8552339060048601612495565b03925af19081156125e4575f916125e9575b5061257d61221b61221b5f849601611b0b565b803b156101c5576125bc5f9291839261259560405190565b630f8e573b60e21b8152600481019190915233602482015293849283919082906044820190565b03925af180156125e4576125cd5750565b6101df905f6125dc8183610950565b8101906102c2565b6124d9565b61260b915060203d602011612611575b6126038183610950565b810190612442565b5f61256a565b503d6125f9565b9081526040810192916101df916020019061248c565b61267d9160209161265361221b8060015f80516020612c738339815191525b01611b0b565b905f61265e60405190565b809681958294612672639cd07acb60e01b90565b845260048401612618565b03925af19081156125e4575f91612692575090565b610204915060203d602011612611576126038183610950565b6126b7610d345f610207565b141590565b6126cf6126c96102049290565b60f81b90565b6001600160f81b03191690565b9081526060810193926101df9290916040916126f790610be4565b01906001600160f81b0319169052565b9060209161267d936127165f90565b501561276a5761272660016126bc565b915b5f61274561221b8060015f80516020612c7383398151915261264d565b9261274f60405190565b9687958694859363f77f3f1d60e01b5b8552600485016126dc565b6127735f6126bc565b91612728565b5f61020492610204926127895f90565b50612796610e40826126ab565b6127d1575b6127a7610e40836126ab565b6127b4575b905b90612ae4565b90506127ae610d346127c8611210856110a9565b929150506127ac565b506127de611210836110a9565b61279b565b5f61020492610204926127f35f90565b50612800610e40826126ab565b61283b575b612811610e40836126ab565b61281e575b905b90612b4f565b9050612818610d34612832611210856110a9565b92915050612816565b50612848611210836110a9565b612805565b9060209161267d9361285c5f90565b50156128a95761286c60016126bc565b915b5f61288b61221b8060015f80516020612c7383398151915261264d565b9261289560405190565b968795869485936385362ee760e01b61275f565b6128b25f6126bc565b9161286e565b9081526060810193926101df9290916040916116f790610be4565b9161267d926020926128e25f90565b505f61290061221b8060015f80516020612c7383398151915261264d565b9261290a60405190565b96879586948593637702dcff60e01b8552600485016128b8565b9060209161267d936129335f90565b50156129805761294360016126bc565b915b5f61296261221b8060015f80516020612c7383398151915261264d565b9261296c60405190565b968795869485936303056db360e31b61275f565b6129895f6126bc565b91612945565b6129aa61221b805f5f80516020612c7383398151915261264d565b91823b156101c5576125bc925f92836129c260405190565b8096819582946129d663b9496b6260e01b90565b845260048401526001600160a01b031660248301526044820190565b610204906129ff5f6110a9565b906120a8612a23612a18612a1285611ff4565b84612012565b926123f760026110a9565b92611ff4565b5f6102049261020492612a395f90565b50612a46610e40826126ab565b612a81575b612a57610e40836126ab565b612a64575b905b90612bba565b9050612a5e610d34612a78611210856110a9565b92915050612a5c565b50612a8e611210836110a9565b612a4b565b6102049161020491612aa7610e40826126ab565b612ac5575b610e61612ab9612abf9290565b92611fe1565b90612c25565b50612abf610e61612ab9612adb6112105f6110a9565b92505050612aac565b9060209161267d93612af35f90565b5015612b4057612b0360016126bc565b915b5f612b2261221b8060015f80516020612c7383398151915261264d565b92612b2c60405190565b9687958694859363022f65e760e31b61275f565b612b495f6126bc565b91612b05565b9060209161267d93612b5e5f90565b5015612bab57612b6e60016126bc565b915b5f612b8d61221b8060015f80516020612c7383398151915261264d565b92612b9760405190565b96879586948593637210768160e01b61275f565b612bb45f6126bc565b91612b70565b9060209161267d93612bc95f90565b5015612c1657612bd960016126bc565b915b5f612bf861221b8060015f80516020612c7383398151915261264d565b92612c0260405190565b96879586948593630afe14ad60e31b61275f565b612c1f5f6126bc565b91612bdb565b61267d91602091612c3660016126bc565b915f612c5461221b8060015f80516020612c7383398151915261264d565b92612c5e60405190565b96879586948593635a53accb60e01b61275f56fe9e7b61f58c47dc699ac88507c4f5bb9f121c03808c5676a8078fe583e4649700a2646970667358221220278ce06483a383356d3d15667b16032c19f6a728f2188cac9afe00d24c3e505564736f6c63430008180033",
  "linkReferences": {},
  "deployedLinkReferences": {}
}