{
  "_format": "hh-sol-artifact-1",
  "contractName": "EthereumConfig",
  "sourceName": "@fhevm/solidity/config/ZamaConfig.sol",
  "abi": [
    {
      "inputs": [],
      "stateMutability": "nonpayable",
      "type": "constructor"
    },
    {
      "inputs": [],
      "name": "protocolId",
      "outputs": [
        {
          "internalType": "uint256",
          "name": "",
          "type": "uint256"
        }
      ],
      "stateMutability": "pure",
      "type": "function"
    }
  ],
  "bytecode": "0x60806040523461002057610011610024565b60405160a661021c823960a690f35b5f80fd5b61003461002f6100eb565b610136565b565b634e487b7160e01b5f52604160045260245ffd5b90601f01601f191681019081106001600160401b0382111761006b57604052565b610036565b9061003461007d60405190565b928361004a565b61008e6080610070565b90565b610099610084565b5f8082526020820181905260408201819052606082015290565b61008e610091565b6100c861008e61008e9290565b6001600160a01b031690565b61008e906100bb565b906100e7906100c8565b9052565b6100f36100b3565b506100fd5f6100d4565b61008e610108610084565b9161011381846100dd565b61012081602085016100dd565b61012d81604085016100dd565b606083016100dd565b6100349061019f565b61008e90516100c8565b61008e906100c8906001600160a01b031682565b61008e90610149565b61008e9061015d565b9061017f61008e61019b92610166565b82546001600160a01b0319166001600160a01b03919091161790565b9055565b61003490600361021460607f9e7b61f58c47dc699ac88507c4f5bb9f121c03808c5676a8078fe583e4649700936101de6101d88261013f565b8661016f565b6101f66101ed6020830161013f565b6001870161016f565b61020e6102056040830161013f565b6002870161016f565b0161013f565b910161016f56fe608060405260043610156010575f80fd5b5f3560e01c63da1f12ab14602c575b5f80fd5b5f910312601f57565b34601f5760393660046023565b605160416055565b6040519182918290815260200190565b0390f35b605b6068565b90565b605b605b605b9290565b605b6001605e56fea2646970667358221220e58a30b41848fe9a81c857248fffc82b26be1e6ea65f57fbee41c8ea297a405564736f6c63430008180033",
  "linkReferences": {},
  "deployedLinkReferences": {}
}