{
  "_format": "hh-sol-artifact-1",
  "contractName": "SepoliaConfig",
  "sourceName": "@fhevm/solidity/config/ZamaConfig.sol",
  "abi": [
    {
      "inputs": [],
      "stateMutability": "nonpayable",
      "type": "constructor"
    },
    {
      "inputs": [],
      "name": "protocolId",
      "outputs": [
        {
          "internalType": "uint256",
          "name": "",
          "type": "uint256"
        }
      ],
      "stateMutability": "pure",
      "type": "function"
    }
  ],
  "bytecode": "0x60806040523461002057610011610024565b60405160a761024b823960a790f35b5f80fd5b61003461002f6100c7565b61014f565b565b634e487b7160e01b5f52604160045260245ffd5b90601f01601f191681019081106001600160401b0382111761006b57604052565b610036565b9061003461007d60405190565b928361004a565b61008e6080610070565b90565b610099610084565b5f8082526020820181905260408201819052606082015290565b61008e610091565b6001600160a01b031690565b6100cf6100b3565b5073a02cda4ca3a71d7c46997716f4283aa851c288126101326100f0610084565b73687820221192c5b662b25367f70076a37bc79b6c81529173848b0066793bcc60346da1f49049357399b8d59560208401526001600160a01b03166040830152565b731364cbbf2cdf5032c47d8226a6f6fbd2afcdacac606082015290565b610034906101ae565b61008e906100bb906001600160a01b031682565b61008e90610158565b61008e9061016c565b9061018e61008e6101aa92610175565b82546001600160a01b0319166001600160a01b03919091161790565b9055565b61003490600361024360607f9e7b61f58c47dc699ac88507c4f5bb9f121c03808c5676a8078fe583e4649700936101f56101ef82516001600160a01b031690565b8661017e565b61021561020c60208301516001600160a01b031690565b6001870161017e565b61023561022c60408301516001600160a01b031690565b6002870161017e565b01516001600160a01b031690565b910161017e56fe608060405260043610156010575f80fd5b5f3560e01c63da1f12ab14602c575b5f80fd5b5f910312601f57565b34601f5760393660046023565b605160416055565b6040519182918290815260200190565b0390f35b605b6068565b90565b605b605b605b9290565b605b612711605e56fea2646970667358221220eb969be3951832eb691296c17ae217276a177d29483dc97f7768c756b86d89de64736f6c63430008180033",
  "linkReferences": {},
  "deployedLinkReferences": {}
}