{
  "_format": "hh-sol-artifact-1",
  "contractName": "FHEQuadraticFunding",
  "sourceName": "src/FHEQuadraticFunding.sol",
  "abi": [
    {
      "inputs": [
        {
          "internalType": "address",
          "name": "_projectRegistry",
          "type": "address"
        },
        {
          "internalType": "address",
          "name": "_donationRound",
          "type": "address"
        },
        {
          "internalType": "address",
          "name": "_matchingPool",
          "type": "address"
        },
        {
          "internalType": "address",
          "name": "_feeRecipient",
          "type": "address"
        }
      ],
      "stateMutability": "nonpayable",
      "type": "constructor"
    },
    {
      "inputs": [],
      "name": "EnforcedPause",
      "type": "error"
    },
    {
      "inputs": [],
      "name": "ExpectedPause",
      "type": "error"
    },
    {
      "inputs": [
        {
          "internalType": "address",
          "name": "owner",
          "type": "address"
        }
      ],
      "name": "OwnableInvalidOwner",
      "type": "error"
    },
    {
      "inputs": [
        {
          "internalType": "address",
          "name": "account",
          "type": "address"
        }
      ],
      "name": "OwnableUnauthorizedAccount",
      "type": "error"
    },
    {
      "inputs": [],
      "name": "ReentrancyGuardReentrantCall",
      "type": "error"
    },
    {
      "anonymous": false,
      "inputs": [
        {
          "indexed": true,
          "internalType": "address",
          "name": "user",
          "type": "address"
        },
        {
          "indexed": false,
          "internalType": "bytes32",
          "name": "credentialHash",
          "type": "bytes32"
        }
      ],
      "name": "CredentialUpdated",
      "type": "event"
    },
    {
      "anonymous": false,
      "inputs": [
        {
          "indexed": true,
          "internalType": "uint256",
          "name": "roundId",
          "type": "uint256"
        },
        {
          "indexed": true,
          "internalType": "uint256",
          "name": "projectId",
          "type": "uint256"
        },
        {
          "indexed": true,
          "internalType": "address",
          "name": "donor",
          "type": "address"
        },
        {
          "indexed": false,
          "internalType": "uint256",
          "name": "timestamp",
          "type": "uint256"
        }
      ],
      "name": "DonationMade",
      "type": "event"
    },
    {
      "anonymous": false,
      "inputs": [
        {
          "indexed": true,
          "internalType": "uint256",
          "name": "roundId",
          "type": "uint256"
        },
        {
          "indexed": true,
          "internalType": "uint256",
          "name": "projectId",
          "type": "uint256"
        }
      ],
      "name": "MatchingDistributed",
      "type": "event"
    },
    {
      "anonymous": false,
      "inputs": [
        {
          "indexed": true,
          "internalType": "address",
          "name": "previousOwner",
          "type": "address"
        },
        {
          "indexed": true,
          "internalType": "address",
          "name": "newOwner",
          "type": "address"
        }
      ],
      "name": "OwnershipTransferred",
      "type": "event"
    },
    {
      "anonymous": false,
      "inputs": [
        {
          "indexed": false,
          "internalType": "address",
          "name": "account",
          "type": "address"
        }
      ],
      "name": "Paused",
      "type": "event"
    },
    {
      "anonymous": false,
      "inputs": [
        {
          "indexed": true,
          "internalType": "uint256",
          "name": "projectId",
          "type": "uint256"
        },
        {
          "indexed": true,
          "internalType": "address",
          "name": "owner",
          "type": "address"
        },
        {
          "indexed": false,
          "internalType": "string",
          "name": "metadataURI",
          "type": "string"
        }
      ],
      "name": "ProjectRegistered",
      "type": "event"
    },
    {
      "anonymous": false,
      "inputs": [
        {
          "indexed": true,
          "internalType": "uint256",
          "name": "projectId",
          "type": "uint256"
        },
        {
          "indexed": false,
          "internalType": "bool",
          "name": "verified",
          "type": "bool"
        }
      ],
      "name": "ProjectVerified",
      "type": "event"
    },
    {
      "anonymous": false,
      "inputs": [
        {
          "indexed": true,
          "internalType": "address",
          "name": "user",
          "type": "address"
        },
        {
          "indexed": true,
          "internalType": "bytes32",
          "name": "dataId",
          "type": "bytes32"
        }
      ],
      "name": "ReencryptionPermissionGranted",
      "type": "event"
    },
    {
      "anonymous": false,
      "inputs": [
        {
          "indexed": true,
          "internalType": "address",
          "name": "user",
          "type": "address"
        },
        {
          "indexed": true,
          "internalType": "bytes32",
          "name": "dataId",
          "type": "bytes32"
        }
      ],
      "name": "ReencryptionPermissionRevoked",
      "type": "event"
    },
    {
      "anonymous": false,
      "inputs": [
        {
          "indexed": true,
          "internalType": "uint256",
          "name": "roundId",
          "type": "uint256"
        },
        {
          "indexed": false,
          "internalType": "string",
          "name": "name",
          "type": "string"
        },
        {
          "indexed": false,
          "internalType": "uint256",
          "name": "startTime",
          "type": "uint256"
        },
        {
          "indexed": false,
          "internalType": "uint256",
          "name": "endTime",
          "type": "uint256"
        }
      ],
      "name": "RoundCreated",
      "type": "event"
    },
    {
      "anonymous": false,
      "inputs": [
        {
          "indexed": true,
          "internalType": "uint256",
          "name": "roundId",
          "type": "uint256"
        },
        {
          "indexed": false,
          "internalType": "uint256",
          "name": "timestamp",
          "type": "uint256"
        }
      ],
      "name": "RoundFinalized",
      "type": "event"
    },
    {
      "anonymous": false,
      "inputs": [
        {
          "indexed": false,
          "internalType": "address",
          "name": "account",
          "type": "address"
        }
      ],
      "name": "Unpaused",
      "type": "event"
    },
    {
      "inputs": [
        {
          "internalType": "uint256",
          "name": "roundId",
          "type": "uint256"
        },
        {
          "internalType": "uint256",
          "name": "amount",
          "type": "uint256"
        }
      ],
      "name": "addToMatchingPool",
      "outputs": [],
      "stateMutability": "nonpayable",
      "type": "function"
    },
    {
      "inputs": [
        {
          "internalType": "uint256",
          "name": "roundId",
          "type": "uint256"
        }
      ],
      "name": "calculateMatching",
      "outputs": [],
      "stateMutability": "nonpayable",
      "type": "function"
    },
    {
      "inputs": [
        {
          "internalType": "uint256",
          "name": "roundId",
          "type": "uint256"
        },
        {
          "internalType": "uint256",
          "name": "projectId",
          "type": "uint256"
        }
      ],
      "name": "claimMatching",
      "outputs": [],
      "stateMutability": "nonpayable",
      "type": "function"
    },
    {
      "inputs": [
        {
          "internalType": "string",
          "name": "name",
          "type": "string"
        },
        {
          "internalType": "uint256",
          "name": "startTime",
          "type": "uint256"
        },
        {
          "internalType": "uint256",
          "name": "endTime",
          "type": "uint256"
        },
        {
          "internalType": "uint256",
          "name": "matchingPoolAmount",
          "type": "uint256"
        },
        {
          "internalType": "uint256",
          "name": "minDonation",
          "type": "uint256"
        },
        {
          "internalType": "uint256",
          "name": "maxDonation",
          "type": "uint256"
        }
      ],
      "name": "createRound",
      "outputs": [
        {
          "internalType": "uint256",
          "name": "roundId",
          "type": "uint256"
        }
      ],
      "stateMutability": "nonpayable",
      "type": "function"
    },
    {
      "inputs": [
        {
          "internalType": "uint256",
          "name": "projectId",
          "type": "uint256"
        }
      ],
      "name": "deactivateProject",
      "outputs": [],
      "stateMutability": "nonpayable",
      "type": "function"
    },
    {
      "inputs": [
        {
          "internalType": "uint256",
          "name": "roundId",
          "type": "uint256"
        },
        {
          "internalType": "uint256",
          "name": "projectId",
          "type": "uint256"
        },
        {
          "internalType": "externalEuint32",
          "name": "encryptedAmountHandle",
          "type": "bytes32"
        },
        {
          "internalType": "bytes",
          "name": "inputProof",
          "type": "bytes"
        }
      ],
      "name": "donate",
      "outputs": [],
      "stateMutability": "nonpayable",
      "type": "function"
    },
    {
      "inputs": [
        {
          "internalType": "uint256",
          "name": "roundId",
          "type": "uint256"
        },
        {
          "internalType": "uint256[]",
          "name": "projectIds",
          "type": "uint256[]"
        },
        {
          "internalType": "bytes[]",
          "name": "encryptedAmounts",
          "type": "bytes[]"
        },
        {
          "internalType": "bytes[]",
          "name": "proofs",
          "type": "bytes[]"
        }
      ],
      "name": "donateBatch",
      "outputs": [],
      "stateMutability": "nonpayable",
      "type": "function"
    },
    {
      "inputs": [],
      "name": "donationCooldown",
      "outputs": [
        {
          "internalType": "uint256",
          "name": "",
          "type": "uint256"
        }
      ],
      "stateMutability": "view",
      "type": "function"
    },
    {
      "inputs": [],
      "name": "donationRound",
      "outputs": [
        {
          "internalType": "contract FHEDonationRound",
          "name": "",
          "type": "address"
        }
      ],
      "stateMutability": "view",
      "type": "function"
    },
    {
      "inputs": [
        {
          "internalType": "address",
          "name": "",
          "type": "address"
        },
        {
          "internalType": "uint256",
          "name": "",
          "type": "uint256"
        }
      ],
      "name": "donorReceipts",
      "outputs": [
        {
          "internalType": "bytes32",
          "name": "",
          "type": "bytes32"
        }
      ],
      "stateMutability": "view",
      "type": "function"
    },
    {
      "inputs": [],
      "name": "feeRecipient",
      "outputs": [
        {
          "internalType": "address",
          "name": "",
          "type": "address"
        }
      ],
      "stateMutability": "view",
      "type": "function"
    },
    {
      "inputs": [
        {
          "internalType": "uint256",
          "name": "roundId",
          "type": "uint256"
        }
      ],
      "name": "finalizeRound",
      "outputs": [],
      "stateMutability": "nonpayable",
      "type": "function"
    },
    {
      "inputs": [
        {
          "internalType": "address",
          "name": "donor",
          "type": "address"
        }
      ],
      "name": "getDonorReceipts",
      "outputs": [
        {
          "internalType": "bytes32[]",
          "name": "",
          "type": "bytes32[]"
        }
      ],
      "stateMutability": "view",
      "type": "function"
    },
    {
      "inputs": [
        {
          "internalType": "uint256",
          "name": "roundId",
          "type": "uint256"
        },
        {
          "internalType": "uint256",
          "name": "projectId",
          "type": "uint256"
        },
        {
          "internalType": "address",
          "name": "donor",
          "type": "address"
        }
      ],
      "name": "getEncryptedDonation",
      "outputs": [
        {
          "internalType": "euint32",
          "name": "",
          "type": "bytes32"
        }
      ],
      "stateMutability": "view",
      "type": "function"
    },
    {
      "inputs": [
        {
          "internalType": "uint256",
          "name": "roundId",
          "type": "uint256"
        },
        {
          "internalType": "uint256",
          "name": "projectId",
          "type": "uint256"
        }
      ],
      "name": "getEncryptedMatchingAmount",
      "outputs": [
        {
          "internalType": "euint32",
          "name": "",
          "type": "bytes32"
        }
      ],
      "stateMutability": "view",
      "type": "function"
    },
    {
      "inputs": [
        {
          "internalType": "uint256",
          "name": "roundId",
          "type": "uint256"
        },
        {
          "internalType": "uint256",
          "name": "projectId",
          "type": "uint256"
        }
      ],
      "name": "getEncryptedProjectTotal",
      "outputs": [
        {
          "internalType": "euint32",
          "name": "",
          "type": "bytes32"
        }
      ],
      "stateMutability": "view",
      "type": "function"
    },
    {
      "inputs": [
        {
          "internalType": "uint256",
          "name": "projectId",
          "type": "uint256"
        }
      ],
      "name": "getProject",
      "outputs": [
        {
          "internalType": "address",
          "name": "owner",
          "type": "address"
        },
        {
          "internalType": "string",
          "name": "metadataURI",
          "type": "string"
        },
        {
          "internalType": "bool",
          "name": "isActive",
          "type": "bool"
        },
        {
          "internalType": "bool",
          "name": "isVerified",
          "type": "bool"
        },
        {
          "internalType": "uint256",
          "name": "createdAt",
          "type": "uint256"
        }
      ],
      "stateMutability": "view",
      "type": "function"
    },
    {
      "inputs": [
        {
          "internalType": "bytes32",
          "name": "receiptId",
          "type": "bytes32"
        }
      ],
      "name": "getReceipt",
      "outputs": [
        {
          "internalType": "uint256",
          "name": "roundId",
          "type": "uint256"
        },
        {
          "internalType": "uint256",
          "name": "projectId",
          "type": "uint256"
        },
        {
          "internalType": "address",
          "name": "donor",
          "type": "address"
        },
        {
          "internalType": "uint256",
          "name": "timestamp",
          "type": "uint256"
        }
      ],
      "stateMutability": "view",
      "type": "function"
    },
    {
      "inputs": [
        {
          "internalType": "uint256",
          "name": "roundId",
          "type": "uint256"
        }
      ],
      "name": "getRoundInfo",
      "outputs": [
        {
          "internalType": "string",
          "name": "name",
          "type": "string"
        },
        {
          "internalType": "uint256",
          "name": "startTime",
          "type": "uint256"
        },
        {
          "internalType": "uint256",
          "name": "endTime",
          "type": "uint256"
        },
        {
          "internalType": "uint256",
          "name": "minDonation",
          "type": "uint256"
        },
        {
          "internalType": "uint256",
          "name": "maxDonation",
          "type": "uint256"
        },
        {
          "internalType": "bool",
          "name": "isFinalized",
          "type": "bool"
        }
      ],
      "stateMutability": "view",
      "type": "function"
    },
    {
      "inputs": [
        {
          "internalType": "uint256",
          "name": "",
          "type": "uint256"
        },
        {
          "internalType": "address",
          "name": "",
          "type": "address"
        }
      ],
      "name": "hasParticipated",
      "outputs": [
        {
          "internalType": "bool",
          "name": "",
          "type": "bool"
        }
      ],
      "stateMutability": "view",
      "type": "function"
    },
    {
      "inputs": [
        {
          "internalType": "address",
          "name": "user",
          "type": "address"
        },
        {
          "internalType": "bytes32",
          "name": "dataId",
          "type": "bytes32"
        }
      ],
      "name": "hasReencryptionPermission",
      "outputs": [
        {
          "internalType": "bool",
          "name": "",
          "type": "bool"
        }
      ],
      "stateMutability": "view",
      "type": "function"
    },
    {
      "inputs": [
        {
          "internalType": "address",
          "name": "",
          "type": "address"
        }
      ],
      "name": "lastDonationTime",
      "outputs": [
        {
          "internalType": "uint256",
          "name": "",
          "type": "uint256"
        }
      ],
      "stateMutability": "view",
      "type": "function"
    },
    {
      "inputs": [],
      "name": "matchingPool",
      "outputs": [
        {
          "internalType": "contract FHEMatchingPool",
          "name": "",
          "type": "address"
        }
      ],
      "stateMutability": "view",
      "type": "function"
    },
    {
      "inputs": [],
      "name": "minDonorsForMatching",
      "outputs": [
        {
          "internalType": "uint256",
          "name": "",
          "type": "uint256"
        }
      ],
      "stateMutability": "view",
      "type": "function"
    },
    {
      "inputs": [],
      "name": "nextReceiptId",
      "outputs": [
        {
          "internalType": "uint256",
          "name": "",
          "type": "uint256"
        }
      ],
      "stateMutability": "view",
      "type": "function"
    },
    {
      "inputs": [],
      "name": "owner",
      "outputs": [
        {
          "internalType": "address",
          "name": "",
          "type": "address"
        }
      ],
      "stateMutability": "view",
      "type": "function"
    },
    {
      "inputs": [],
      "name": "pause",
      "outputs": [],
      "stateMutability": "nonpayable",
      "type": "function"
    },
    {
      "inputs": [],
      "name": "paused",
      "outputs": [
        {
          "internalType": "bool",
          "name": "",
          "type": "bool"
        }
      ],
      "stateMutability": "view",
      "type": "function"
    },
    {
      "inputs": [],
      "name": "platformFeePercentage",
      "outputs": [
        {
          "internalType": "uint256",
          "name": "",
          "type": "uint256"
        }
      ],
      "stateMutability": "view",
      "type": "function"
    },
    {
      "inputs": [],
      "name": "projectRegistry",
      "outputs": [
        {
          "internalType": "contract FHEProjectRegistry",
          "name": "",
          "type": "address"
        }
      ],
      "stateMutability": "view",
      "type": "function"
    },
    {
      "inputs": [],
      "name": "protocolId",
      "outputs": [
        {
          "internalType": "uint256",
          "name": "",
          "type": "uint256"
        }
      ],
      "stateMutability": "pure",
      "type": "function"
    },
    {
      "inputs": [
        {
          "internalType": "bytes32",
          "name": "",
          "type": "bytes32"
        }
      ],
      "name": "receipts",
      "outputs": [
        {
          "internalType": "uint256",
          "name": "roundId",
          "type": "uint256"
        },
        {
          "internalType": "uint256",
          "name": "projectId",
          "type": "uint256"
        },
        {
          "internalType": "address",
          "name": "donor",
          "type": "address"
        },
        {
          "internalType": "euint32",
          "name": "amount",
          "type": "bytes32"
        },
        {
          "internalType": "uint256",
          "name": "timestamp",
          "type": "uint256"
        }
      ],
      "stateMutability": "view",
      "type": "function"
    },
    {
      "inputs": [
        {
          "internalType": "string",
          "name": "metadataURI",
          "type": "string"
        }
      ],
      "name": "registerProject",
      "outputs": [
        {
          "internalType": "uint256",
          "name": "projectId",
          "type": "uint256"
        }
      ],
      "stateMutability": "nonpayable",
      "type": "function"
    },
    {
      "inputs": [],
      "name": "renounceOwnership",
      "outputs": [],
      "stateMutability": "nonpayable",
      "type": "function"
    },
    {
      "inputs": [
        {
          "internalType": "uint256",
          "name": "",
          "type": "uint256"
        }
      ],
      "name": "roundParticipants",
      "outputs": [
        {
          "internalType": "uint256",
          "name": "",
          "type": "uint256"
        }
      ],
      "stateMutability": "view",
      "type": "function"
    },
    {
      "inputs": [
        {
          "internalType": "address",
          "name": "verifier",
          "type": "address"
        }
      ],
      "name": "setCredentialVerifier",
      "outputs": [],
      "stateMutability": "nonpayable",
      "type": "function"
    },
    {
      "inputs": [
        {
          "internalType": "uint256",
          "name": "cooldown",
          "type": "uint256"
        }
      ],
      "name": "setDonationCooldown",
      "outputs": [],
      "stateMutability": "nonpayable",
      "type": "function"
    },
    {
      "inputs": [
        {
          "internalType": "address",
          "name": "_feeRecipient",
          "type": "address"
        }
      ],
      "name": "setFeeRecipient",
      "outputs": [],
      "stateMutability": "nonpayable",
      "type": "function"
    },
    {
      "inputs": [
        {
          "internalType": "uint256",
          "name": "feePercentage",
          "type": "uint256"
        }
      ],
      "name": "setPlatformFee",
      "outputs": [],
      "stateMutability": "nonpayable",
      "type": "function"
    },
    {
      "inputs": [
        {
          "internalType": "address",
          "name": "newOwner",
          "type": "address"
        }
      ],
      "name": "transferOwnership",
      "outputs": [],
      "stateMutability": "nonpayable",
      "type": "function"
    },
    {
      "inputs": [],
      "name": "unpause",
      "outputs": [],
      "stateMutability": "nonpayable",
      "type": "function"
    },
    {
      "inputs": [
        {
          "internalType": "address",
          "name": "_projectRegistry",
          "type": "address"
        },
        {
          "internalType": "address",
          "name": "_donationRound",
          "type": "address"
        },
        {
          "internalType": "address",
          "name": "_matchingPool",
          "type": "address"
        }
      ],
      "name": "updateContracts",
      "outputs": [],
      "stateMutability": "nonpayable",
      "type": "function"
    },
    {
      "inputs": [
        {
          "internalType": "bytes32",
          "name": "credentialHash",
          "type": "bytes32"
        }
      ],
      "name": "updateCredential",
      "outputs": [],
      "stateMutability": "nonpayable",
      "type": "function"
    },
    {
      "inputs": [
        {
          "internalType": "uint256",
          "name": "projectId",
          "type": "uint256"
        },
        {
          "internalType": "string",
          "name": "metadataURI",
          "type": "string"
        }
      ],
      "name": "updateProjectMetadata",
      "outputs": [],
      "stateMutability": "nonpayable",
      "type": "function"
    },
    {
      "inputs": [
        {
          "internalType": "address",
          "name": "user",
          "type": "address"
        }
      ],
      "name": "verifyCredential",
      "outputs": [
        {
          "internalType": "bool",
          "name": "",
          "type": "bool"
        }
      ],
      "stateMutability": "view",
      "type": "function"
    },
    {
      "inputs": [
        {
          "internalType": "uint256",
          "name": "projectId",
          "type": "uint256"
        },
        {
          "internalType": "bool",
          "name": "verified",
          "type": "bool"
        }
      ],
      "name": "verifyProject",
      "outputs": [],
      "stateMutability": "nonpayable",
      "type": "function"
    },
    {
      "inputs": [
        {
          "internalType": "address",
          "name": "token",
          "type": "address"
        },
        {
          "internalType": "uint256",
          "name": "amount",
          "type": "uint256"
        }
      ],
      "name": "withdrawEmergency",
      "outputs": [],
      "stateMutability": "nonpayable",
      "type": "function"
    }
  ],
  "bytecode": "0x6080604052346200003457620000226200001862000102565b92919091620001c2565b604051612ed16200051c8239612ed190f35b5f80fd5b634e487b7160e01b5f52604160045260245ffd5b90601f01601f191681019081106001600160401b038211176200006e57604052565b62000038565b906200008b6200008360405190565b92836200004c565b565b6001600160a01b031690565b90565b6001600160a01b038116036200003457565b905051906200008b826200009c565b6080818303126200003457620000d48282620000ae565b9262000099620000e88460208501620000ae565b936060620000fa8260408701620000ae565b9401620000ae565b62000125620033ed80380380620001198162000074565b928339810190620000bd565b90919293565b905f19905b9181191691161790565b6200009962000099620000999290565b906200015e6200009962000166926200013a565b82546200012b565b9055565b62000099906200008d906001600160a01b031682565b62000099906200016a565b620000999062000180565b906001600160a01b039062000130565b90620001ba6200009962000166926200018b565b825462000196565b6200023c939262000216620002246200023494620002166200021c6200022c96620001ec62000254565b620001fa60fa600c6200014a565b620002086005600e6200014a565b62000216603c60106200014a565b6200018b565b6004620001a6565b6005620001a6565b6006620001a6565b600d620001a6565b6200008b6200024c60016200013a565b60096200014a565b6200008b80620002643362000278565b6200008b620002726200036d565b620003fa565b6200008b906200028f565b6200009960016200013a565b6200029a90620002cb565b6200008b620002a862000283565b60016200014a565b6200008d62000099620000999290565b6200009990620002b0565b620002d65f620002c0565b6001600160a01b0381166001600160a01b03831614620002fc57506200008b906200041c565b6200032f906200030b60405190565b631e4fbdf760e01b8152918291600483016001600160a01b03909116815260200190565b0390fd5b62000099608062000074565b6200034962000333565b5f8082526020820181905260408201819052606082015290565b620000996200033f565b6200037762000363565b5073a02cda4ca3a71d7c46997716f4283aa851c28812620003dd6200039b62000333565b73687820221192c5b662b25367f70076a37bc79b6c81529173848b0066793bcc60346da1f49049357399b8d59560208401526001600160a01b03166040830152565b731364cbbf2cdf5032c47d8226a6f6fbd2afcdacac606082015290565b6200008b9062000473565b62000099906200008d565b62000099905462000405565b620004426200043b6200042f5f62000410565b62000216845f620001a6565b916200018b565b907f8be0079c531659141344cd1fd0a4f28419497f9722a3daafe3b4186f6b6457e06200046e60405190565b5f90a3565b6200008b9060036200051360607f9e7b61f58c47dc699ac88507c4f5bb9f121c03808c5676a8078fe583e464970093620004bf620004b882516001600160a01b031690565b86620001a6565b620004e2620004d860208301516001600160a01b031690565b60018701620001a6565b62000505620004fb60408301516001600160a01b031690565b60028701620001a6565b01516001600160a01b031690565b9101620001a656fe60806040526004361015610011575f80fd5b5f3560e01c80628d14b6146102ff5780630b6810a0146102fa5780630f5becd7146102f557806312e8e2c3146102f05780633469f6e2146102eb5780633f4ba83a146102e6578063436e6958146102e157806346904840146102dc5780634caaa76b146102d75780634e8ff9c5146102d257806359408948146102cd5780635a33d8dc146102c85780635c975abb146102c357806364725aef146102be5780636c3d7e1d146102b95780636dca4d44146102b45780636fed6940146102af5780636fee1b81146102aa57806370dd0dbc146102a5578063715018a6146102a057806372212ec71461029b5780637f3e8a0214610296578063841951c3146102915780638456cb591461028c57806388c3ffb0146102875780638da5cb5b1461028257806391546c341461027d5780639a4152ab14610278578063a34398a214610273578063aacef18b1461026e578063b99f79e014610269578063cb02027214610264578063cdd78cfc1461025f578063cf89bb9e1461025a578063d936b06814610255578063da16c45314610250578063da1f12ab1461024b578063e198ad1914610246578063e683661714610241578063e74b981b1461023c578063e94dd82414610237578063edc83f3e14610232578063ef6cf04d1461022d578063f0f3f2c814610228578063f2fde38b14610223578063fcecbb611461021e5763ff3bb5b50361030457610fc4565b610f88565b610f3b565b610f0a565b610e8a565b610db9565b610d95565b610d7d565b610d64565b610d0a565b610c87565b610c60565b610bde565b610b1b565b610af5565b610ace565b610ab6565b610a9b565b610a74565b610a05565b61098c565b61093c565b610908565b610845565b61082c565b610814565b6107f8565b6107bb565b6107a0565b610784565b610740565b610701565b6106b8565b61069c565b610665565b61063e565b6105eb565b6105ac565b61050f565b6104cf565b610494565b61047c565b61045a565b610442565b61042a565b61040d565b6103b6565b5f80fd5b6001600160a01b031690565b90565b6001600160a01b0381165b0361030457565b9050359061033682610317565b565b906020828203126103045761031491610329565b61031490610308906001600160a01b031682565b6103149061034c565b61031490610360565b9061037c90610369565b5f5260205260405f2090565b610314916008021c81565b906103149154610388565b5f6103ad61031492600f610372565b610393565b9052565b34610304576103e26103d16103cc366004610338565b61039e565b6040515b9182918290815260200190565b0390f35b80610322565b90503590610336826103e6565b9060208282031261030457610314916103ec565b34610304576104256104203660046103f9565b61107f565b604051005b346103045761042561043d366004610338565b61115d565b34610304576104256104553660046103f9565b6111d3565b346103045761042561046d3660046103f9565b611290565b5f91031261030457565b346103045761048c366004610472565b6104256112ac565b34610304576104256104a73660046103f9565b611304565b610314916008021c610308565b9061031491546104ac565b6103145f600d6104b9565b34610304576104df366004610472565b6103e26104ea6104c4565b604051918291826001600160a01b03909116815260200190565b6103145f600e610393565b346103045761051f366004610472565b6103e26103d1610504565b909182601f83011215610304578135916001600160401b03831161030457602001926001830284011161030457565b906080828203126103045761056e81836103ec565b9261057c82602085016103ec565b9261058a83604083016103ec565b9260608201356001600160401b038111610304576105a8920161052a565b9091565b34610304576104256105bf366004610559565b93929092611876565b9190604083820312610304576103149060206105e48286610329565b94016103ec565b34610304576103e26106076106013660046105c8565b90611883565b6040515b91829182901515815260200190565b6103145f60046104b9565b6103b290610369565b6020810192916103369190610625565b346103045761064e366004610472565b6103e261065961061a565b6040519182918261062e565b3461030457610675366004610472565b6103e26106076118a2565b9190604083820312610304576103149060206105e482866103ec565b34610304576103e26103d16106b2366004610680565b906118d3565b34610304576104256106cb3660046105c8565b906119c1565b9091606082840312610304576103146106ea8484610329565b9360406106fa8260208701610329565b9401610329565b34610304576104256107143660046106d1565b91611ac1565b6103146103146103149290565b9061037c9061071a565b5f6103ad61031492600b610727565b34610304576103e26103d16107563660046103f9565b610731565b90916060828403126103045761031461077484846103ec565b9360406106fa82602087016103ec565b34610304576103e26103d161079a36600461075b565b91611af9565b34610304576103e26106076107b6366004610338565b611b3a565b34610304576107cb366004610472565b610425611bb6565b906020828203126103045781356001600160401b038111610304576105a8920161052a565b34610304576103e26103d161080e3660046107d3565b90611ca0565b34610304576104256108273660046103f9565b611d4a565b346103045761042561083f366004610680565b90611d99565b3461030457610855366004610472565b610425611db6565b5f5b83811061086e5750505f910152565b818101518382015260200161085f565b61089f6108a86020936108b293610893815190565b80835293849260200190565b9586910161085d565b601f01601f191690565b0190565b91969593946108f9610336966108f260a0966108eb6108e36109009760c08a01908a82035f8c015261087e565b9c6020890152565b6040870152565b6060850152565b6080830152565b019015159052565b34610304576103e261092361091e3660046103f9565b611e40565b9261093396949692919260405190565b968796876108b6565b346103045761094c366004610472565b6103e26104ea611ec9565b9190916040818403126103045761096e83826103ec565b9260208201356001600160401b038111610304576105a8920161052a565b346103045761042561099f366004610957565b91611f3d565b634e487b7160e01b5f52603260045260245ffd5b80548210156109d9576109d16001915f5260205f2090565b910201905f90565b6109a5565b6109e9906008610372565b805482101561030457610314916109ff916109b9565b90610393565b34610304576103e26103d1610a1b3660046105c8565b906109de565b9190604083820312610304576103149060206106fa82866103ec565b610314916008021c5b60ff1690565b906103149154610a3d565b610a6f61031492610a6a5f93600a610727565b610372565b610a4c565b34610304576103e2610607610a8a366004610a21565b90610a57565b6103145f60066104b9565b3461030457610aab366004610472565b6103e2610659610a90565b3461030457610425610ac93660046103f9565b612073565b34610304576103e26103d1610ae4366004610680565b9061207c565b6103145f600c610393565b3461030457610b05366004610472565b6103e26103d1610aea565b6103145f6009610393565b3461030457610b2b366004610472565b6103e26103d1610b10565b909182601f83011215610304578135916001600160401b03831161030457602001926020830284011161030457565b91909160808184031261030457610b7c83826103ec565b9260208201356001600160401b0381116103045781610b9c918401610b36565b92909360408201356001600160401b0381116103045783610bbe918401610b36565b92909360608201356001600160401b038111610304576105a89201610b36565b3461030457610bee366004610b65565b95949094939193612129565b90610c1a610c13610c09845190565b8084529260200190565b9260200190565b905f5b818110610c2a5750505090565b909192610c47610c406001928651815260200190565b9460200190565b929101610c1d565b602080825261031492910190610bfa565b34610304576103e2610c7b610c76366004610338565b6121b7565b60405191829182610c4f565b3461030457610c97366004610472565b6103e26103d16121d3565b91909160c0818403126103045780356001600160401b0381116103045783610ccb91830161052a565b929093610cdb81602085016103ec565b92610ce982604083016103ec565b92610314610cfa84606085016103ec565b9360a06105e482608087016103ec565b34610304576103e26103d1610d20366004610ca2565b9594909493919361233a565b801515610322565b9050359061033682610d2c565b919060408382031261030457610314906020610d5d82866103ec565b9401610d34565b3461030457610425610d77366004610d41565b906123f5565b3461030457610425610d90366004610338565b61247b565b3461030457610425610da8366004610680565b906125f4565b6103145f60056104b9565b3461030457610dc9366004610472565b6103e2610659610dae565b9061037c565b6103149081565b6103149054610dda565b61031490610308565b6103149054610deb565b610e09906007610dd4565b610e1281610de1565b91610e1f60018301610de1565b91610e2c60028201610df4565b916103146004610e3e60038501610de1565b9301610de1565b9095949261033694610e7f610e8692610e6f608096610e6860a088019c5f890152565b6020870152565b6001600160a01b03166040850152565b6060830152565b0152565b34610304576103e2610ea5610ea03660046103f9565b610dfe565b91610eb295939560405190565b95869586610e45565b9061033694610f01610ef7610e86936080969a99979a610eea60a08801925f8901906001600160a01b03169052565b868203602088015261087e565b9815156040850152565b15156060830152565b34610304576103e2610f25610f203660046103f9565b6125fe565b91610f3295939560405190565b95869586610ebb565b3461030457610425610f4e366004610338565b6126e0565b610e8661033694610f78606094989795610f71608086019a5f870152565b6020850152565b6001600160a01b03166040830152565b34610304576103e2610fa3610f9e3660046103f9565b6126e9565b90610fb094929460405190565b94859485610f53565b6103145f6010610393565b3461030457610fd4366004610472565b6103e26103d1610fb9565b61033690610feb612734565b61105e565b15610ff757565b60405162461bcd60e51b8152602060048201526011602482015270436f6f6c646f776e20746f6f206c6f6e6760781b6044820152606490fd5b0390fd5b905f19905b9181191691161790565b9061105361031461105a9261071a565b8254611034565b9055565b61033690611078611070610e1061071a565b821115610ff0565b6010611043565b61033690610fdf565b61033690611094612734565b6110de565b634e487b7160e01b5f52604160045260245ffd5b90601f01601f191681019081106001600160401b038211176110ce57604052565b611099565b6040513d5f823e3d90fd5b6110f06110eb6004610df4565b610369565b803b15610304576111305f9291839261110860405190565b9485938492839190630f5becd760e01b5b83526001600160a01b031660048301526024820190565b03925af18015611158576111415750565b610336905f61115081836110ad565b810190610472565b6110d3565b61033690611088565b61033690611172612734565b6111b2565b1561117e57565b60405162461bcd60e51b815260206004820152600c60248201526b08ccaca40e8dede40d0d2ced60a31b6044820152606490fd5b610336906111cc6111c46103e861071a565b821115611177565b600c611043565b61033690611166565b610336906111e8612734565b6111f56110eb6005610df4565b90813b15610304575f61120760405190565b631a34fb7160e11b815260048101839052928390602490829084905af1918215611158576112439261127b575b5061123e81612780565b61071a565b7f2b034c48d6d3c5fa40da8afd25e88ee8ad074a546e1a3f05a860c6106b99b82b61126d60405190565b42815280602081015b0390a2565b61128a905f61115081836110ad565b5f611234565b610336906111dc565b6112a1612734565b610336610336612946565b610336611299565b610336906112c061294e565b6112cd6110eb6004610df4565b803b15610304576111305f929183926112e560405190565b948593849283919063086dcd2b60e31b5b835260048301526024820190565b610336906112b4565b906103369493929161131d61294e565b906113329493929161132d612978565b611611565b6103366129b8565b634e487b7160e01b5f52601160045260245ffd5b9190820180921161135b57565b61133a565b1561136757565b60405162461bcd60e51b815260206004820152601860248201527f446f6e6174696f6e20636f6f6c646f776e2061637469766500000000000000006044820152606490fd5b9050519061033682610317565b906103366113c660405190565b92836110ad565b6001600160401b0381116110ce57602090601f01601f19160190565b909291926113fe6113f9826113cd565b6113b9565b93818552818301116103045761033691602085019061085d565b9080601f83011215610304578151610314926020016113e9565b9050519061033682610d2c565b90505190610336826103e6565b919060a0838203126103045761146281846113ac565b9260208101516001600160401b0381116103045782611482918301611418565b926103146114938460408501611432565b9360806114a38260608701611432565b940161143f565b156114b157565b60405162461bcd60e51b815260206004820152601260248201527150726f6a656374206e6f742061637469766560701b6044820152606490fd5b906020828203126103045761031491611432565b1561150657565b60405162461bcd60e51b8152602060048201526013602482015272496e76616c69642063726564656e7469616c7360681b6044820152606490fd5b90825f939282370152565b91906108a881611563816108b29560209181520190565b8095611541565b909391610314959361158761158e92610f7160808601985f870152565b6040830152565b606081850391015261154c565b61031490610a46565b610314905461159b565b9060ff90611039565b906115c761031461105a92151590565b82546115ae565b5f19811461135b5760010190565b909291926115ec6113f9826113cd565b938185528183011161030457610336916020850190611541565b6103149136916115dc565b9093929161164961164161031461163161162c33600f610372565b610de1565b61163b6010610de1565b9061134e565b421015611360565b6116566110eb6004610df4565b5f61166060405190565b631e1e7e5960e31b81526004810188905291829060249082905afa801561115857611692915f91611851575b506114aa565b61169f6110eb6004610df4565b60206116aa60405190565b631c37436f60e21b815233600482015291829060249082905afa8015611158576116db915f91611822575b506114ff565b6116e86110eb6005610df4565b90813b15610304575f84869383838a61171e61170360405190565b98899687958694631865cddf60e21b86528d6004870161156a565b03925af180156111585761178e95611788956117739461176b9361180d575b5061176261175e61175961175289600a610727565b3390610372565b6115a4565b1590565b6117cb57611606565b908684612af9565b61123e61178133600f610372565b4290611043565b9161071a565b61179733610369565b917fb9c87592ed73f7a26fff471ef513f8065a243208d84daa291fb0e770635014e26117c260405190565b428152602090a4565b6117e360016117de61175289600a610727565b6115b7565b6118086117f187600b610727565b6118026117fd82610de1565b6115ce565b90611043565b611606565b61181c905f61115081836110ad565b5f61173d565b611844915060203d60201161184a575b61183c81836110ad565b8101906114eb565b5f6116d5565b503d611832565b61186d91503d805f833e61186581836110ad565b81019061144c565b5050915061168c565b906103369493929161130d565b6103149161189d611759926118955f90565b506003610372565b610dd4565b61031460026115a4565b90602082820312610304576103149161143f565b9081526040810192916103369160200152565b611910916020916118e76110eb6005610df4565b906118f160405190565b8095819482936119056364725aef60e01b90565b8452600484016118c0565b03915afa908115611158575f91611925575090565b610314915060203d602011611947575b61193f81836110ad565b8101906118ac565b503d611935565b906103369161195b612734565b61197d565b6001600160a01b0390911681526040810192916103369160200152565b61198a6110eb6006610df4565b91823b1561030457611130925f92836119a260405190565b8096819582946119b66395ccea6760e01b90565b845260048401611960565b906103369161194e565b9061033692916119d9612734565b611a1a565b6103086103146103149290565b610314906119de565b906001600160a01b0390611039565b90611a1361031461105a92610369565b82546119f4565b611a6a91611a275f6119eb565b916001600160a01b0383166001600160a01b03821603611aa8575b506001600160a01b0382166001600160a01b03821603611a8f575b506001600160a01b031690565b6001600160a01b03821603611a7c5750565b611a8861033691610369565b6006611a03565b611a9b611aa291610369565b6005611a03565b5f611a5d565b611ab4611abb91610369565b6004611a03565b5f611a42565b9061033692916119cb565b908152606081019392610336929091604091611aea905b6020830152565b01906001600160a01b03169052565b9161191092602092611b085f90565b50611b166110eb6005610df4565b91611b2060405190565b95869485938493636fee1b8160e01b855260048501611acc565b6020611b6c91611b475f90565b50611b556110eb6004610df4565b60405193849283918291631c37436f60e21b611119565b03915afa908115611158575f91611b81575090565b610314915060203d60201161184a5761183c81836110ad565b611ba2612734565b610336610336611bb15f6119eb565b612bb6565b610336611b9a565b906103149291611bcc61294e565b611be2565b60208082526103149391019161154c565b92919250611bf36110eb6004610df4565b926020611bff60405190565b9485906372212ec760e01b8252815f81611c1d878960048401611bd1565b03925af1938415611158575f94611c7f575b507f1fb4423aed62bba3e66f7c81a4af273642c7e8c57d7b111ae2b1aca9887869ba611c5a8561071a565b91611c6433610369565b93611c7a611c7160405190565b92839283611bd1565b0390a3565b611c9991945060203d6020116119475761193f81836110ad565b925f611c2f565b61031491905f611bbe565b61033690611cb761294e565b611cc46110eb6004610df4565b803b15610304575f611cd560405190565b633f9f450160e11b815260048101849052918290602490829084905af1801561115857611d35575b507f0122474816f57c046458131914c20160703e66f4ee4b6d2f0c5ae212a6e60d4c611276611d2b33610369565b926103d560405190565b611d44905f61115081836110ad565b5f611cfd565b61033690611cab565b9061033691611d6061294e565b611d6d6110eb6005610df4565b91823b1561030457611130925f9283611d8560405190565b80968195829461190563841951c360e01b90565b9061033691611d53565b611dab612734565b610336610336612c41565b610336611da3565b9190610100838203126103045782516001600160401b0381116103045781611de7918501611418565b92611df5826020830161143f565b92611e03836040840161143f565b92611e11816060850161143f565b92611e1f826080830161143f565b92610314611e308460a08501611432565b9360e06114a38260c0870161143f565b905f611e7392611e4e606090565b50611e5c6110eb6005610df4565b6040519485928391829163088c3ffb60e41b6112f6565b03915afa918215611158575f905f935f935f935f935f93611e98575b50959493929190565b94505094505050611ebb91503d805f833e611eb381836110ad565b810190611dbe565b509691939590929496611e8f565b6103145f610df4565b906103369291611ee061294e565b611efd565b9081526040602082018190526103149391019161154c565b9091611f0c6110eb6004610df4565b803b1561030457611130935f8094611f2360405190565b968795869485936324551b0d60e21b855260048501611ee5565b906103369291611ed2565b61033690611f54612734565b611fa5565b15611f6057565b60405162461bcd60e51b815260206004820152601760248201527f4e6f7420656e6f756768207061727469636970616e74730000000000000000006044820152606490fd5b611fd1611fb661162c83600b610727565b611fca611fc6610314600e610de1565b9190565b1015611f59565b611fde6110eb6005610df4565b90813b15610304575f611ff060405190565b6305ccfbcf60e51b815260048101839052928390602490829084905af1918215611158576120239261205e575b5061071a565b61202c5f61071a565b907f4b30f14da257e8f9372b727d54b681b51ac782634be7128aeb9a298816b37bab61205760405190565b8080611c7a565b61206d905f61115081836110ad565b5f61201d565b61033690611f48565b611910916020916120906110eb6005610df4565b9061209a60405190565b80958194829361190563cb02027260e01b90565b6120b661294e565b6120be612978565b60405162461bcd60e51b815260206004820152603d60248201527f426174636820646f6e6174696f6e73206e6f7420737570706f727465642e205560448201527f736520696e646976696475616c20646f6e61746528292063616c6c732e0000006064820152608490fd5b6120ae565b9061214761213d610c09845490565b925f5260205f2090565b905f5b8181106121575750505090565b90919261217b61217460019261216c87610de1565b815260200190565b9460010190565b92910161214a565b906103149161212e565b906103366121a79261219e60405190565b93848092612183565b03836110ad565b6103149061218d565b6121ce610314916121c6606090565b506008610372565b6121ae565b610314612c49565b90610314979695949392916121ee61294e565b61224a565b929796946108f9906108f260a0966108eb6108e36103369b96610e869860c08b01918b83035f8d015261154c565b610e866122426040936103369698979560608501918583035f87015261154c565b966020830152565b9796979590939295949194506122606005610df4565b61226990610369565b918461227460405190565b998a93849363e198ad1960e01b8552878b8b6004880196612294976121f3565b03815a6020945f91f1958615611158575f966122ef575b50906112767fe5fc1affaef00db854e626dd509a961dc2f0565b785b436f277c8fe47fcac96393926122dc8861071a565b956122e660405190565b94859485612221565b7fe5fc1affaef00db854e626dd509a961dc2f0565b785b436f277c8fe47fcac96393929196506123306112769160203d6020116119475761193f81836110ad565b96919293506122ab565b610314969594939291905f6121db565b9061033691612357612734565b612371565b90815260408101929161033691602090610900565b61237e6110eb6004610df4565b803b15610304575f61238f60405190565b91829063e683661760e01b82528183816123ad89896004840161235c565b03925af18015611158577fbc17288f3f8c4919b6e4ee68624582c29d4ce2188a0e8a9175d0470f9a053c5792611276926123eb9261205e575061071a565b9261060b60405190565b906103369161234a565b6103369061240b612734565b612450565b1561241757565b60405162461bcd60e51b8152602060048201526011602482015270125b9d985b1a59081c9958da5c1a595b9d607a1b6044820152606490fd5b610336906124746124636103085f6119eb565b6001600160a01b0383161415612410565b600d611a03565b610336906123ff565b906103369161249161294e565b612513565b1561249d57565b60405162461bcd60e51b81526020600482015260116024820152702737ba10383937b532b1ba1037bbb732b960791b6044820152606490fd5b6124e36103146103149290565b63ffffffff1690565b90815260608101939261033692909160409161250790611ae3565b019063ffffffff169052565b6125206110eb6004610df4565b5f61252a60405190565b631e1e7e5960e31b81526004810185905291829060249082905afa80156111585761256f915f916125d8575b50612569335b916001600160a01b031690565b14612496565b6125785f6124d6565b906125866110eb6006610df4565b803b15610304576125bb5f9391849261259e60405190565b9586938492839190631276c34960e11b83528a89600485016124ec565b03925af19081156111585761202c926117889261205e575061071a565b6125ec91503d805f833e61186581836110ad565b505050612556565b9061033691612484565b5f61262f9161260a5f90565b506126186110eb6004610df4565b60405193849283918291631e1e7e5960e31b6112f6565b03915afa908115611158575f915f935f935f935f93612651575b509493929190565b93505093505061266b91503d805f833e61186581836110ad565b91935f95919395612649565b61033690612683612734565b61268c5f6119eb565b6001600160a01b0381166001600160a01b038316146126af575061033690612bb6565b611030906126bc60405190565b631e4fbdf760e01b8152918291600483016001600160a01b03909116815260200190565b61033690612677565b6103146126ff916126f75f90565b506007610dd4565b61270881610de1565b61271460018301610de1565b9261272d600461272660028601610df4565b9401610de1565b9193929190565b61273c611ec9565b33906127478261255c565b0361274f5750565b6110309061275c60405190565b63118cdaa760e01b8152918291600483016001600160a01b03909116815260200190565b61278d6110eb6005610df4565b5f61279760405190565b63088c3ffb60e41b81526004810184905291829060249082905afa908115611158575f916128e1575b50600190816127cf600161071a565b905b6127dc575b50505050565b8181116128dc576127f06110eb6005610df4565b9060206127fc60405190565b9283906364725aef60e01b82528180612819868b600484016118c0565b03915afa918215611158575f926128bc575b506128396110eb6004610df4565b5f61284360405190565b631e1e7e5960e31b81526004810184905291829060249082905afa80156111585761289693612890925f9261289c575b5061288a6128846110eb6006610df4565b82612c54565b50612c54565b506115ce565b826127d1565b6128b19192503d805f833e61186581836110ad565b505050919091612873565b6128d591925060203d81116119475761193f81836110ad565b905f61282b565b6127d6565b6128f591503d805f833e611eb381836110ad565b509550505050506127c0565b612909612c5f565b6103366129175f60026115b7565b7f5db9ee0a495bf2e6ff9c91a7834c1ba4fdd244a5e8aa4e537bd38aeae4b073aa612941336104ea565b0390a1565b610336612901565b6129566118a2565b61295c57565b60405163d93c066560e01b8152600490fd5b610314600261071a565b6129826001610de1565b61298a61296e565b90811461299c57610336906001611043565b604051633ee5aeb560e01b8152600490fd5b610314600161071a565b6103366129c36129ae565b6001611043565b6103b2906001600160a01b031660601b90565b92612a0160146108b294612a016020886129f9829b9a83999052565b0180926129ca565b01918252565b61031460a06113b9565b9061105361031461105a9290565b6004612a90608061033694612a3d612a375f83015190565b86611043565b612a54612a4b602083015190565b60018701611043565b612a74612a6b60408301516001600160a01b031690565b60028701611a03565b612a8b612a82606083015190565b60038701612a11565b015190565b9101611043565b9061033691612a1f565b915f1960089290920291821b911b611039565b9190612ac361031461105a9390565b908354612aa1565b90815491680100000000000000008310156110ce5782612af3916001610336950181556109b9565b90612ab4565b612b88612ba392612b7d612b6c61033697612b146009610de1565b612b27612b20826115ce565b6009611043565b612b53612b3360405190565b8092612b47888b60208501933390856129dd565b908103825203826110ad565b612b65612b5e825190565b9160200190565b2097612c82565b91610f71612b78612a07565b958652565b336040840152610e7f565b612b93426080830152565b612b9e836007610dd4565b612a97565b612bb1610314336008610372565b612acb565b612bd5612bcf612bc55f610df4565b6110eb845f611a03565b91610369565b907f8be0079c531659141344cd1fd0a4f28419497f9722a3daafe3b4186f6b6457e061205760405190565b612c0861294e565b610336612c17600160026115b7565b7f62e78cea01bee320cd4e420270b5ea74000d11b0c9f74754ebdbfc544b05a258612941336104ea565b610336612c00565b61031461271161071a565b906103149082612cb4565b612c6a61175e6118a2565b612c7057565b604051638dfc202b60e01b8152600490fd5b600461031492612c9a61031493612c965f90565b5090565b612d9b565b90815260408101929161033691602090611aea565b612ce16110eb807f9e7b61f58c47dc699ac88507c4f5bb9f121c03808c5676a8078fe583e4649700610df4565b91823b1561030457611130925f9283612cf960405190565b809681958294612d0d63b9496b6260e01b90565b845260048401612c9f565b634e487b7160e01b5f52602160045260245ffd5b60541115612d3657565b612d18565b9061033682612d2c565b61031490612d3b565b6103b290612d45565b94939160609161033694612d86612d9393612d7660808b01945f8c0152565b6001600160a01b031660208a0152565b878203604089015261087e565b940190612d4e565b612e22919392602091612dab5f90565b507f9e7b61f58c47dc699ac88507c4f5bb9f121c03808c5676a8078fe583e4649700955f612dfc6110eb807f9e7b61f58c47dc699ac88507c4f5bb9f121c03808c5676a8078fe583e4649701610df4565b92612e0660405190565b9687958694859363196d0b9b60e01b8552339060048601612d57565b03925af1908115611158575f91612e7c575b50612e476110eb6110eb5f849601610df4565b803b15610304576111305f92918392612e5f60405190565b9485938492839190630f8e573b60e21b8352339060048401612c9f565b612e95915060203d6020116119475761193f81836110ad565b5f612e3456fea2646970667358221220a41669ccf051ed1b333fd9424823d903b36acd0dd416885a5a7c9d0bd1a066a664736f6c63430008180033",
  "linkReferences": {},
  "deployedLinkReferences": {}
}