{
  "_format": "hh-sol-artifact-1",
  "contractName": "FHEQuadraticFunding",
  "sourceName": "src/FHEQuadraticFunding.sol",
  "abi": [
    {
      "inputs": [
        {
          "internalType": "address",
          "name": "_projectRegistry",
          "type": "address"
        },
        {
          "internalType": "address",
          "name": "_donationRound",
          "type": "address"
        },
        {
          "internalType": "address",
          "name": "_matchingPool",
          "type": "address"
        },
        {
          "internalType": "address",
          "name": "_feeRecipient",
          "type": "address"
        }
      ],
      "stateMutability": "nonpayable",
      "type": "constructor"
    },
    {
      "inputs": [],
      "name": "EnforcedPause",
      "type": "error"
    },
    {
      "inputs": [],
      "name": "ExpectedPause",
      "type": "error"
    },
    {
      "inputs": [
        {
          "internalType": "address",
          "name": "owner",
          "type": "address"
        }
      ],
      "name": "OwnableInvalidOwner",
      "type": "error"
    },
    {
      "inputs": [
        {
          "internalType": "address",
          "name": "account",
          "type": "address"
        }
      ],
      "name": "OwnableUnauthorizedAccount",
      "type": "error"
    },
    {
      "inputs": [],
      "name": "ReentrancyGuardReentrantCall",
      "type": "error"
    },
    {
      "anonymous": false,
      "inputs": [
        {
          "indexed": true,
          "internalType": "address",
          "name": "user",
          "type": "address"
        },
        {
          "indexed": false,
          "internalType": "bytes32",
          "name": "credentialHash",
          "type": "bytes32"
        }
      ],
      "name": "CredentialUpdated",
      "type": "event"
    },
    {
      "anonymous": false,
      "inputs": [
        {
          "indexed": true,
          "internalType": "uint256",
          "name": "roundId",
          "type": "uint256"
        },
        {
          "indexed": true,
          "internalType": "uint256",
          "name": "projectId",
          "type": "uint256"
        },
        {
          "indexed": true,
          "internalType": "address",
          "name": "donor",
          "type": "address"
        },
        {
          "indexed": false,
          "internalType": "uint256",
          "name": "timestamp",
          "type": "uint256"
        }
      ],
      "name": "DonationMade",
      "type": "event"
    },
    {
      "anonymous": false,
      "inputs": [
        {
          "indexed": true,
          "internalType": "uint256",
          "name": "roundId",
          "type": "uint256"
        },
        {
          "indexed": true,
          "internalType": "uint256",
          "name": "projectId",
          "type": "uint256"
        }
      ],
      "name": "MatchingDistributed",
      "type": "event"
    },
    {
      "anonymous": false,
      "inputs": [
        {
          "indexed": true,
          "internalType": "address",
          "name": "previousOwner",
          "type": "address"
        },
        {
          "indexed": true,
          "internalType": "address",
          "name": "newOwner",
          "type": "address"
        }
      ],
      "name": "OwnershipTransferred",
      "type": "event"
    },
    {
      "anonymous": false,
      "inputs": [
        {
          "indexed": false,
          "internalType": "address",
          "name": "account",
          "type": "address"
        }
      ],
      "name": "Paused",
      "type": "event"
    },
    {
      "anonymous": false,
      "inputs": [
        {
          "indexed": true,
          "internalType": "uint256",
          "name": "projectId",
          "type": "uint256"
        },
        {
          "indexed": true,
          "internalType": "address",
          "name": "owner",
          "type": "address"
        },
        {
          "indexed": false,
          "internalType": "string",
          "name": "metadataURI",
          "type": "string"
        }
      ],
      "name": "ProjectRegistered",
      "type": "event"
    },
    {
      "anonymous": false,
      "inputs": [
        {
          "indexed": true,
          "internalType": "uint256",
          "name": "projectId",
          "type": "uint256"
        },
        {
          "indexed": false,
          "internalType": "bool",
          "name": "verified",
          "type": "bool"
        }
      ],
      "name": "ProjectVerified",
      "type": "event"
    },
    {
      "anonymous": false,
      "inputs": [
        {
          "indexed": true,
          "internalType": "address",
          "name": "user",
          "type": "address"
        },
        {
          "indexed": true,
          "internalType": "bytes32",
          "name": "dataId",
          "type": "bytes32"
        }
      ],
      "name": "ReencryptionPermissionGranted",
      "type": "event"
    },
    {
      "anonymous": false,
      "inputs": [
        {
          "indexed": true,
          "internalType": "address",
          "name": "user",
          "type": "address"
        },
        {
          "indexed": true,
          "internalType": "bytes32",
          "name": "dataId",
          "type": "bytes32"
        }
      ],
      "name": "ReencryptionPermissionRevoked",
      "type": "event"
    },
    {
      "anonymous": false,
      "inputs": [
        {
          "indexed": true,
          "internalType": "uint256",
          "name": "roundId",
          "type": "uint256"
        },
        {
          "indexed": false,
          "internalType": "string",
          "name": "name",
          "type": "string"
        },
        {
          "indexed": false,
          "internalType": "uint256",
          "name": "startTime",
          "type": "uint256"
        },
        {
          "indexed": false,
          "internalType": "uint256",
          "name": "endTime",
          "type": "uint256"
        }
      ],
      "name": "RoundCreated",
      "type": "event"
    },
    {
      "anonymous": false,
      "inputs": [
        {
          "indexed": true,
          "internalType": "uint256",
          "name": "roundId",
          "type": "uint256"
        },
        {
          "indexed": false,
          "internalType": "uint256",
          "name": "timestamp",
          "type": "uint256"
        }
      ],
      "name": "RoundFinalized",
      "type": "event"
    },
    {
      "anonymous": false,
      "inputs": [
        {
          "indexed": false,
          "internalType": "address",
          "name": "account",
          "type": "address"
        }
      ],
      "name": "Unpaused",
      "type": "event"
    },
    {
      "inputs": [
        {
          "internalType": "uint256",
          "name": "roundId",
          "type": "uint256"
        },
        {
          "internalType": "externalEuint32",
          "name": "encryptedAmountHandle",
          "type": "bytes32"
        },
        {
          "internalType": "bytes",
          "name": "inputProof",
          "type": "bytes"
        }
      ],
      "name": "addToMatchingPool",
      "outputs": [],
      "stateMutability": "nonpayable",
      "type": "function"
    },
    {
      "inputs": [
        {
          "internalType": "uint256",
          "name": "roundId",
          "type": "uint256"
        }
      ],
      "name": "calculateMatching",
      "outputs": [],
      "stateMutability": "nonpayable",
      "type": "function"
    },
    {
      "inputs": [
        {
          "internalType": "uint256",
          "name": "roundId",
          "type": "uint256"
        },
        {
          "internalType": "uint256",
          "name": "projectId",
          "type": "uint256"
        }
      ],
      "name": "claimMatching",
      "outputs": [],
      "stateMutability": "nonpayable",
      "type": "function"
    },
    {
      "inputs": [
        {
          "internalType": "string",
          "name": "name",
          "type": "string"
        },
        {
          "internalType": "uint256",
          "name": "startTime",
          "type": "uint256"
        },
        {
          "internalType": "uint256",
          "name": "endTime",
          "type": "uint256"
        },
        {
          "internalType": "externalEuint32",
          "name": "encryptedMatchingPoolHandle",
          "type": "bytes32"
        },
        {
          "internalType": "bytes",
          "name": "inputProof",
          "type": "bytes"
        },
        {
          "internalType": "uint256",
          "name": "minDonation",
          "type": "uint256"
        },
        {
          "internalType": "uint256",
          "name": "maxDonation",
          "type": "uint256"
        }
      ],
      "name": "createRound",
      "outputs": [
        {
          "internalType": "uint256",
          "name": "roundId",
          "type": "uint256"
        }
      ],
      "stateMutability": "nonpayable",
      "type": "function"
    },
    {
      "inputs": [
        {
          "internalType": "uint256",
          "name": "projectId",
          "type": "uint256"
        }
      ],
      "name": "deactivateProject",
      "outputs": [],
      "stateMutability": "nonpayable",
      "type": "function"
    },
    {
      "inputs": [
        {
          "internalType": "uint256",
          "name": "roundId",
          "type": "uint256"
        },
        {
          "internalType": "uint256",
          "name": "projectId",
          "type": "uint256"
        },
        {
          "internalType": "externalEuint32",
          "name": "encryptedAmountHandle",
          "type": "bytes32"
        },
        {
          "internalType": "bytes",
          "name": "inputProof",
          "type": "bytes"
        }
      ],
      "name": "donate",
      "outputs": [],
      "stateMutability": "nonpayable",
      "type": "function"
    },
    {
      "inputs": [
        {
          "internalType": "uint256",
          "name": "roundId",
          "type": "uint256"
        },
        {
          "internalType": "uint256[]",
          "name": "projectIds",
          "type": "uint256[]"
        },
        {
          "internalType": "bytes[]",
          "name": "encryptedAmounts",
          "type": "bytes[]"
        },
        {
          "internalType": "bytes[]",
          "name": "proofs",
          "type": "bytes[]"
        }
      ],
      "name": "donateBatch",
      "outputs": [],
      "stateMutability": "nonpayable",
      "type": "function"
    },
    {
      "inputs": [],
      "name": "donationCooldown",
      "outputs": [
        {
          "internalType": "uint256",
          "name": "",
          "type": "uint256"
        }
      ],
      "stateMutability": "view",
      "type": "function"
    },
    {
      "inputs": [],
      "name": "donationRound",
      "outputs": [
        {
          "internalType": "contract FHEDonationRound",
          "name": "",
          "type": "address"
        }
      ],
      "stateMutability": "view",
      "type": "function"
    },
    {
      "inputs": [
        {
          "internalType": "address",
          "name": "",
          "type": "address"
        },
        {
          "internalType": "uint256",
          "name": "",
          "type": "uint256"
        }
      ],
      "name": "donorReceipts",
      "outputs": [
        {
          "internalType": "bytes32",
          "name": "",
          "type": "bytes32"
        }
      ],
      "stateMutability": "view",
      "type": "function"
    },
    {
      "inputs": [],
      "name": "feeRecipient",
      "outputs": [
        {
          "internalType": "address",
          "name": "",
          "type": "address"
        }
      ],
      "stateMutability": "view",
      "type": "function"
    },
    {
      "inputs": [
        {
          "internalType": "uint256",
          "name": "roundId",
          "type": "uint256"
        }
      ],
      "name": "finalizeRound",
      "outputs": [],
      "stateMutability": "nonpayable",
      "type": "function"
    },
    {
      "inputs": [
        {
          "internalType": "address",
          "name": "donor",
          "type": "address"
        }
      ],
      "name": "getDonorReceipts",
      "outputs": [
        {
          "internalType": "bytes32[]",
          "name": "",
          "type": "bytes32[]"
        }
      ],
      "stateMutability": "view",
      "type": "function"
    },
    {
      "inputs": [
        {
          "internalType": "uint256",
          "name": "roundId",
          "type": "uint256"
        },
        {
          "internalType": "uint256",
          "name": "projectId",
          "type": "uint256"
        },
        {
          "internalType": "address",
          "name": "donor",
          "type": "address"
        }
      ],
      "name": "getEncryptedDonation",
      "outputs": [
        {
          "internalType": "euint32",
          "name": "",
          "type": "bytes32"
        }
      ],
      "stateMutability": "view",
      "type": "function"
    },
    {
      "inputs": [
        {
          "internalType": "uint256",
          "name": "roundId",
          "type": "uint256"
        },
        {
          "internalType": "uint256",
          "name": "projectId",
          "type": "uint256"
        }
      ],
      "name": "getEncryptedMatchingAmount",
      "outputs": [
        {
          "internalType": "euint32",
          "name": "",
          "type": "bytes32"
        }
      ],
      "stateMutability": "view",
      "type": "function"
    },
    {
      "inputs": [
        {
          "internalType": "uint256",
          "name": "roundId",
          "type": "uint256"
        },
        {
          "internalType": "uint256",
          "name": "projectId",
          "type": "uint256"
        }
      ],
      "name": "getEncryptedProjectTotal",
      "outputs": [
        {
          "internalType": "euint32",
          "name": "",
          "type": "bytes32"
        }
      ],
      "stateMutability": "view",
      "type": "function"
    },
    {
      "inputs": [
        {
          "internalType": "uint256",
          "name": "projectId",
          "type": "uint256"
        }
      ],
      "name": "getProject",
      "outputs": [
        {
          "internalType": "address",
          "name": "owner",
          "type": "address"
        },
        {
          "internalType": "string",
          "name": "metadataURI",
          "type": "string"
        },
        {
          "internalType": "bool",
          "name": "isActive",
          "type": "bool"
        },
        {
          "internalType": "bool",
          "name": "isVerified",
          "type": "bool"
        },
        {
          "internalType": "uint256",
          "name": "createdAt",
          "type": "uint256"
        }
      ],
      "stateMutability": "view",
      "type": "function"
    },
    {
      "inputs": [
        {
          "internalType": "bytes32",
          "name": "receiptId",
          "type": "bytes32"
        }
      ],
      "name": "getReceipt",
      "outputs": [
        {
          "internalType": "uint256",
          "name": "roundId",
          "type": "uint256"
        },
        {
          "internalType": "uint256",
          "name": "projectId",
          "type": "uint256"
        },
        {
          "internalType": "address",
          "name": "donor",
          "type": "address"
        },
        {
          "internalType": "uint256",
          "name": "timestamp",
          "type": "uint256"
        }
      ],
      "stateMutability": "view",
      "type": "function"
    },
    {
      "inputs": [
        {
          "internalType": "uint256",
          "name": "roundId",
          "type": "uint256"
        }
      ],
      "name": "getRoundInfo",
      "outputs": [
        {
          "internalType": "string",
          "name": "name",
          "type": "string"
        },
        {
          "internalType": "uint256",
          "name": "startTime",
          "type": "uint256"
        },
        {
          "internalType": "uint256",
          "name": "endTime",
          "type": "uint256"
        },
        {
          "internalType": "uint256",
          "name": "minDonation",
          "type": "uint256"
        },
        {
          "internalType": "uint256",
          "name": "maxDonation",
          "type": "uint256"
        },
        {
          "internalType": "bool",
          "name": "isFinalized",
          "type": "bool"
        }
      ],
      "stateMutability": "view",
      "type": "function"
    },
    {
      "inputs": [
        {
          "internalType": "uint256",
          "name": "",
          "type": "uint256"
        },
        {
          "internalType": "address",
          "name": "",
          "type": "address"
        }
      ],
      "name": "hasParticipated",
      "outputs": [
        {
          "internalType": "bool",
          "name": "",
          "type": "bool"
        }
      ],
      "stateMutability": "view",
      "type": "function"
    },
    {
      "inputs": [
        {
          "internalType": "address",
          "name": "user",
          "type": "address"
        },
        {
          "internalType": "bytes32",
          "name": "dataId",
          "type": "bytes32"
        }
      ],
      "name": "hasReencryptionPermission",
      "outputs": [
        {
          "internalType": "bool",
          "name": "",
          "type": "bool"
        }
      ],
      "stateMutability": "view",
      "type": "function"
    },
    {
      "inputs": [
        {
          "internalType": "address",
          "name": "",
          "type": "address"
        }
      ],
      "name": "lastDonationTime",
      "outputs": [
        {
          "internalType": "uint256",
          "name": "",
          "type": "uint256"
        }
      ],
      "stateMutability": "view",
      "type": "function"
    },
    {
      "inputs": [],
      "name": "matchingPool",
      "outputs": [
        {
          "internalType": "contract FHEMatchingPool",
          "name": "",
          "type": "address"
        }
      ],
      "stateMutability": "view",
      "type": "function"
    },
    {
      "inputs": [],
      "name": "minDonorsForMatching",
      "outputs": [
        {
          "internalType": "uint256",
          "name": "",
          "type": "uint256"
        }
      ],
      "stateMutability": "view",
      "type": "function"
    },
    {
      "inputs": [],
      "name": "nextReceiptId",
      "outputs": [
        {
          "internalType": "uint256",
          "name": "",
          "type": "uint256"
        }
      ],
      "stateMutability": "view",
      "type": "function"
    },
    {
      "inputs": [],
      "name": "owner",
      "outputs": [
        {
          "internalType": "address",
          "name": "",
          "type": "address"
        }
      ],
      "stateMutability": "view",
      "type": "function"
    },
    {
      "inputs": [],
      "name": "pause",
      "outputs": [],
      "stateMutability": "nonpayable",
      "type": "function"
    },
    {
      "inputs": [],
      "name": "paused",
      "outputs": [
        {
          "internalType": "bool",
          "name": "",
          "type": "bool"
        }
      ],
      "stateMutability": "view",
      "type": "function"
    },
    {
      "inputs": [],
      "name": "platformFeePercentage",
      "outputs": [
        {
          "internalType": "uint256",
          "name": "",
          "type": "uint256"
        }
      ],
      "stateMutability": "view",
      "type": "function"
    },
    {
      "inputs": [],
      "name": "projectRegistry",
      "outputs": [
        {
          "internalType": "contract FHEProjectRegistry",
          "name": "",
          "type": "address"
        }
      ],
      "stateMutability": "view",
      "type": "function"
    },
    {
      "inputs": [],
      "name": "protocolId",
      "outputs": [
        {
          "internalType": "uint256",
          "name": "",
          "type": "uint256"
        }
      ],
      "stateMutability": "pure",
      "type": "function"
    },
    {
      "inputs": [
        {
          "internalType": "bytes32",
          "name": "",
          "type": "bytes32"
        }
      ],
      "name": "receipts",
      "outputs": [
        {
          "internalType": "uint256",
          "name": "roundId",
          "type": "uint256"
        },
        {
          "internalType": "uint256",
          "name": "projectId",
          "type": "uint256"
        },
        {
          "internalType": "address",
          "name": "donor",
          "type": "address"
        },
        {
          "internalType": "euint32",
          "name": "amount",
          "type": "bytes32"
        },
        {
          "internalType": "uint256",
          "name": "timestamp",
          "type": "uint256"
        }
      ],
      "stateMutability": "view",
      "type": "function"
    },
    {
      "inputs": [
        {
          "internalType": "string",
          "name": "metadataURI",
          "type": "string"
        }
      ],
      "name": "registerProject",
      "outputs": [
        {
          "internalType": "uint256",
          "name": "projectId",
          "type": "uint256"
        }
      ],
      "stateMutability": "nonpayable",
      "type": "function"
    },
    {
      "inputs": [],
      "name": "renounceOwnership",
      "outputs": [],
      "stateMutability": "nonpayable",
      "type": "function"
    },
    {
      "inputs": [
        {
          "internalType": "uint256",
          "name": "",
          "type": "uint256"
        }
      ],
      "name": "roundParticipants",
      "outputs": [
        {
          "internalType": "uint256",
          "name": "",
          "type": "uint256"
        }
      ],
      "stateMutability": "view",
      "type": "function"
    },
    {
      "inputs": [
        {
          "internalType": "address",
          "name": "verifier",
          "type": "address"
        }
      ],
      "name": "setCredentialVerifier",
      "outputs": [],
      "stateMutability": "nonpayable",
      "type": "function"
    },
    {
      "inputs": [
        {
          "internalType": "uint256",
          "name": "cooldown",
          "type": "uint256"
        }
      ],
      "name": "setDonationCooldown",
      "outputs": [],
      "stateMutability": "nonpayable",
      "type": "function"
    },
    {
      "inputs": [
        {
          "internalType": "address",
          "name": "_feeRecipient",
          "type": "address"
        }
      ],
      "name": "setFeeRecipient",
      "outputs": [],
      "stateMutability": "nonpayable",
      "type": "function"
    },
    {
      "inputs": [
        {
          "internalType": "uint256",
          "name": "feePercentage",
          "type": "uint256"
        }
      ],
      "name": "setPlatformFee",
      "outputs": [],
      "stateMutability": "nonpayable",
      "type": "function"
    },
    {
      "inputs": [
        {
          "internalType": "address",
          "name": "newOwner",
          "type": "address"
        }
      ],
      "name": "transferOwnership",
      "outputs": [],
      "stateMutability": "nonpayable",
      "type": "function"
    },
    {
      "inputs": [],
      "name": "unpause",
      "outputs": [],
      "stateMutability": "nonpayable",
      "type": "function"
    },
    {
      "inputs": [
        {
          "internalType": "address",
          "name": "_projectRegistry",
          "type": "address"
        },
        {
          "internalType": "address",
          "name": "_donationRound",
          "type": "address"
        },
        {
          "internalType": "address",
          "name": "_matchingPool",
          "type": "address"
        }
      ],
      "name": "updateContracts",
      "outputs": [],
      "stateMutability": "nonpayable",
      "type": "function"
    },
    {
      "inputs": [
        {
          "internalType": "bytes32",
          "name": "credentialHash",
          "type": "bytes32"
        }
      ],
      "name": "updateCredential",
      "outputs": [],
      "stateMutability": "nonpayable",
      "type": "function"
    },
    {
      "inputs": [
        {
          "internalType": "uint256",
          "name": "projectId",
          "type": "uint256"
        },
        {
          "internalType": "string",
          "name": "metadataURI",
          "type": "string"
        }
      ],
      "name": "updateProjectMetadata",
      "outputs": [],
      "stateMutability": "nonpayable",
      "type": "function"
    },
    {
      "inputs": [
        {
          "internalType": "address",
          "name": "user",
          "type": "address"
        }
      ],
      "name": "verifyCredential",
      "outputs": [
        {
          "internalType": "bool",
          "name": "",
          "type": "bool"
        }
      ],
      "stateMutability": "view",
      "type": "function"
    },
    {
      "inputs": [
        {
          "internalType": "uint256",
          "name": "projectId",
          "type": "uint256"
        },
        {
          "internalType": "bool",
          "name": "verified",
          "type": "bool"
        }
      ],
      "name": "verifyProject",
      "outputs": [],
      "stateMutability": "nonpayable",
      "type": "function"
    },
    {
      "inputs": [
        {
          "internalType": "address",
          "name": "token",
          "type": "address"
        },
        {
          "internalType": "uint256",
          "name": "amount",
          "type": "uint256"
        }
      ],
      "name": "withdrawEmergency",
      "outputs": [],
      "stateMutability": "nonpayable",
      "type": "function"
    }
  ],
  "bytecode": "0x6080604052346200003457620000226200001862000102565b92919091620001c2565b6040516130956200051c823961309590f35b5f80fd5b634e487b7160e01b5f52604160045260245ffd5b90601f01601f191681019081106001600160401b038211176200006e57604052565b62000038565b906200008b6200008360405190565b92836200004c565b565b6001600160a01b031690565b90565b6001600160a01b038116036200003457565b905051906200008b826200009c565b6080818303126200003457620000d48282620000ae565b9262000099620000e88460208501620000ae565b936060620000fa8260408701620000ae565b9401620000ae565b62000125620035b180380380620001198162000074565b928339810190620000bd565b90919293565b905f19905b9181191691161790565b6200009962000099620000999290565b906200015e6200009962000166926200013a565b82546200012b565b9055565b62000099906200008d906001600160a01b031682565b62000099906200016a565b620000999062000180565b906001600160a01b039062000130565b90620001ba6200009962000166926200018b565b825462000196565b6200023c939262000216620002246200023494620002166200021c6200022c96620001ec62000254565b620001fa60fa600c6200014a565b620002086005600e6200014a565b62000216603c60106200014a565b6200018b565b6004620001a6565b6005620001a6565b6006620001a6565b600d620001a6565b6200008b6200024c60016200013a565b60096200014a565b6200008b80620002643362000278565b6200008b620002726200036d565b620003fa565b6200008b906200028f565b6200009960016200013a565b6200029a90620002cb565b6200008b620002a862000283565b60016200014a565b6200008d62000099620000999290565b6200009990620002b0565b620002d65f620002c0565b6001600160a01b0381166001600160a01b03831614620002fc57506200008b906200041c565b6200032f906200030b60405190565b631e4fbdf760e01b8152918291600483016001600160a01b03909116815260200190565b0390fd5b62000099608062000074565b6200034962000333565b5f8082526020820181905260408201819052606082015290565b620000996200033f565b6200037762000363565b5073a02cda4ca3a71d7c46997716f4283aa851c28812620003dd6200039b62000333565b73687820221192c5b662b25367f70076a37bc79b6c81529173848b0066793bcc60346da1f49049357399b8d59560208401526001600160a01b03166040830152565b731364cbbf2cdf5032c47d8226a6f6fbd2afcdacac606082015290565b6200008b9062000473565b62000099906200008d565b62000099905462000405565b620004426200043b6200042f5f62000410565b62000216845f620001a6565b916200018b565b907f8be0079c531659141344cd1fd0a4f28419497f9722a3daafe3b4186f6b6457e06200046e60405190565b5f90a3565b6200008b9060036200051360607f9e7b61f58c47dc699ac88507c4f5bb9f121c03808c5676a8078fe583e464970093620004bf620004b882516001600160a01b031690565b86620001a6565b620004e2620004d860208301516001600160a01b031690565b60018701620001a6565b62000505620004fb60408301516001600160a01b031690565b60028701620001a6565b01516001600160a01b031690565b9101620001a656fe60806040526004361015610011575f80fd5b5f3560e01c80628d14b6146102ff5780630b6810a0146102fa5780630f5becd7146102f557806312e8e2c3146102f05780633469f6e2146102eb5780633f4ba83a146102e6578063436e6958146102e157806346904840146102dc5780634caaa76b146102d75780634e8ff9c5146102d257806359408948146102cd5780635a33d8dc146102c85780635c975abb146102c357806363bdd159146102be57806364725aef146102b95780636c3d7e1d146102b45780636dca4d44146102af5780636fed6940146102aa5780636fee1b81146102a557806370dd0dbc146102a0578063715018a61461029b57806372212ec7146102965780637f3e8a02146102915780638456cb591461028c57806385bc0b4d1461028757806388c3ffb0146102825780638da5cb5b1461027d57806391546c34146102785780639a4152ab14610273578063a34398a21461026e578063aacef18b14610269578063b99f79e014610264578063cb0202721461025f578063cdd78cfc1461025a578063cf89bb9e14610255578063d936b06814610250578063da16c4531461024b578063da1f12ab14610246578063e683661714610241578063e74b981b1461023c578063e94dd82414610237578063edc83f3e14610232578063ef6cf04d1461022d578063f0f3f2c814610228578063f2fde38b14610223578063fcecbb611461021e5763ff3bb5b5036103045761102d565b610ff1565b610fa4565b610f73565b610ef3565b610e22565b610dfe565b610de6565b610dcd565b610d7a565b610d53565b610cd1565b610c0e565b610be8565b610bc1565b610ba9565b610b8e565b610b67565b610af8565b610a7f565b610a2f565b6109fb565b610934565b6108db565b6108c3565b6108a7565b61086a565b61084f565b610833565b6107ef565b6107b0565b610767565b61074b565b61070a565b610665565b61063e565b6105eb565b6105ac565b61050f565b6104cf565b610494565b61047c565b61045a565b610442565b61042a565b61040d565b6103b6565b5f80fd5b6001600160a01b031690565b90565b6001600160a01b0381165b0361030457565b9050359061033682610317565b565b906020828203126103045761031491610329565b61031490610308906001600160a01b031682565b6103149061034c565b61031490610360565b9061037c90610369565b5f5260205260405f2090565b610314916008021c81565b906103149154610388565b5f6103ad61031492600f610372565b610393565b9052565b34610304576103e26103d16103cc366004610338565b61039e565b6040515b9182918290815260200190565b0390f35b80610322565b90503590610336826103e6565b9060208282031261030457610314916103ec565b34610304576104256104203660046103f9565b6110e8565b604051005b346103045761042561043d366004610338565b6111c6565b34610304576104256104553660046103f9565b61123c565b346103045761042561046d3660046103f9565b6112f9565b5f91031261030457565b346103045761048c366004610472565b610425611315565b34610304576104256104a73660046103f9565b61136d565b610314916008021c610308565b9061031491546104ac565b6103145f600d6104b9565b34610304576104df366004610472565b6103e26104ea6104c4565b604051918291826001600160a01b03909116815260200190565b6103145f600e610393565b346103045761051f366004610472565b6103e26103d1610504565b909182601f83011215610304578135916001600160401b03831161030457602001926001830284011161030457565b906080828203126103045761056e81836103ec565b9261057c82602085016103ec565b9261058a83604083016103ec565b9260608201356001600160401b038111610304576105a8920161052a565b9091565b34610304576104256105bf366004610559565b93929092611933565b9190604083820312610304576103149060206105e48286610329565b94016103ec565b34610304576103e26106076106013660046105c8565b90611940565b6040515b91829182901515815260200190565b6103145f60046104b9565b6103b290610369565b6020810192916103369190610625565b346103045761064e366004610472565b6103e261065961061a565b6040519182918261062e565b3461030457610675366004610472565b6103e261060761195f565b919060e0838203126103045782356001600160401b03811161030457816106a891850161052a565b9290936106b883602083016103ec565b926106c681604084016103ec565b926106d482606085016103ec565b926080810135916001600160401b038311610304576106f88461031494840161052a565b93909460c06105e48260a087016103ec565b34610304576103e26103d1610720366004610680565b97969096959195949294611ba0565b9190604083820312610304576103149060206105e482866103ec565b34610304576103e26103d161076136600461072f565b90611bc5565b346103045761042561077a3660046105c8565b90611ca3565b9091606082840312610304576103146107998484610329565b9360406107a98260208701610329565b9401610329565b34610304576104256107c3366004610780565b91611da3565b6103146103146103149290565b9061037c906107c9565b5f6103ad61031492600b6107d6565b34610304576103e26103d16108053660046103f9565b6107e0565b90916060828403126103045761031461082384846103ec565b9360406107a982602087016103ec565b34610304576103e26103d161084936600461080a565b91611dda565b34610304576103e2610607610865366004610338565b611e1b565b346103045761087a366004610472565b610425611e97565b906020828203126103045781356001600160401b038111610304576105a8920161052a565b34610304576103e26103d16108bd366004610882565b90611f81565b34610304576104256108d63660046103f9565b61202b565b34610304576108eb366004610472565b610425612047565b916060838303126103045761090882846103ec565b9261091683602083016103ec565b9260408201356001600160401b038111610304576105a8920161052a565b34610304576104256109473660046108f3565b929190916120fb565b5f5b8381106109615750505f910152565b8181015183820152602001610952565b61099261099b6020936109a593610986815190565b80835293849260200190565b95869101610950565b601f01601f191690565b0190565b91969593946109ec610336966109e560a0966109de6109d66109f39760c08a01908a82035f8c0152610971565b9c6020890152565b6040870152565b6060850152565b6080830152565b019015159052565b34610304576103e2610a16610a113660046103f9565b612189565b92610a2696949692919260405190565b968796876109a9565b3461030457610a3f366004610472565b6103e26104ea612212565b91909160408184031261030457610a6183826103ec565b9260208201356001600160401b038111610304576105a8920161052a565b3461030457610425610a92366004610a4a565b91612286565b634e487b7160e01b5f52603260045260245ffd5b8054821015610acc57610ac46001915f5260205f2090565b910201905f90565b610a98565b610adc906008610372565b80548210156103045761031491610af291610aac565b90610393565b34610304576103e26103d1610b0e3660046105c8565b90610ad1565b9190604083820312610304576103149060206107a982866103ec565b610314916008021c5b60ff1690565b906103149154610b30565b610b6261031492610b5d5f93600a6107d6565b610372565b610b3f565b34610304576103e2610607610b7d366004610b14565b90610b4a565b6103145f60066104b9565b3461030457610b9e366004610472565b6103e2610659610b83565b3461030457610425610bbc3660046103f9565b6123a6565b34610304576103e26103d1610bd736600461072f565b906123af565b6103145f600c610393565b3461030457610bf8366004610472565b6103e26103d1610bdd565b6103145f6009610393565b3461030457610c1e366004610472565b6103e26103d1610c03565b909182601f83011215610304578135916001600160401b03831161030457602001926020830284011161030457565b91909160808184031261030457610c6f83826103ec565b9260208201356001600160401b0381116103045781610c8f918401610c29565b92909360408201356001600160401b0381116103045783610cb1918401610c29565b92909360608201356001600160401b038111610304576105a89201610c29565b3461030457610ce1366004610c58565b9594909493919361245c565b90610d0d610d06610cfc845190565b8084529260200190565b9260200190565b905f5b818110610d1d5750505090565b909192610d3a610d336001928651815260200190565b9460200190565b929101610d10565b602080825261031492910190610ced565b34610304576103e2610d6e610d69366004610338565b6124ea565b60405191829182610d42565b3461030457610d8a366004610472565b6103e26103d1612506565b801515610322565b9050359061033682610d95565b919060408382031261030457610314906020610dc682866103ec565b9401610d9d565b3461030457610425610de0366004610daa565b906125b9565b3461030457610425610df9366004610338565b61263f565b3461030457610425610e1136600461072f565b906127b8565b6103145f60056104b9565b3461030457610e32366004610472565b6103e2610659610e17565b9061037c565b6103149081565b6103149054610e43565b61031490610308565b6103149054610e54565b610e72906007610e3d565b610e7b81610e4a565b91610e8860018301610e4a565b91610e9560028201610e5d565b916103146004610ea760038501610e4a565b9301610e4a565b9095949261033694610ee8610eef92610ed8608096610ed160a088019c5f890152565b6020870152565b6001600160a01b03166040850152565b6060830152565b0152565b34610304576103e2610f0e610f093660046103f9565b610e67565b91610f1b95939560405190565b95869586610eae565b9061033694610f6a610f60610eef936080969a99979a610f5360a08801925f8901906001600160a01b03169052565b8682036020880152610971565b9815156040850152565b15156060830152565b34610304576103e2610f8e610f893660046103f9565b6127c2565b91610f9b95939560405190565b95869586610f24565b3461030457610425610fb7366004610338565b6128a4565b610eef61033694610fe1606094989795610fda608086019a5f870152565b6020850152565b6001600160a01b03166040830152565b34610304576103e261100c6110073660046103f9565b6128ad565b9061101994929460405190565b94859485610fbc565b6103145f6010610393565b346103045761103d366004610472565b6103e26103d1611022565b610336906110546128f8565b6110c7565b1561106057565b60405162461bcd60e51b8152602060048201526011602482015270436f6f6c646f776e20746f6f206c6f6e6760781b6044820152606490fd5b0390fd5b905f19905b9181191691161790565b906110bc6103146110c3926107c9565b825461109d565b9055565b610336906110e16110d9610e106107c9565b821115611059565b60106110ac565b61033690611048565b610336906110fd6128f8565b611147565b634e487b7160e01b5f52604160045260245ffd5b90601f01601f191681019081106001600160401b0382111761113757604052565b611102565b6040513d5f823e3d90fd5b6111596111546004610e5d565b610369565b803b15610304576111995f9291839261117160405190565b9485938492839190630f5becd760e01b5b83526001600160a01b031660048301526024820190565b03925af180156111c1576111aa5750565b610336905f6111b98183611116565b810190610472565b61113c565b610336906110f1565b610336906111db6128f8565b61121b565b156111e757565b60405162461bcd60e51b815260206004820152600c60248201526b08ccaca40e8dede40d0d2ced60a31b6044820152606490fd5b6103369061123561122d6103e86107c9565b8211156111e0565b600c6110ac565b610336906111cf565b610336906112516128f8565b61125e6111546005610e5d565b90813b15610304575f61127060405190565b631a34fb7160e11b815260048101839052928390602490829084905af19182156111c1576112ac926112e4575b506112a781612944565b6107c9565b7f2b034c48d6d3c5fa40da8afd25e88ee8ad074a546e1a3f05a860c6106b99b82b6112d660405190565b42815280602081015b0390a2565b6112f3905f6111b98183611116565b5f61129d565b61033690611245565b61130a6128f8565b610336610336612b0a565b610336611302565b61033690611329612b12565b6113366111546004610e5d565b803b15610304576111995f9291839261134e60405190565b948593849283919063086dcd2b60e31b5b835260048301526024820190565b6103369061131d565b9061033694939291611386612b12565b9061139b94939291611396612b3c565b6116bd565b610336612b7c565b634e487b7160e01b5f52601160045260245ffd5b919082018092116113c457565b6113a3565b156113d057565b60405162461bcd60e51b815260206004820152601860248201527f446f6e6174696f6e20636f6f6c646f776e2061637469766500000000000000006044820152606490fd5b9050519061033682610317565b9061033661142f60405190565b9283611116565b6001600160401b03811161113757602090601f01601f19160190565b9092919261146761146282611436565b611422565b938185528183011161030457610336916020850190610950565b9080601f8301121561030457815161031492602001611452565b9050519061033682610d95565b90505190610336826103e6565b919060a083820312610304576114cb8184611415565b9260208101516001600160401b03811161030457826114eb918301611481565b926103146114fc846040850161149b565b93608061150c826060870161149b565b94016114a8565b1561151a57565b60405162461bcd60e51b815260206004820152601260248201527150726f6a656374206e6f742061637469766560701b6044820152606490fd5b1561155b57565b60405162461bcd60e51b8152602060048201526014602482015273141c9bda9958dd081b9bdd081d995c9a599a595960621b6044820152606490fd5b90602082820312610304576103149161149b565b156115b257565b60405162461bcd60e51b8152602060048201526013602482015272496e76616c69642063726564656e7469616c7360681b6044820152606490fd5b90825f939282370152565b919061099b8161160f816109a59560209181520190565b80956115ed565b909391610314959361163361163a92610fda60808601985f870152565b6040830152565b60608185039101526115f8565b61031490610b39565b6103149054611647565b9060ff906110a2565b906116736103146110c392151590565b825461165a565b5f1981146113c45760010190565b9092919261169861146282611436565b9381855281830111610304576103369160208501906115ed565b610314913691611688565b909392916116f56116ed6103146116dd6116d833600f610372565b610e4a565b6116e76010610e4a565b906113b7565b4210156113c9565b6117026111546004610e5d565b5f61170c60405190565b631e1e7e5960e31b81526004810188905291829060249082905afa80156111c157611749915f905f92611908575b5061174490611513565b611554565b6117566111546004610e5d565b602061176160405190565b631c37436f60e21b815233600482015291829060249082905afa80156111c157611792915f916118d9575b506115ab565b61179f6111546005610e5d565b90813b15610304575f84869383838a6117d56117ba60405190565b98899687958694631865cddf60e21b86528d60048701611616565b03925af180156111c1576118459561183f9561182a94611822936118c4575b5061181961181561181061180989600a6107d6565b3390610372565b611650565b1590565b611882576116b2565b908684612cbd565b6112a761183833600f610372565b42906110ac565b916107c9565b61184e33610369565b917fb9c87592ed73f7a26fff471ef513f8065a243208d84daa291fb0e770635014e261187960405190565b428152602090a4565b61189a600161189561180989600a6107d6565b611663565b6118bf6118a887600b6107d6565b6118b96118b482610e4a565b61167a565b906110ac565b6116b2565b6118d3905f6111b98183611116565b5f6117f4565b6118fb915060203d602011611901575b6118f38183611116565b810190611597565b5f61178c565b503d6118e9565b611744925061192991503d805f833e6119218183611116565b8101906114b5565b509350915061173a565b9061033694939291611376565b6103149161195a611810926119525f90565b506003610372565b610e3d565b6103146002611650565b9061031499989796959493929161197e6128f8565b90610314999897969594939291611993612b12565b611a62565b9060208282031261030457610314916114a8565b94956119f760c0976119f0610eef976119e96103369d9f9e9c968b611a049a996119e19260e08301925f8185039101526115f8565b9760208c0152565b60408a0152565b6060880152565b85830360808701526115f8565b9660a0830152565b611a2c6103149593949294611a2560608401965f850152565b6020830152565b60408185039101526115f8565b610eef611a5a6040936103369698979560608501918583035f8701526115f8565b966020830152565b928282889c9b839b889b98979a9599969a5088611a7f6005610e5d565b611a8890610369565b9688611a9360405190565b9e8f9889986363bdd15960e01b8a52611aaf9860048b016119ac565b03815a6020945f91f19586156111c1575f96611b6f575b508598611ad66111546006610e5d565b803b15610304575f928389611b08611aed60405190565b98899687958694637932b1f560e11b5b865260048601611a0c565b03925af180156111c1577fe5fc1affaef00db854e626dd509a961dc2f0565b785b436f277c8fe47fcac963956112df93611b4792611b5a575b506107c9565b95611b5160405190565b94859485611a39565b611b69905f6111b98183611116565b5f611b41565b611b9291965060203d602011611b99575b611b8a8183611116565b810190611998565b945f611ac6565b503d611b80565b6103149897969594939291905f611969565b9081526040810192916103369160200152565b611c0291602091611bd96111546005610e5d565b90611be360405190565b809581948293611bf76364725aef60e01b90565b845260048401611bb2565b03915afa9081156111c1575f91611c17575090565b610314915060203d602011611b9957611b8a8183611116565b9061033691611c3d6128f8565b611c5f565b6001600160a01b0390911681526040810192916103369160200152565b611c6c6111546006610e5d565b91823b1561030457611199925f9283611c8460405190565b809681958294611c986395ccea6760e01b90565b845260048401611c42565b9061033691611c30565b906103369291611cbb6128f8565b611cfc565b6103086103146103149290565b61031490611cc0565b906001600160a01b03906110a2565b90611cf56103146110c392610369565b8254611cd6565b611d4c91611d095f611ccd565b916001600160a01b0383166001600160a01b03821603611d8a575b506001600160a01b0382166001600160a01b03821603611d71575b506001600160a01b031690565b6001600160a01b03821603611d5e5750565b611d6a61033691610369565b6006611ce5565b611d7d611d8491610369565b6005611ce5565b5f611d3f565b611d96611d9d91610369565b6004611ce5565b5f611d24565b906103369291611cad565b908152606081019392610336929091604091611dcb906020830152565b01906001600160a01b03169052565b91611c0292602092611de95f90565b50611df76111546005610e5d565b91611e0160405190565b95869485938493636fee1b8160e01b855260048501611dae565b6020611e4d91611e285f90565b50611e366111546004610e5d565b60405193849283918291631c37436f60e21b611182565b03915afa9081156111c1575f91611e62575090565b610314915060203d602011611901576118f38183611116565b611e836128f8565b610336610336611e925f611ccd565b612d7a565b610336611e7b565b906103149291611ead612b12565b611ec3565b6020808252610314939101916115f8565b92919250611ed46111546004610e5d565b926020611ee060405190565b9485906372212ec760e01b8252815f81611efe878960048401611eb2565b03925af19384156111c1575f94611f60575b507f1fb4423aed62bba3e66f7c81a4af273642c7e8c57d7b111ae2b1aca9887869ba611f3b856107c9565b91611f4533610369565b93611f5b611f5260405190565b92839283611eb2565b0390a3565b611f7a91945060203d602011611b9957611b8a8183611116565b925f611f10565b61031491905f611e9f565b61033690611f98612b12565b611fa56111546004610e5d565b803b15610304575f611fb660405190565b633f9f450160e11b815260048101849052918290602490829084905af180156111c157612016575b507f0122474816f57c046458131914c20160703e66f4ee4b6d2f0c5ae212a6e60d4c6112df61200c33610369565b926103d560405190565b612025905f6111b98183611116565b5f611fde565b61033690611f8c565b61203c6128f8565b610336610336612e05565b610336612034565b9061033693929161205e612b12565b919061206d6111546005610e5d565b803b15610304575f61207e60405190565b9182906385bc0b4d60e01b825281838161209e8b8a8a8d60048601611a0c565b03925af180156111c1576120e6575b506120bb6111546006610e5d565b90813b15610304575f80946111996120d260405190565b97889687958694637932b1f560e11b611afd565b6120f5905f6111b98183611116565b5f6120ad565b9061033693929161204f565b9190610100838203126103045782516001600160401b0381116103045781612130918501611481565b9261213e82602083016114a8565b9261214c83604084016114a8565b9261215a81606085016114a8565b9261216882608083016114a8565b926103146121798460a0850161149b565b9360e061150c8260c087016114a8565b905f6121bc92612197606090565b506121a56111546005610e5d565b6040519485928391829163088c3ffb60e41b61135f565b03915afa9182156111c1575f905f935f935f935f935f936121e1575b50959493929190565b9450509450505061220491503d805f833e6121fc8183611116565b810190612107565b5096919395909294966121d8565b6103145f610e5d565b906103369291612229612b12565b612246565b908152604060208201819052610314939101916115f8565b90916122556111546004610e5d565b803b1561030457611199935f809461226c60405190565b968795869485936324551b0d60e21b85526004850161222e565b90610336929161221b565b6103369061229d6128f8565b6122ee565b156122a957565b60405162461bcd60e51b815260206004820152601760248201527f4e6f7420656e6f756768207061727469636970616e74730000000000000000006044820152606490fd5b61231a6122ff6116d883600b6107d6565b61231361230f610314600e610e4a565b9190565b10156122a2565b6123276111546005610e5d565b90813b15610304575f61233960405190565b6305ccfbcf60e51b815260048101839052928390602490829084905af19182156111c15761236b92611b5a57506107c9565b6123745f6107c9565b907f4b30f14da257e8f9372b727d54b681b51ac782634be7128aeb9a298816b37bab61239f60405190565b8080611f5b565b61033690612291565b611c02916020916123c36111546005610e5d565b906123cd60405190565b809581948293611bf763cb02027260e01b90565b6123e9612b12565b6123f1612b3c565b60405162461bcd60e51b815260206004820152603d60248201527f426174636820646f6e6174696f6e73206e6f7420737570706f727465642e205560448201527f736520696e646976696475616c20646f6e61746528292063616c6c732e0000006064820152608490fd5b6123e1565b9061247a612470610cfc845490565b925f5260205f2090565b905f5b81811061248a5750505090565b9091926124ae6124a760019261249f87610e4a565b815260200190565b9460010190565b92910161247d565b9061031491612461565b906103366124da926124d160405190565b938480926124b6565b0383611116565b610314906124c0565b612501610314916124f9606090565b506008610372565b6124e1565b610314612e0d565b906103369161251b6128f8565b612535565b908152604081019291610336916020906109f3565b6125426111546004610e5d565b803b15610304575f61255360405190565b91829063e683661760e01b8252818381612571898960048401612520565b03925af180156111c1577fbc17288f3f8c4919b6e4ee68624582c29d4ce2188a0e8a9175d0470f9a053c57926112df926125af92611b5a57506107c9565b9261060b60405190565b906103369161250e565b610336906125cf6128f8565b612614565b156125db57565b60405162461bcd60e51b8152602060048201526011602482015270125b9d985b1a59081c9958da5c1a595b9d607a1b6044820152606490fd5b610336906126386126276103085f611ccd565b6001600160a01b03831614156125d4565b600d611ce5565b610336906125c3565b9061033691612655612b12565b6126d7565b1561266157565b60405162461bcd60e51b81526020600482015260116024820152702737ba10383937b532b1ba1037bbb732b960791b6044820152606490fd5b6126a76103146103149290565b63ffffffff1690565b9081526060810193926103369290916040916126cb90611a25565b019063ffffffff169052565b6126e46111546004610e5d565b5f6126ee60405190565b631e1e7e5960e31b81526004810185905291829060249082905afa80156111c157612733915f9161279c575b5061272d335b916001600160a01b031690565b1461265a565b61273c5f61269a565b9061274a6111546006610e5d565b803b156103045761277f5f9391849261276260405190565b9586938492839190631276c34960e11b83528a89600485016126b0565b03925af19081156111c1576123749261183f92611b5a57506107c9565b6127b091503d805f833e6119218183611116565b50505061271a565b9061033691612648565b5f6127f3916127ce5f90565b506127dc6111546004610e5d565b60405193849283918291631e1e7e5960e31b61135f565b03915afa9081156111c1575f915f935f935f935f93612815575b509493929190565b93505093505061282f91503d805f833e6119218183611116565b91935f9591939561280d565b610336906128476128f8565b6128505f611ccd565b6001600160a01b0381166001600160a01b03831614612873575061033690612d7a565b6110999061288060405190565b631e4fbdf760e01b8152918291600483016001600160a01b03909116815260200190565b6103369061283b565b6103146128c3916128bb5f90565b506007610e3d565b6128cc81610e4a565b6128d860018301610e4a565b926128f160046128ea60028601610e5d565b9401610e4a565b9193929190565b612900612212565b339061290b82612720565b036129135750565b6110999061292060405190565b63118cdaa760e01b8152918291600483016001600160a01b03909116815260200190565b6129516111546005610e5d565b5f61295b60405190565b63088c3ffb60e41b81526004810184905291829060249082905afa9081156111c1575f91612aa5575b506001908161299360016107c9565b905b6129a0575b50505050565b818111612aa0576129b46111546005610e5d565b9060206129c060405190565b9283906364725aef60e01b825281806129dd868b60048401611bb2565b03915afa9182156111c1575f92612a80575b506129fd6111546004610e5d565b5f612a0760405190565b631e1e7e5960e31b81526004810184905291829060249082905afa80156111c157612a5a93612a54925f92612a60575b50612a4e612a486111546006610e5d565b82612e18565b50612e18565b5061167a565b82612995565b612a759192503d805f833e6119218183611116565b505050919091612a37565b612a9991925060203d8111611b9957611b8a8183611116565b905f6129ef565b61299a565b612ab991503d805f833e6121fc8183611116565b50955050505050612984565b612acd612e23565b610336612adb5f6002611663565b7f5db9ee0a495bf2e6ff9c91a7834c1ba4fdd244a5e8aa4e537bd38aeae4b073aa612b05336104ea565b0390a1565b610336612ac5565b612b1a61195f565b612b2057565b60405163d93c066560e01b8152600490fd5b61031460026107c9565b612b466001610e4a565b612b4e612b32565b908114612b60576103369060016110ac565b604051633ee5aeb560e01b8152600490fd5b61031460016107c9565b610336612b87612b72565b60016110ac565b6103b2906001600160a01b031660601b90565b92612bc560146109a594612bc5602088612bbd829b9a83999052565b018092612b8e565b01918252565b61031460a0611422565b906110bc6103146110c39290565b6004612c54608061033694612c01612bfb5f83015190565b866110ac565b612c18612c0f602083015190565b600187016110ac565b612c38612c2f60408301516001600160a01b031690565b60028701611ce5565b612c4f612c46606083015190565b60038701612bd5565b015190565b91016110ac565b9061033691612be3565b915f1960089290920291821b911b6110a2565b9190612c876103146110c39390565b908354612c65565b90815491680100000000000000008310156111375782612cb791600161033695018155610aac565b90612c78565b612d4c612d6792612d41612d3061033697612cd86009610e4a565b612ceb612ce48261167a565b60096110ac565b612d17612cf760405190565b8092612d0b888b6020850193339085612ba1565b90810382520382611116565b612d29612d22825190565b9160200190565b2097612e46565b91610fda612d3c612bcb565b958652565b336040840152610ee8565b612d57426080830152565b612d62836007610e3d565b612c5b565b612d75610314336008610372565b612c8f565b612d99612d93612d895f610e5d565b611154845f611ce5565b91610369565b907f8be0079c531659141344cd1fd0a4f28419497f9722a3daafe3b4186f6b6457e061239f60405190565b612dcc612b12565b610336612ddb60016002611663565b7f62e78cea01bee320cd4e420270b5ea74000d11b0c9f74754ebdbfc544b05a258612b05336104ea565b610336612dc4565b6103146127116107c9565b906103149082612e78565b612e2e61181561195f565b612e3457565b604051638dfc202b60e01b8152600490fd5b600461031492612e5e61031493612e5a5f90565b5090565b612f5f565b90815260408101929161033691602090611dcb565b612ea5611154807f9e7b61f58c47dc699ac88507c4f5bb9f121c03808c5676a8078fe583e4649700610e5d565b91823b1561030457611199925f9283612ebd60405190565b809681958294612ed163b9496b6260e01b90565b845260048401612e63565b634e487b7160e01b5f52602160045260245ffd5b60541115612efa57565b612edc565b9061033682612ef0565b61031490612eff565b6103b290612f09565b94939160609161033694612f4a612f5793612f3a60808b01945f8c0152565b6001600160a01b031660208a0152565b8782036040890152610971565b940190612f12565b612fe6919392602091612f6f5f90565b507f9e7b61f58c47dc699ac88507c4f5bb9f121c03808c5676a8078fe583e4649700955f612fc0611154807f9e7b61f58c47dc699ac88507c4f5bb9f121c03808c5676a8078fe583e4649701610e5d565b92612fca60405190565b9687958694859363196d0b9b60e01b8552339060048601612f1b565b03925af19081156111c1575f91613040575b5061300b6111546111545f849601610e5d565b803b15610304576111995f9291839261302360405190565b9485938492839190630f8e573b60e21b8352339060048401612e63565b613059915060203d602011611b9957611b8a8183611116565b5f612ff856fea26469706673582212203afec5020cf1bad9571ba7fe06ea2005953068bbba88186f6d679a4d57177c7e64736f6c63430008180033",
  "linkReferences": {},
  "deployedLinkReferences": {}
}