{
  "_format": "hh-sol-artifact-1",
  "contractName": "TestFHEOperations",
  "sourceName": "src/test/TestFHEOperations.sol",
  "abi": [
    {
      "inputs": [],
      "stateMutability": "nonpayable",
      "type": "constructor"
    },
    {
      "inputs": [],
      "name": "EnforcedPause",
      "type": "error"
    },
    {
      "inputs": [],
      "name": "ExpectedPause",
      "type": "error"
    },
    {
      "inputs": [
        {
          "internalType": "address",
          "name": "owner",
          "type": "address"
        }
      ],
      "name": "OwnableInvalidOwner",
      "type": "error"
    },
    {
      "inputs": [
        {
          "internalType": "address",
          "name": "account",
          "type": "address"
        }
      ],
      "name": "OwnableUnauthorizedAccount",
      "type": "error"
    },
    {
      "inputs": [],
      "name": "ReentrancyGuardReentrantCall",
      "type": "error"
    },
    {
      "anonymous": false,
      "inputs": [
        {
          "indexed": true,
          "internalType": "address",
          "name": "previousOwner",
          "type": "address"
        },
        {
          "indexed": true,
          "internalType": "address",
          "name": "newOwner",
          "type": "address"
        }
      ],
      "name": "OwnershipTransferred",
      "type": "event"
    },
    {
      "anonymous": false,
      "inputs": [
        {
          "indexed": false,
          "internalType": "address",
          "name": "account",
          "type": "address"
        }
      ],
      "name": "Paused",
      "type": "event"
    },
    {
      "anonymous": false,
      "inputs": [
        {
          "indexed": true,
          "internalType": "address",
          "name": "user",
          "type": "address"
        },
        {
          "indexed": true,
          "internalType": "bytes32",
          "name": "dataId",
          "type": "bytes32"
        }
      ],
      "name": "ReencryptionPermissionGranted",
      "type": "event"
    },
    {
      "anonymous": false,
      "inputs": [
        {
          "indexed": true,
          "internalType": "address",
          "name": "user",
          "type": "address"
        },
        {
          "indexed": true,
          "internalType": "bytes32",
          "name": "dataId",
          "type": "bytes32"
        }
      ],
      "name": "ReencryptionPermissionRevoked",
      "type": "event"
    },
    {
      "anonymous": false,
      "inputs": [
        {
          "indexed": false,
          "internalType": "address",
          "name": "account",
          "type": "address"
        }
      ],
      "name": "Unpaused",
      "type": "event"
    },
    {
      "inputs": [
        {
          "internalType": "address",
          "name": "user",
          "type": "address"
        },
        {
          "internalType": "bytes32",
          "name": "dataId",
          "type": "bytes32"
        }
      ],
      "name": "hasReencryptionPermission",
      "outputs": [
        {
          "internalType": "bool",
          "name": "",
          "type": "bool"
        }
      ],
      "stateMutability": "view",
      "type": "function"
    },
    {
      "inputs": [],
      "name": "owner",
      "outputs": [
        {
          "internalType": "address",
          "name": "",
          "type": "address"
        }
      ],
      "stateMutability": "view",
      "type": "function"
    },
    {
      "inputs": [],
      "name": "pause",
      "outputs": [],
      "stateMutability": "nonpayable",
      "type": "function"
    },
    {
      "inputs": [],
      "name": "paused",
      "outputs": [
        {
          "internalType": "bool",
          "name": "",
          "type": "bool"
        }
      ],
      "stateMutability": "view",
      "type": "function"
    },
    {
      "inputs": [],
      "name": "protocolId",
      "outputs": [
        {
          "internalType": "uint256",
          "name": "",
          "type": "uint256"
        }
      ],
      "stateMutability": "pure",
      "type": "function"
    },
    {
      "inputs": [],
      "name": "renounceOwnership",
      "outputs": [],
      "stateMutability": "nonpayable",
      "type": "function"
    },
    {
      "inputs": [
        {
          "internalType": "externalEuint32",
          "name": "value",
          "type": "bytes32"
        },
        {
          "internalType": "bytes",
          "name": "proof",
          "type": "bytes"
        }
      ],
      "name": "testApproxSqrt",
      "outputs": [
        {
          "internalType": "euint32",
          "name": "",
          "type": "bytes32"
        }
      ],
      "stateMutability": "nonpayable",
      "type": "function"
    },
    {
      "inputs": [
        {
          "internalType": "externalEuint32[]",
          "name": "values",
          "type": "bytes32[]"
        },
        {
          "internalType": "bytes[]",
          "name": "proofs",
          "type": "bytes[]"
        },
        {
          "internalType": "uint8",
          "name": "operation",
          "type": "uint8"
        }
      ],
      "name": "testBatchProcess",
      "outputs": [
        {
          "internalType": "euint32",
          "name": "",
          "type": "bytes32"
        }
      ],
      "stateMutability": "nonpayable",
      "type": "function"
    },
    {
      "inputs": [
        {
          "internalType": "externalEuint32",
          "name": "value",
          "type": "bytes32"
        },
        {
          "internalType": "bytes",
          "name": "proof",
          "type": "bytes"
        },
        {
          "internalType": "uint16",
          "name": "percentage",
          "type": "uint16"
        }
      ],
      "name": "testCalculatePercentage",
      "outputs": [
        {
          "internalType": "euint32",
          "name": "",
          "type": "bytes32"
        }
      ],
      "stateMutability": "nonpayable",
      "type": "function"
    },
    {
      "inputs": [
        {
          "internalType": "externalEuint32",
          "name": "a",
          "type": "bytes32"
        },
        {
          "internalType": "bytes",
          "name": "proof",
          "type": "bytes"
        },
        {
          "internalType": "uint32",
          "name": "b",
          "type": "uint32"
        }
      ],
      "name": "testDivPlaintext",
      "outputs": [
        {
          "internalType": "euint32",
          "name": "",
          "type": "bytes32"
        }
      ],
      "stateMutability": "nonpayable",
      "type": "function"
    },
    {
      "inputs": [
        {
          "internalType": "externalEuint32",
          "name": "a",
          "type": "bytes32"
        },
        {
          "internalType": "externalEuint32",
          "name": "b",
          "type": "bytes32"
        },
        {
          "internalType": "bytes",
          "name": "proofA",
          "type": "bytes"
        },
        {
          "internalType": "bytes",
          "name": "proofB",
          "type": "bytes"
        }
      ],
      "name": "testMax",
      "outputs": [
        {
          "internalType": "euint32",
          "name": "",
          "type": "bytes32"
        }
      ],
      "stateMutability": "nonpayable",
      "type": "function"
    },
    {
      "inputs": [
        {
          "internalType": "externalEuint32",
          "name": "a",
          "type": "bytes32"
        },
        {
          "internalType": "externalEuint32",
          "name": "b",
          "type": "bytes32"
        },
        {
          "internalType": "bytes",
          "name": "proofA",
          "type": "bytes"
        },
        {
          "internalType": "bytes",
          "name": "proofB",
          "type": "bytes"
        }
      ],
      "name": "testMin",
      "outputs": [
        {
          "internalType": "euint32",
          "name": "",
          "type": "bytes32"
        }
      ],
      "stateMutability": "nonpayable",
      "type": "function"
    },
    {
      "inputs": [
        {
          "internalType": "externalEuint32",
          "name": "a",
          "type": "bytes32"
        },
        {
          "internalType": "externalEuint32",
          "name": "b",
          "type": "bytes32"
        },
        {
          "internalType": "bytes",
          "name": "proofA",
          "type": "bytes"
        },
        {
          "internalType": "bytes",
          "name": "proofB",
          "type": "bytes"
        }
      ],
      "name": "testSafeAdd",
      "outputs": [
        {
          "internalType": "euint32",
          "name": "",
          "type": "bytes32"
        }
      ],
      "stateMutability": "nonpayable",
      "type": "function"
    },
    {
      "inputs": [
        {
          "internalType": "externalEuint32",
          "name": "a",
          "type": "bytes32"
        },
        {
          "internalType": "externalEuint32",
          "name": "b",
          "type": "bytes32"
        },
        {
          "internalType": "bytes",
          "name": "proofA",
          "type": "bytes"
        },
        {
          "internalType": "bytes",
          "name": "proofB",
          "type": "bytes"
        }
      ],
      "name": "testSafeMul",
      "outputs": [
        {
          "internalType": "euint32",
          "name": "",
          "type": "bytes32"
        }
      ],
      "stateMutability": "nonpayable",
      "type": "function"
    },
    {
      "inputs": [
        {
          "internalType": "externalEuint32",
          "name": "a",
          "type": "bytes32"
        },
        {
          "internalType": "externalEuint32",
          "name": "b",
          "type": "bytes32"
        },
        {
          "internalType": "bytes",
          "name": "proofA",
          "type": "bytes"
        },
        {
          "internalType": "bytes",
          "name": "proofB",
          "type": "bytes"
        }
      ],
      "name": "testSafeSub",
      "outputs": [
        {
          "internalType": "euint32",
          "name": "",
          "type": "bytes32"
        }
      ],
      "stateMutability": "nonpayable",
      "type": "function"
    },
    {
      "inputs": [
        {
          "internalType": "address",
          "name": "newOwner",
          "type": "address"
        }
      ],
      "name": "transferOwnership",
      "outputs": [],
      "stateMutability": "nonpayable",
      "type": "function"
    },
    {
      "inputs": [],
      "name": "unpause",
      "outputs": [],
      "stateMutability": "nonpayable",
      "type": "function"
    }
  ],
  "bytecode": "0x6080604052346200002657620000146200002a565b604051611a67620004208239611a6790f35b5f80fd5b6200003462000036565b565b62000034620000453362000059565b620000346200005362000211565b620002b0565b6200003490620000b2565b6200007462000074620000749290565b90565b62000074600162000064565b905f19905b9181191691161790565b90620000a662000074620000ae9262000064565b825462000083565b9055565b620000bd906200011b565b62000034620000cb62000077565b600162000092565b620000e362000074620000749290565b6001600160a01b031690565b6200007490620000d3565b6200010590620000e3565b9052565b602081019291620000349190620000fa565b620001265f620000ef565b6200013181620000e3565b6200013c83620000e3565b146200014e575062000034906200032a565b62000174906200015d60405190565b631e4fbdf760e01b81529182916004830162000109565b0390fd5b634e487b7160e01b5f52604160045260245ffd5b90601f01601f191681019081106001600160401b03821117620001ae57604052565b62000178565b9062000034620001c360405190565b92836200018c565b620000746080620001b4565b620001e1620001cb565b5f8082526020820181905260408201819052606082015290565b62000074620001d7565b906200010590620000e3565b6200021b620001fb565b5073a02cda4ca3a71d7c46997716f4283aa851c288126200028d6200023f620001cb565b916200026073687820221192c5b662b25367f70076a37bc79b6c8462000205565b6200028373848b0066793bcc60346da1f49049357399b8d5956020850162000205565b6040830162000205565b62000074731364cbbf2cdf5032c47d8226a6f6fbd2afcdacac6060830162000205565b620000349062000393565b6200007490620000e3565b620000749054620002bb565b906001600160a01b039062000088565b6200007490620000e3906001600160a01b031682565b6200007490620002e2565b6200007490620002f8565b906200032262000074620000ae9262000303565b8254620002d2565b620003566200034f6200033d5f620002c6565b62000349845f6200030e565b62000303565b9162000303565b907f8be0079c531659141344cd1fd0a4f28419497f9722a3daafe3b4186f6b6457e06200038260405190565b5f90a3565b620000749051620000e3565b620000349060036200041760607f9e7b61f58c47dc699ac88507c4f5bb9f121c03808c5676a8078fe583e464970093620003d8620003d18262000387565b866200030e565b620003f4620003ea6020830162000387565b600187016200030e565b62000410620004066040830162000387565b600287016200030e565b0162000387565b91016200030e56fe60806040526004361015610011575f80fd5b5f3560e01c806334ed6b8e14610120578063356a4e5b1461011b578063356abdf7146101165780633f4ba83a14610111578063594089481461010c5780635c975abb14610107578063715018a614610102578063817a120a146100fd5780638456cb59146100f85780638da5cb5b146100f357806392412618146100ee578063c2d5e9bc146100e9578063da1f12ab146100e4578063e8726074146100df578063f12b4fd0146100da578063f2fde38b146100d55763f78e233003610125576105e4565b6105cc565b61059c565b610548565b6104d0565b6104ae565b61048c565b610457565b61043f565b61041d565b610405565b6103ea565b6103bc565b610354565b61032b565b610270565b6101df565b5f80fd5b805b0361012557565b9050359061013f82610129565b565b909182601f83011215610125578135916001600160401b03831161012557602001926001830284011161012557565b9190608083820312610125576101868184610132565b926101948260208301610132565b9260408201356001600160401b03811161012557836101b4918401610141565b92909360608201356001600160401b038111610125576101d49201610141565b9091565b90565b9052565b34610125576102116102016101f5366004610170565b949390939291926106b9565b6040519182918290815260200190565b0390f35b61ffff811661012b565b9050359061013f82610215565b90606082820312610125576102418183610132565b9260208301356001600160401b03811161012557826102676040946101d8938701610141565b9490950161021f565b346101255761021161020161028636600461022c565b929190916106ec565b909182601f83011215610125578135916001600160401b03831161012557602001926020830284011161012557565b60ff811661012b565b9050359061013f826102be565b6060818303126101255780356001600160401b03811161012557826102fa91830161028f565b92909360208301356001600160401b03811161012557826103226040946101d893870161028f565b949095016102c7565b34610125576102116102016103413660046102d4565b939290926107fa565b5f91031261012557565b346101255761036436600461034a565b61036c610890565b604051005b6001600160a01b031690565b6001600160a01b03811661012b565b9050359061013f8261037d565b9190604083820312610125576101d89060206103b5828661038c565b9401610132565b34610125576102116103d86103d2366004610399565b906108ef565b60405191829182901515815260200190565b34610125576103fa36600461034a565b6102116103d8610913565b346101255761041536600461034a565b61036c610954565b3461012557610211610201610433366004610170565b9493909392919261095c565b346101255761044f36600461034a565b61036c610990565b346101255761046736600461034a565b6102116104726109ab565b604051918291826001600160a01b03909116815260200190565b34610125576102116102016104a2366004610170565b949390939291926109b4565b34610125576102116102016104c4366004610170565b949390939291926109d5565b34610125576104e036600461034a565b6102116102016109f6565b63ffffffff811661012b565b9050359061013f826104eb565b90606082820312610125576105198183610132565b9260208301356001600160401b038111610125578261053f6040946101d8938701610141565b949095016104f7565b346101255761021161020161055e366004610504565b929190916109fe565b9190916040818403126101255761057e8382610132565b9260208201356001600160401b038111610125576101d49201610141565b34610125576102116102016105b2366004610567565b91610a16565b90602082820312610125576101d89161038c565b346101255761036c6105df3660046105b8565b610a9a565b34610125576102116102016105fa366004610170565b94939093929192610aa3565b634e487b7160e01b5f52604160045260245ffd5b90601f01601f191681019081106001600160401b0382111761063b57604052565b610606565b9061013f61064d60405190565b928361061a565b6001600160401b03811161063b57602090601f01601f19160190565b0190565b90825f939282370152565b9092919261069461068f82610654565b610640565b93818552818301116101255761013f916020850190610674565b6101d891369161067f565b946106e06101d8966106da6106e6966106da95966106d45f90565b506106ae565b90610ac4565b946106ae565b90610ae1565b6106da6101d894936106ff936106d45f90565b610b7c565b6001600160401b03811161063b5760208091020190565b9061072861068f83610704565b918252565b369037565b9061013f6107486107428461071b565b93610704565b601f19016020840161072d565b6101d86101d86101d89290565b634e487b7160e01b5f52603260045260245ffd5b9190811015610786576020020190565b610762565b356101d881610129565b903590601e19368290030182121561012557018035906001600160401b038211610125576020019136829003831361012557565b908210156107865760206101d49202810190610795565b906107e9825190565b811015610786576020809102010190565b919291819561080887610732565b956108125f610755565b885b81101561086c576108658161085f6108528a6106da61084c858d6108466108418f9b8f9c6108149d610776565b61078b565b946107c9565b906106ae565b61085c838d6107e0565b52565b60010190565b9050610812565b50945095505050506101d891610c14565b610885610d8d565b61013f61013f610e4f565b61013f61087d565b6101d890610371906001600160a01b031682565b6101d890610898565b6101d8906108ac565b906108c8906108b5565b5f5260205260405f2090565b906108c8565b6101d8905b60ff1690565b6101d890546108da565b6101d89161090961090e926109015f90565b5060036108be565b6108d4565b6108e5565b6101d860026108e5565b610925610d8d565b61013f610943565b6103716101d86101d89290565b6101d89061092d565b61013f61094f5f61093a565b610e7d565b61013f61091d565b946106e06101d8966106da610977966106da95966106d45f90565b90610ed1565b610985610d8d565b61013f61013f610f3d565b61013f61097d565b6101d890610371565b6101d89054610998565b6101d85f6109a1565b946106e06101d8966106da6109cf966106da95966106d45f90565b90610f45565b946106e06101d8966106da6109f0966106da95966106d45f90565b90610f4f565b6101d8610f81565b6106da6101d89493610a11936106d45f90565b610fcb565b6106da6101d893610a28936106d45f90565b610fee565b61013f90610a39610d8d565b610a425f61093a565b6001600160a01b0381166001600160a01b03831614610a65575061013f90610e7d565b610a9690610a7260405190565b631e4fbdf760e01b8152918291600483016001600160a01b03909116815260200190565b0390fd5b61013f90610a2d565b946106e06101d8966106da610abe966106da95966106d45f90565b90611025565b60046101d892610adc6101d893610ad85f90565b5090565b611138565b6101d89190610af0828261126c565b6112da565b610b026101d86101d89290565b61ffff1690565b15610b1057565b60405162461bcd60e51b815260206004820152601760248201527f50657263656e74616765206578636565647320313030250000000000000000006044820152606490fd5b610b666101d86101d89261ffff1690565b63ffffffff1690565b610b666101d86101d89290565b90610bc7610bc16101d893610b8e5f90565b50610bbb610bb661271095610bb1610ba588610af5565b61ffff83161115610b09565b610b55565b611310565b9061132e565b91610b6f565b90611398565b15610bd457565b60405162461bcd60e51b815260206004820152600b60248201526a456d70747920617272617960a81b6044820152606490fd5b6108df6101d86101d89290565b9190610c37610c21845190565b610c31610c2d5f610755565b9190565b11610bcd565b610c405f610c07565b60ff821603610cbe575090610c64610c60610c5a5f610755565b836107e0565b5190565b9060018091610c736001610755565b925b610c80575b50505090565b909192610c8e6101d8835190565b841015610cb857610ca9610cb0916109f0610c6087866107e0565b9360010190565b919081610c75565b92610c7a565b600190610cd5610cce6001610c07565b9160ff1690565b03610d5457610cef610c60610ce95f610755565b856107e0565b9080610cfb6001610755565b915b610d18575b5050610bc7610d136101d893945190565b610b6f565b9091610d256101d8865190565b831015610d4e57610d40610d47916109f0610c6086896107e0565b9260010190565b9080610cfd565b91610d02565b60405162461bcd60e51b815260206004820152601160248201527024b73b30b634b21037b832b930ba34b7b760791b6044820152606490fd5b610d956109ab565b339081906001600160a01b031603610daa5750565b610a9690610db760405190565b63118cdaa760e01b8152918291600483016001600160a01b03909116815260200190565b610de36113ee565b61013f610e15565b9060ff905b9181191691161790565b90610e0a6101d8610e1192151590565b8254610deb565b9055565b610e205f6002610dfa565b7f5db9ee0a495bf2e6ff9c91a7834c1ba4fdd244a5e8aa4e537bd38aeae4b073aa610e4a33610472565b0390a1565b61013f610ddb565b906001600160a01b0390610df0565b90610e766101d8610e11926108b5565b8254610e57565b610ea1610e9b610e8c5f6109a1565b610e96845f610e66565b6108b5565b916108b5565b907f8be0079c531659141344cd1fd0a4f28419497f9722a3daafe3b4186f6b6457e0610ecc60405190565b5f90a3565b6101d89190610ef6610ee3838361126c565b92610ef0610bb65f610b6f565b92611411565b916112da565b610f0461147b565b61013f610f1360016002610dfa565b7f62e78cea01bee320cd4e420270b5ea74000d11b0c9f74754ebdbfc544b05a258610e4a33610472565b61013f610efc565b6101d8919061132e565b610f6e610f676101d893610f605f90565b508361149b565b918261126c565b610f7b63ffffffff611310565b906112da565b6101d8612711610755565b15610f9357565b60405162461bcd60e51b815260206004820152601060248201526f4469766973696f6e206279207a65726f60801b6044820152606490fd5b6101d89190610fe9610fdc5f610b6f565b63ffffffff841611610f8c565b611398565b6101d890610ffb5f610b6f565b90610f7b61101f61101461100e85611310565b84611505565b92610bc76002610b6f565b92611310565b6101d89190610af0828261156f565b9050519061013f82610129565b90602082820312610125576101d891611034565b5f5b8381106110665750505f910152565b8181015183820152602001611057565b6110976110a06020936106709361108b815190565b80835293849260200190565b95869101611055565b601f01601f191690565b634e487b7160e01b5f52602160045260245ffd5b605411156110c857565b6110aa565b9061013f826110be565b6101d8906110cd565b6101db906110d7565b94939160609161013f946111186111259361110860808b01945f8c0152565b6001600160a01b031660208a0152565b8782036040890152611076565b9401906110e0565b6040513d5f823e3d90fd5b6111ac9193926020916111485f90565b505f80516020611a12833981519152955f611186610e96807f9e7b61f58c47dc699ac88507c4f5bb9f121c03808c5676a8078fe583e46497016109a1565b9261119060405190565b9687958694859363196d0b9b60e01b85523390600486016110e9565b03925af1908115611238575f9161123d575b506111d1610e96610e965f8496016109a1565b803b15610125576112105f929183926111e960405190565b630f8e573b60e21b8152600481019190915233602482015293849283919082906044820190565b03925af18015611238576112215750565b61013f905f611230818361061a565b81019061034a565b61112d565b61125f915060203d602011611265575b611257818361061a565b810190611041565b5f6111be565b503d61124d565b5f6101d8926101d89261127c5f90565b5061128d611289826115d9565b1590565b6112c8575b61129e611289836115d9565b6112ab575b905b90611638565b90506112a5610c2d6112bf610bb685610b6f565b929150506112a3565b506112d5610bb683610b6f565b611292565b906101d8926112f7610c2d6112f36101d895610ad85f90565b9390565b916116f9565b6101d86101d86101d89263ffffffff1690565b6101d860046113296101d8936113235f90565b506112fd565b611760565b5f6101d8926101d89261133e5f90565b5061134b611289826115d9565b611386575b61135c611289836115d9565b611369575b905b906117ad565b9050611363610c2d61137d610bb685610b6f565b92915050611361565b50611393610bb683610b6f565b611350565b6101d8916101d8916113ac611289826115d9565b6113cf575b6113c46113be6113c99290565b926112fd565b610755565b90611818565b506113c96113c46113be6113e5610bb65f610b6f565b925050506113b1565b6113f9611289610913565b6113ff57565b604051638dfc202b60e01b8152600490fd5b5f6101d8926101d8926114215f90565b5061142e611289826115d9565b611469575b61143f611289836115d9565b61144c575b905b90611865565b9050611446610c2d611460610bb685610b6f565b92915050611444565b50611476610bb683610b6f565b611433565b611483610913565b61148957565b60405163d93c066560e01b8152600490fd5b5f6101d8926101d8926114ab5f90565b506114b8611289826115d9565b6114f3575b6114c9611289836115d9565b6114d6575b905b906118d0565b90506114d0610c2d6114ea610bb685610b6f565b929150506114ce565b50611500610bb683610b6f565b6114bd565b5f6101d8926101d8926115155f90565b50611522611289826115d9565b61155d575b611533611289836115d9565b611540575b905b9061193b565b905061153a610c2d611554610bb685610b6f565b92915050611538565b5061156a610bb683610b6f565b611527565b5f6101d8926101d89261157f5f90565b5061158c611289826115d9565b6115c7575b61159d611289836115d9565b6115aa575b905b906119a6565b90506115a4610c2d6115be610bb685610b6f565b929150506115a2565b506115d4610bb683610b6f565b611591565b6115e5610c2d5f610755565b141590565b6115fd6115f76101d89290565b60f81b90565b6001600160f81b03191690565b90815260608101939261013f929091604091611628905b6020830152565b01906001600160f81b0319169052565b9060209161169d936116475f90565b50156116cb5761165760016115ea565b915b5f611678610e968060015f80516020611a128339815191525b016109a1565b9261168260405190565b96879586948593637210768160e01b5b85526004850161160a565b03925af1908115611238575f916116b2575090565b6101d8915060203d60201161126557611257818361061a565b6116d45f6115ea565b91611659565b90815260608101939261013f9290916040916116f590611621565b0152565b9161169d926020926117085f90565b505f611726610e968060015f80516020611a12833981519152611672565b9261173060405190565b96879586948593637702dcff60e01b8552600485016116da565b90815260408101929161013f91602001906110e0565b61169d91602091611783610e968060015f80516020611a12833981519152611672565b905f61178e60405190565b8096819582946117a2639cd07acb60e01b90565b84526004840161174a565b9060209161169d936117bc5f90565b5015611809576117cc60016115ea565b915b5f6117eb610e968060015f80516020611a12833981519152611672565b926117f560405190565b96879586948593630afe14ad60e31b611692565b6118125f6115ea565b916117ce565b61169d9160209161182960016115ea565b915f611847610e968060015f80516020611a12833981519152611672565b9261185160405190565b96879586948593635a53accb60e01b611692565b9060209161169d936118745f90565b50156118c15761188460016115ea565b915b5f6118a3610e968060015f80516020611a12833981519152611672565b926118ad60405190565b968795869485936303056db360e31b611692565b6118ca5f6115ea565b91611886565b9060209161169d936118df5f90565b501561192c576118ef60016115ea565b915b5f61190e610e968060015f80516020611a12833981519152611672565b9261191860405190565b9687958694859363022f65e760e31b611692565b6119355f6115ea565b916118f1565b9060209161169d9361194a5f90565b50156119975761195a60016115ea565b915b5f611979610e968060015f80516020611a12833981519152611672565b9261198360405190565b9687958694859363f77f3f1d60e01b611692565b6119a05f6115ea565b9161195c565b9060209161169d936119b55f90565b5015611a02576119c560016115ea565b915b5f6119e4610e968060015f80516020611a12833981519152611672565b926119ee60405190565b968795869485936385362ee760e01b611692565b611a0b5f6115ea565b916119c756fe9e7b61f58c47dc699ac88507c4f5bb9f121c03808c5676a8078fe583e4649700a2646970667358221220a28e501586380469c03dc972a7b414bc4e2aa7fda6489aa98c991eba3e23c54964736f6c63430008180033",
  "linkReferences": {},
  "deployedLinkReferences": {}
}