{
  "_format": "hh-sol-artifact-1",
  "contractName": "FHEProjectRegistry",
  "sourceName": "src/FHEProjectRegistry.sol",
  "abi": [
    {
      "inputs": [],
      "stateMutability": "nonpayable",
      "type": "constructor"
    },
    {
      "inputs": [],
      "name": "EnforcedPause",
      "type": "error"
    },
    {
      "inputs": [],
      "name": "ExpectedPause",
      "type": "error"
    },
    {
      "inputs": [
        {
          "internalType": "address",
          "name": "owner",
          "type": "address"
        }
      ],
      "name": "OwnableInvalidOwner",
      "type": "error"
    },
    {
      "inputs": [
        {
          "internalType": "address",
          "name": "account",
          "type": "address"
        }
      ],
      "name": "OwnableUnauthorizedAccount",
      "type": "error"
    },
    {
      "inputs": [],
      "name": "ReentrancyGuardReentrantCall",
      "type": "error"
    },
    {
      "anonymous": false,
      "inputs": [
        {
          "indexed": true,
          "internalType": "address",
          "name": "user",
          "type": "address"
        },
        {
          "indexed": false,
          "internalType": "bytes32",
          "name": "credentialHash",
          "type": "bytes32"
        }
      ],
      "name": "CredentialUpdated",
      "type": "event"
    },
    {
      "anonymous": false,
      "inputs": [
        {
          "indexed": true,
          "internalType": "address",
          "name": "verifier",
          "type": "address"
        }
      ],
      "name": "CredentialVerifierSet",
      "type": "event"
    },
    {
      "anonymous": false,
      "inputs": [
        {
          "indexed": true,
          "internalType": "address",
          "name": "previousOwner",
          "type": "address"
        },
        {
          "indexed": true,
          "internalType": "address",
          "name": "newOwner",
          "type": "address"
        }
      ],
      "name": "OwnershipTransferred",
      "type": "event"
    },
    {
      "anonymous": false,
      "inputs": [
        {
          "indexed": false,
          "internalType": "address",
          "name": "account",
          "type": "address"
        }
      ],
      "name": "Paused",
      "type": "event"
    },
    {
      "anonymous": false,
      "inputs": [
        {
          "indexed": true,
          "internalType": "uint256",
          "name": "projectId",
          "type": "uint256"
        }
      ],
      "name": "ProjectDeactivated",
      "type": "event"
    },
    {
      "anonymous": false,
      "inputs": [
        {
          "indexed": true,
          "internalType": "uint256",
          "name": "projectId",
          "type": "uint256"
        },
        {
          "indexed": true,
          "internalType": "address",
          "name": "owner",
          "type": "address"
        },
        {
          "indexed": false,
          "internalType": "string",
          "name": "metadataURI",
          "type": "string"
        }
      ],
      "name": "ProjectRegistered",
      "type": "event"
    },
    {
      "anonymous": false,
      "inputs": [
        {
          "indexed": true,
          "internalType": "uint256",
          "name": "projectId",
          "type": "uint256"
        },
        {
          "indexed": false,
          "internalType": "string",
          "name": "metadataURI",
          "type": "string"
        }
      ],
      "name": "ProjectUpdated",
      "type": "event"
    },
    {
      "anonymous": false,
      "inputs": [
        {
          "indexed": true,
          "internalType": "uint256",
          "name": "projectId",
          "type": "uint256"
        },
        {
          "indexed": false,
          "internalType": "bool",
          "name": "verified",
          "type": "bool"
        }
      ],
      "name": "ProjectVerified",
      "type": "event"
    },
    {
      "anonymous": false,
      "inputs": [
        {
          "indexed": true,
          "internalType": "address",
          "name": "user",
          "type": "address"
        },
        {
          "indexed": true,
          "internalType": "bytes32",
          "name": "dataId",
          "type": "bytes32"
        }
      ],
      "name": "ReencryptionPermissionGranted",
      "type": "event"
    },
    {
      "anonymous": false,
      "inputs": [
        {
          "indexed": true,
          "internalType": "address",
          "name": "user",
          "type": "address"
        },
        {
          "indexed": true,
          "internalType": "bytes32",
          "name": "dataId",
          "type": "bytes32"
        }
      ],
      "name": "ReencryptionPermissionRevoked",
      "type": "event"
    },
    {
      "anonymous": false,
      "inputs": [
        {
          "indexed": false,
          "internalType": "address",
          "name": "account",
          "type": "address"
        }
      ],
      "name": "Unpaused",
      "type": "event"
    },
    {
      "inputs": [
        {
          "internalType": "uint256[]",
          "name": "projectIds",
          "type": "uint256[]"
        },
        {
          "internalType": "bool[]",
          "name": "verified",
          "type": "bool[]"
        }
      ],
      "name": "batchVerifyProjects",
      "outputs": [],
      "stateMutability": "nonpayable",
      "type": "function"
    },
    {
      "inputs": [],
      "name": "credentialVerifier",
      "outputs": [
        {
          "internalType": "address",
          "name": "",
          "type": "address"
        }
      ],
      "stateMutability": "view",
      "type": "function"
    },
    {
      "inputs": [
        {
          "internalType": "uint256",
          "name": "projectId",
          "type": "uint256"
        }
      ],
      "name": "deactivateProject",
      "outputs": [],
      "stateMutability": "nonpayable",
      "type": "function"
    },
    {
      "inputs": [],
      "name": "getActiveProjectCount",
      "outputs": [
        {
          "internalType": "uint256",
          "name": "count",
          "type": "uint256"
        }
      ],
      "stateMutability": "view",
      "type": "function"
    },
    {
      "inputs": [
        {
          "internalType": "address",
          "name": "owner",
          "type": "address"
        }
      ],
      "name": "getOwnerProjects",
      "outputs": [
        {
          "internalType": "uint256[]",
          "name": "",
          "type": "uint256[]"
        }
      ],
      "stateMutability": "view",
      "type": "function"
    },
    {
      "inputs": [
        {
          "internalType": "uint256",
          "name": "projectId",
          "type": "uint256"
        }
      ],
      "name": "getProject",
      "outputs": [
        {
          "internalType": "address",
          "name": "owner",
          "type": "address"
        },
        {
          "internalType": "string",
          "name": "metadataURI",
          "type": "string"
        },
        {
          "internalType": "bool",
          "name": "isActive",
          "type": "bool"
        },
        {
          "internalType": "bool",
          "name": "isVerified",
          "type": "bool"
        },
        {
          "internalType": "uint256",
          "name": "createdAt",
          "type": "uint256"
        }
      ],
      "stateMutability": "view",
      "type": "function"
    },
    {
      "inputs": [
        {
          "internalType": "address",
          "name": "user",
          "type": "address"
        },
        {
          "internalType": "bytes32",
          "name": "dataId",
          "type": "bytes32"
        }
      ],
      "name": "hasReencryptionPermission",
      "outputs": [
        {
          "internalType": "bool",
          "name": "",
          "type": "bool"
        }
      ],
      "stateMutability": "view",
      "type": "function"
    },
    {
      "inputs": [],
      "name": "minCredentialScore",
      "outputs": [
        {
          "internalType": "uint256",
          "name": "",
          "type": "uint256"
        }
      ],
      "stateMutability": "view",
      "type": "function"
    },
    {
      "inputs": [],
      "name": "nextProjectId",
      "outputs": [
        {
          "internalType": "uint256",
          "name": "",
          "type": "uint256"
        }
      ],
      "stateMutability": "view",
      "type": "function"
    },
    {
      "inputs": [],
      "name": "owner",
      "outputs": [
        {
          "internalType": "address",
          "name": "",
          "type": "address"
        }
      ],
      "stateMutability": "view",
      "type": "function"
    },
    {
      "inputs": [
        {
          "internalType": "address",
          "name": "",
          "type": "address"
        },
        {
          "internalType": "uint256",
          "name": "",
          "type": "uint256"
        }
      ],
      "name": "ownerProjects",
      "outputs": [
        {
          "internalType": "uint256",
          "name": "",
          "type": "uint256"
        }
      ],
      "stateMutability": "view",
      "type": "function"
    },
    {
      "inputs": [],
      "name": "pause",
      "outputs": [],
      "stateMutability": "nonpayable",
      "type": "function"
    },
    {
      "inputs": [],
      "name": "paused",
      "outputs": [
        {
          "internalType": "bool",
          "name": "",
          "type": "bool"
        }
      ],
      "stateMutability": "view",
      "type": "function"
    },
    {
      "inputs": [
        {
          "internalType": "uint256",
          "name": "",
          "type": "uint256"
        }
      ],
      "name": "projects",
      "outputs": [
        {
          "internalType": "uint256",
          "name": "id",
          "type": "uint256"
        },
        {
          "internalType": "address",
          "name": "owner",
          "type": "address"
        },
        {
          "internalType": "string",
          "name": "metadataURI",
          "type": "string"
        },
        {
          "internalType": "bool",
          "name": "isActive",
          "type": "bool"
        },
        {
          "internalType": "bool",
          "name": "isVerified",
          "type": "bool"
        },
        {
          "internalType": "uint256",
          "name": "createdAt",
          "type": "uint256"
        },
        {
          "internalType": "bytes32",
          "name": "credentialHash",
          "type": "bytes32"
        }
      ],
      "stateMutability": "view",
      "type": "function"
    },
    {
      "inputs": [],
      "name": "protocolId",
      "outputs": [
        {
          "internalType": "uint256",
          "name": "",
          "type": "uint256"
        }
      ],
      "stateMutability": "pure",
      "type": "function"
    },
    {
      "inputs": [
        {
          "internalType": "string",
          "name": "metadataURI",
          "type": "string"
        }
      ],
      "name": "registerProject",
      "outputs": [
        {
          "internalType": "uint256",
          "name": "projectId",
          "type": "uint256"
        }
      ],
      "stateMutability": "nonpayable",
      "type": "function"
    },
    {
      "inputs": [],
      "name": "renounceOwnership",
      "outputs": [],
      "stateMutability": "nonpayable",
      "type": "function"
    },
    {
      "inputs": [],
      "name": "requireCredentials",
      "outputs": [
        {
          "internalType": "bool",
          "name": "",
          "type": "bool"
        }
      ],
      "stateMutability": "view",
      "type": "function"
    },
    {
      "inputs": [
        {
          "internalType": "bool",
          "name": "required",
          "type": "bool"
        }
      ],
      "name": "setCredentialRequirement",
      "outputs": [],
      "stateMutability": "nonpayable",
      "type": "function"
    },
    {
      "inputs": [
        {
          "internalType": "address",
          "name": "verifier",
          "type": "address"
        }
      ],
      "name": "setCredentialVerifier",
      "outputs": [],
      "stateMutability": "nonpayable",
      "type": "function"
    },
    {
      "inputs": [
        {
          "internalType": "uint256",
          "name": "score",
          "type": "uint256"
        }
      ],
      "name": "setMinCredentialScore",
      "outputs": [],
      "stateMutability": "nonpayable",
      "type": "function"
    },
    {
      "inputs": [
        {
          "internalType": "address",
          "name": "newOwner",
          "type": "address"
        }
      ],
      "name": "transferOwnership",
      "outputs": [],
      "stateMutability": "nonpayable",
      "type": "function"
    },
    {
      "inputs": [],
      "name": "unpause",
      "outputs": [],
      "stateMutability": "nonpayable",
      "type": "function"
    },
    {
      "inputs": [
        {
          "internalType": "bytes32",
          "name": "credentialHash",
          "type": "bytes32"
        }
      ],
      "name": "updateCredential",
      "outputs": [],
      "stateMutability": "nonpayable",
      "type": "function"
    },
    {
      "inputs": [
        {
          "internalType": "uint256",
          "name": "projectId",
          "type": "uint256"
        },
        {
          "internalType": "string",
          "name": "metadataURI",
          "type": "string"
        }
      ],
      "name": "updateProjectMetadata",
      "outputs": [],
      "stateMutability": "nonpayable",
      "type": "function"
    },
    {
      "inputs": [
        {
          "internalType": "bytes32",
          "name": "",
          "type": "bytes32"
        }
      ],
      "name": "usedCredentials",
      "outputs": [
        {
          "internalType": "bool",
          "name": "",
          "type": "bool"
        }
      ],
      "stateMutability": "view",
      "type": "function"
    },
    {
      "inputs": [
        {
          "internalType": "address",
          "name": "",
          "type": "address"
        }
      ],
      "name": "userCredentials",
      "outputs": [
        {
          "internalType": "bytes32",
          "name": "",
          "type": "bytes32"
        }
      ],
      "stateMutability": "view",
      "type": "function"
    },
    {
      "inputs": [
        {
          "internalType": "address",
          "name": "user",
          "type": "address"
        }
      ],
      "name": "verifyCredential",
      "outputs": [
        {
          "internalType": "bool",
          "name": "",
          "type": "bool"
        }
      ],
      "stateMutability": "view",
      "type": "function"
    },
    {
      "inputs": [
        {
          "internalType": "uint256",
          "name": "projectId",
          "type": "uint256"
        },
        {
          "internalType": "bool",
          "name": "verified",
          "type": "bool"
        }
      ],
      "name": "verifyProject",
      "outputs": [],
      "stateMutability": "nonpayable",
      "type": "function"
    }
  ],
  "bytecode": "0x60806040523462000026576200001462000097565b604051611c41620004888239611c4190f35b5f80fd5b6200003a6200003a6200003a9290565b90565b905f19905b9181191691161790565b90620000606200003a62000068926200002a565b82546200003d565b9055565b9060ff9062000042565b151590565b906200008f6200003a620000689262000076565b82546200006c565b620000a1620000e0565b620000b9620000b160016200002a565b60046200004c565b620000c65f600b6200007b565b620000de620000d660326200002a565b600a6200004c565b565b620000de620000ef3362000103565b620000de620000fd62000279565b62000318565b620000de906200011a565b6200003a60016200002a565b620001259062000183565b620000de620001336200010e565b60016200004c565b6200014b6200003a6200003a9290565b6001600160a01b031690565b6200003a906200013b565b6200016d906200014b565b9052565b602081019291620000de919062000162565b6200018e5f62000157565b62000199816200014b565b620001a4836200014b565b14620001b65750620000de9062000392565b620001dc90620001c560405190565b631e4fbdf760e01b81529182916004830162000171565b0390fd5b634e487b7160e01b5f52604160045260245ffd5b90601f01601f191681019081106001600160401b038211176200021657604052565b620001e0565b90620000de6200022b60405190565b9283620001f4565b6200003a60806200021c565b6200024962000233565b5f8082526020820181905260408201819052606082015290565b6200003a6200023f565b906200016d906200014b565b6200028362000263565b5073a02cda4ca3a71d7c46997716f4283aa851c28812620002f5620002a762000233565b91620002c873687820221192c5b662b25367f70076a37bc79b6c846200026d565b620002eb73848b0066793bcc60346da1f49049357399b8d595602085016200026d565b604083016200026d565b6200003a731364cbbf2cdf5032c47d8226a6f6fbd2afcdacac606083016200026d565b620000de90620003fb565b6200003a906200014b565b6200003a905462000323565b906001600160a01b039062000042565b6200003a906200014b906001600160a01b031682565b6200003a906200034a565b6200003a9062000360565b906200038a6200003a62000068926200036b565b82546200033a565b620003be620003b7620003a55f6200032e565b620003b1845f62000376565b6200036b565b916200036b565b907f8be0079c531659141344cd1fd0a4f28419497f9722a3daafe3b4186f6b6457e0620003ea60405190565b5f90a3565b6200003a90516200014b565b620000de9060036200047f60607f9e7b61f58c47dc699ac88507c4f5bb9f121c03808c5676a8078fe583e464970093620004406200043982620003ef565b8662000376565b6200045c6200045260208301620003ef565b6001870162000376565b620004786200046e60408301620003ef565b6002870162000376565b01620003ef565b91016200037656fe60806040526004361015610011575f80fd5b5f3560e01c80630f5becd7146101e0578063107046bd146101db578063246f220b146101d65780632ed27c59146101d15780633f4ba83a146101cc578063436e6958146101c757806359408948146101c25780635c975abb146101bd5780635e0bb3f1146101b857806370dd0dbc146101b3578063715018a6146101ae57806372212ec7146101a957806377dde526146101a45780637f3e8a021461019f5780638456cb591461019a5780638da5cb5b14610195578063914a769c1461019057806391546c341461018b5780639b351fcc146101865780639c1a1f9b14610181578063b1af8dc31461017c578063b750b8b914610177578063d9f1250314610172578063da1f12ab1461016d578063e683661714610168578063e935b7b114610163578063f0f3f2c81461015e578063f2e6e82a146101595763f2fde38b036101e557610bc5565b610ba9565b610afe565b610a94565b610a70565b610a32565b610a17565b6109dc565b6109c1565b6109a6565b61097a565b610938565b6108e7565b6108a7565b61088f565b610877565b61085b565b610788565b610716565b6106fb565b6106e0565b6106ba565b61069e565b610663565b61064b565b610613565b6105ba565b610520565b61022d565b5f80fd5b6001600160a01b031690565b90565b6001600160a01b0381165b036101e557565b90503590610217826101f8565b565b906020828203126101e5576101f59161020a565b346101e557610245610240366004610219565b610c64565b604051005b0390f35b80610203565b905035906102178261024e565b906020828203126101e5576101f591610254565b6101f56101f56101f59290565b9061028c90610275565b5f5260205260405f2090565b6101f59081565b6101f59054610298565b634e487b7160e01b5f52602260045260245ffd5b90600160028304921680156102dd575b60208310146102d857565b6102a9565b91607f16916102cd565b80545f9392916103036102f9836102bd565b8085529360200190565b9160018116908115610352575060011461031c57505050565b61032d91929394505f5260205f2090565b915f925b81841061033e5750500190565b805484840152602090930192600101610331565b92949550505060ff1916825215156020020190565b906101f5916102e7565b634e487b7160e01b5f52604160045260245ffd5b90601f01601f1916810190811067ffffffffffffffff8211176103a757604052565b610371565b906102176103c6926103bd60405190565b93848092610367565b0383610385565b6101f5905b60ff1690565b6101f590546103cd565b6101f59060081c6103d2565b6101f590546103e2565b610403906005610282565b61040c8161029f565b9161042160018301546001600160a01b031690565b9161042e600282016103ac565b9161043b600383016103d8565b91610448600382016103ee565b916101f5600561045a6004850161029f565b930161029f565b5f5b8381106104725750505f910152565b8181015183820152602001610463565b6104a36104ac6020936104b693610497815190565b80835293849260200190565b95869101610461565b601f01601f191690565b0190565b9260c09498979561050c6105026102179994610515946104f561051c986104e560e08c01945f8d0152565b6001600160a01b031660208b0152565b88820360408a0152610482565b9a15156060870152565b15156080850152565b60a0830152565b0152565b346101e55761024a61053b610536366004610261565b6103f8565b9361054b97959793919360405190565b978897886104ba565b9061057461056d610563845190565b8084529260200190565b9260200190565b905f5b8181106105845750505090565b9091926105a161059a6001928651815260200190565b9460200190565b929101610577565b60208082526101f592910190610554565b346101e55761024a6105d56105d0366004610219565b610cef565b604051918291826105a9565b9061028c565b6101f5916008021c6103d2565b906101f591546105e7565b5f61060e6101f59260086105e1565b6105f4565b346101e55761024a61062e610629366004610261565b6105ff565b6040515b91829182901515815260200190565b5f9103126101e557565b346101e55761065b366004610641565b610245610d1e565b346101e557610245610676366004610261565b610e9a565b91906040838203126101e5576101f5906020610697828661020a565b9401610254565b346101e55761024a61062e6106b436600461067b565b90610ea3565b346101e5576106ca366004610641565b61024a61062e610ec7565b6101f55f600b6105f4565b346101e5576106f0366004610641565b61024a61062e6106d5565b346101e55761024a61062e610711366004610219565b610ed1565b346101e557610726366004610641565b610245610f5b565b909182601f830112156101e55781359167ffffffffffffffff83116101e55760200192600183028401116101e557565b906020828203126101e557813567ffffffffffffffff81116101e557610784920161072e565b9091565b346101e55761024a6107a461079e36600461075e565b906113a0565b6040515b9182918290815260200190565b6101f5906101e9906001600160a01b031682565b6101f5906107b5565b6101f5906107c9565b9061028c906107d2565b634e487b7160e01b5f52603260045260245ffd5b8054821015610819576108116001915f5260205f2090565b910201905f90565b6107e5565b6101f5916008021c81565b906101f5915461081e565b61083f9060066107db565b80548210156101e5576101f591610855916107f9565b90610829565b346101e55761024a6107a461087136600461067b565b90610834565b346101e55761024561088a366004610261565b61151b565b346101e55761089f366004610641565b610245611537565b346101e5576108b7366004610641565b61024a6108c261153f565b604051918291826001600160a01b03909116815260200190565b6101f55f600a610829565b346101e5576108f7366004610641565b61024a6107a46108dc565b9190916040818403126101e5576109198382610254565b92602082013567ffffffffffffffff81116101e557610784920161072e565b346101e55761024561094b366004610902565b916116a9565b801515610203565b9050359061021782610951565b906020828203126101e5576101f591610959565b346101e55761024561098d366004610966565b6116cb565b5f6109a16101f59260076107db565b610829565b346101e55761024a6107a46109bc366004610219565b610992565b346101e5576109d1366004610641565b61024a6107a46116d4565b346101e5576102456109ef366004610261565b611750565b6101f5916008021c6101e9565b906101f591546109f4565b6101f55f6009610a01565b346101e557610a27366004610641565b61024a6108c2610a0c565b346101e557610a42366004610641565b61024a6107a4611759565b91906040838203126101e5576101f5906020610a698286610254565b9401610959565b346101e557610245610a83366004610a4d565b906117cf565b6101f55f6004610829565b346101e557610aa4366004610641565b61024a6107a4610a89565b9061021794610af5610aeb61051c936080969a99979a610ade60a08801925f8901906001600160a01b03169052565b8682036020880152610482565b9815156040850152565b15156060830152565b346101e55761024a610b19610b14366004610261565b61186f565b91610b2695939560405190565b95869586610aaf565b909182601f830112156101e55781359167ffffffffffffffff83116101e55760200192602083028401116101e557565b90916040828403126101e557813567ffffffffffffffff81116101e55783610b88918401610b2f565b929093602082013567ffffffffffffffff81116101e5576107849201610b2f565b346101e557610245610bbc366004610b5f565b92919091611a04565b346101e557610245610bd8366004610219565b611a79565b61021790610be9611a82565b610c1e565b906001600160a01b03905b9181191691161790565b90610c136101f5610c1a926107d2565b8254610bee565b9055565b610c3290610c2d816009610c03565b6107d2565b7f82449b6a3fca7ccac093d260b0f72dbc4bf7e34b0437b3213c8cf4e09cf302b1610c5c60405190565b80805b0390a2565b61021790610bdd565b90610c86610c7c610563845490565b925f5260205f2090565b905f5b818110610c965750505090565b909192610cba610cb3600192610cab8761029f565b815260200190565b9460010190565b929101610c89565b906101f591610c6d565b906102176103c692610cdd60405190565b93848092610cc2565b6101f590610ccc565b610d066101f591610cfe606090565b5060066107db565b610ce6565b610d13611a82565b610217610217611b13565b610217610d0b565b15610d2d57565b60405162461bcd60e51b8152602060048201526016602482015275141c9bda9958dd08191bd95cc81b9bdd08195e1a5cdd60521b6044820152606490fd5b0390fd5b61021790610da3610d8c6004610d86846005610282565b0161029f565b610d9c610d985f610275565b9190565b1415610d26565b610e05565b15610daf57565b60405162461bcd60e51b815260206004820152600e60248201526d139bdd08185d5d1a1bdc9a5e995960921b6044820152606490fd5b9060ff90610bf9565b90610dfe6101f5610c1a92151590565b8254610de5565b610e5890610e2a6101e96001610e1c846005610282565b01546001600160a01b031690565b33148015610e82575b610e3c90610da8565b610e535f6003610e4d846005610282565b01610dee565b610275565b7f32619b1c1bac9b073234f8ace80ba5659d4a461276966921ca62cc24a32c7ff3610c5c60405190565b50610e3c610e916101e961153f565b33149050610e33565b61021790610d6f565b6101f591610ebd610ec292610eb55f90565b5060036107db565b6105e1565b6103d8565b6101f560026103d8565b610ee2610ede600b6103d8565b1590565b610f1e57610ef4610ef99160076107db565b61029f565b610f056101f55f610275565b8114610f1957610ec26101f59160086105e1565b505f90565b50600190565b610f2c611a82565b610217610f4a565b6101e96101f56101f59290565b6101f590610f34565b610217610f565f610f41565b611b1b565b610217610f24565b906101f59291610f71611b74565b610fb7565b15610f7d57565b60405162461bcd60e51b8152602060048201526012602482015271125b9d985b1a590818dc9959195b9d1a585b60721b6044820152606490fd5b906101f59291610fc7600b6103d8565b1561127457610fdd610fd833610ed1565b610f76565b611274565b15610fe957565b60405162461bcd60e51b8152602060048201526012602482015271456d707479206d657461646174612055524960701b6044820152606490fd5b634e487b7160e01b5f52601160045260245ffd5b5f1981146110455760010190565b611023565b905f1990610bf9565b906110636101f5610c1a92610275565b825461104a565b915f1960089290920291821b911b610bf9565b919061108e6101f5610c1a93610275565b90835461106a565b610217915f9161107d565b8181106110ac575050565b806110b95f600193611096565b016110a1565b9190601f81116110ce57505050565b6110de610217935f5260205f2090565b906020601f840181900483019310611100575b6020601f9091010401906110a1565b90915081906110f1565b919067ffffffffffffffff82116103a75761112f8261112985546102bd565b856110bf565b5f90601f831160011461116757610c1a92915f918361115c575b50505f19600883021c1916906002021790565b013590505f80611149565b90601f1983169161117b855f5260205f2090565b925f5b8181106111b75750916002939185600196941061119f575b50505002019055565b01355f19601f84166008021c191690555f8080611196565b9293602060018192878601358155019501930161117e565b90610217929161110a565b9061ff009060081b610bf9565b906111f76101f5610c1a92151590565b82546111da565b906110636101f5610c1a9290565b90815491680100000000000000008310156103a75782611234916001610217950181556107f9565b9061107d565b90825f939282370152565b91906104ac8161125c816104b69560209181520190565b809561123a565b60208082526101f593910191611245565b5090919061129883611286565b905090565b611292610d985f610275565b11610fe2565b6112a2600461029f565b926112b66112af85611037565b6004611053565b7f1fb4423aed62bba3e66f7c81a4af273642c7e8c57d7b111ae2b1aca9887869ba61135a856112e96101f5826005610282565b6112f38282611053565b6113003360018301610c03565b61130e8587600284016111cf565b6113265f60038301611321600182610dee565b6111e7565b6113334260048301611053565b61133d600b6103d8565b61137f575b50610e53816113556101f53360066107db565b61120c565b91611364336107d2565b9361137a61137160405190565b92839283611263565b0390a3565b61139a906005611393610ef43360076107db565b91016111fe565b5f611342565b6101f591905f610f63565b610217906113b7611b74565b611454565b156113c357565b60405162461bcd60e51b815260206004820152601760248201527f496e76616c69642063726564656e7469616c20686173680000000000000000006044820152606490fd5b1561140f57565b60405162461bcd60e51b815260206004820152601760248201527f43726564656e7469616c20616c726561647920757365640000000000000000006044820152606490fd5b6114c560016114c0836114665f610275565b611472818314156113bc565b610ebd826114bb60089361149461148f610ede610ec286896105e1565b611408565b6007906114ae610d986114aa610ef433866107db565b9290565b036114fc575b33906107db565b6111fe565b610dee565b7f0122474816f57c046458131914c20160703e66f4ee4b6d2f0c5ae212a6e60d4c610c5f6114f2336107d2565b926107a860405190565b6115165f6114c0611510610ef433866107db565b886105e1565b6114b4565b610217906113ab565b61152c611a82565b610217610217611bd5565b610217611524565b5f546001600160a01b031690565b90610217929161155b611b74565b906102179291611574610d8c6004610d86846005610282565b6115b9565b1561158057565b60405162461bcd60e51b81526020600482015260116024820152702737ba10383937b532b1ba1037bbb732b960791b6044820152606490fd5b9061021792916115ea6115d26001610e1c846005610282565b6115e4335b916001600160a01b031690565b14611579565b611631565b156115f657565b60405162461bcd60e51b815260206004820152601360248201527250726f6a65637420697320696e61637469766560681b6044820152606490fd5b9161169c7fd59ff490e419b5a72d916db4f77bc918cb64099584e8605b5a5aa543eacc0c079293611666611286611281858891565b61168461167f6003611679846005610282565b016103d8565b6115ef565b610e5383866002611696856005610282565b016111cf565b92610c5f61137160405190565b90610217929161154d565b610217906116c0611a82565b61021790600b610dee565b610217906116b4565b5f906001806116e36001610275565b905b6116ed575050565b6116fa6101f5600461029f565b811015611735576117116003611679836005610282565b611720575b6001015b816116e5565b9261172d61171a91611037565b939050611716565b5050565b61021790611745611a82565b61021790600a611053565b61021790611739565b6101f5611bdd565b906102179161176e611a82565b9061021791611786610d8c6004610d86846005610282565b610c5f6117c57fbc17288f3f8c4919b6e4ee68624582c29d4ce2188a0e8a9175d0470f9a053c5792610e538560036117bf846005610282565b016111e7565b9261063260405190565b9061021791611761565b906117fa95949392916117f5610d8c6004610d86896005610282565b61180a565b9091929394565b6101f5906103ac565b50611821946101f594509250600591506102829050565b9061183660018301546001600160a01b031690565b9160028101926003820192611869611862600461185b611855886103d8565b976103ee565b950161029f565b9295611801565b93929190565b6117fa905f80806060816117d9565b9061021793929161188d611a82565b6118fa565b1561189957565b60405162461bcd60e51b8152602060048201526015602482015274082e4e4c2f240d8cadccee8d040dad2e6dac2e8c6d605b1b6044820152606490fd5b9190811015610819576020020190565b356101f58161024e565b356101f581610951565b929392819361190a868614611892565b6119135f610275565b855b8110156119fb576119698186611915938a8888600561194b6004610d866119456119408988886118d6565b6118e6565b84610282565b611957610d985f610275565b03611970575b50505050505060010190565b9050611913565b84846119e1611940836117c5976119e7976119dc6119c29860038f7fbc17288f3f8c4919b6e4ee68624582c29d4ce2188a0e8a9175d0470f9a053c579f6119ed9f6119c7916119c2916117bf946118d6565b6118f0565b926119d66119408989896118d6565b90610282565b6118d6565b976118d6565b93610275565b0390a286818a88885f61195d565b50945050505050565b9061021793929161187e565b61021790611a1c611a82565b611a255f610f41565b6001600160a01b0381166001600160a01b03831614611a48575061021790611b1b565b610d6b90611a5560405190565b631e4fbdf760e01b8152918291600483016001600160a01b03909116815260200190565b61021790611a10565b611a8a61153f565b3390611a95826115d7565b03611a9d5750565b610d6b90611aaa60405190565b63118cdaa760e01b8152918291600483016001600160a01b03909116815260200190565b611ad6611be8565b610217611ae45f6002610dee565b7f5db9ee0a495bf2e6ff9c91a7834c1ba4fdd244a5e8aa4e537bd38aeae4b073aa611b0e336108c2565b0390a1565b610217611ace565b611b42611b3c611b325f546001600160a01b031690565b610c2d845f610c03565b916107d2565b907f8be0079c531659141344cd1fd0a4f28419497f9722a3daafe3b4186f6b6457e0611b6d60405190565b808061137a565b611b7c610ec7565b611b8257565b60405163d93c066560e01b8152600490fd5b611b9c611b74565b610217611bab60016002610dee565b7f62e78cea01bee320cd4e420270b5ea74000d11b0c9f74754ebdbfc544b05a258611b0e336108c2565b610217611b94565b6101f5612711610275565b611bf3610ede610ec7565b611bf957565b604051638dfc202b60e01b8152600490fdfea2646970667358221220afd247495845792bc7550703df1e8dd1cab5f2048281f295362c065085dd4cb064736f6c63430008180033",
  "linkReferences": {},
  "deployedLinkReferences": {}
}