{
  "_format": "hh-sol-artifact-1",
  "contractName": "FHEMatchingPool",
  "sourceName": "src/FHEMatchingPool.sol",
  "abi": [
    {
      "inputs": [
        {
          "internalType": "address",
          "name": "_donationToken",
          "type": "address"
        }
      ],
      "stateMutability": "nonpayable",
      "type": "constructor"
    },
    {
      "inputs": [],
      "name": "EnforcedPause",
      "type": "error"
    },
    {
      "inputs": [],
      "name": "ExpectedPause",
      "type": "error"
    },
    {
      "inputs": [
        {
          "internalType": "address",
          "name": "owner",
          "type": "address"
        }
      ],
      "name": "OwnableInvalidOwner",
      "type": "error"
    },
    {
      "inputs": [
        {
          "internalType": "address",
          "name": "account",
          "type": "address"
        }
      ],
      "name": "OwnableUnauthorizedAccount",
      "type": "error"
    },
    {
      "inputs": [],
      "name": "ReentrancyGuardReentrantCall",
      "type": "error"
    },
    {
      "inputs": [
        {
          "internalType": "address",
          "name": "token",
          "type": "address"
        }
      ],
      "name": "SafeERC20FailedOperation",
      "type": "error"
    },
    {
      "anonymous": false,
      "inputs": [
        {
          "indexed": true,
          "internalType": "uint256",
          "name": "roundId",
          "type": "uint256"
        },
        {
          "indexed": true,
          "internalType": "uint256",
          "name": "projectId",
          "type": "uint256"
        },
        {
          "indexed": false,
          "internalType": "address",
          "name": "recipient",
          "type": "address"
        }
      ],
      "name": "DistributionCreated",
      "type": "event"
    },
    {
      "anonymous": false,
      "inputs": [
        {
          "indexed": true,
          "internalType": "uint256",
          "name": "roundId",
          "type": "uint256"
        },
        {
          "indexed": true,
          "internalType": "uint256",
          "name": "projectId",
          "type": "uint256"
        },
        {
          "indexed": true,
          "internalType": "address",
          "name": "recipient",
          "type": "address"
        }
      ],
      "name": "MatchingClaimed",
      "type": "event"
    },
    {
      "anonymous": false,
      "inputs": [
        {
          "indexed": true,
          "internalType": "address",
          "name": "previousOwner",
          "type": "address"
        },
        {
          "indexed": true,
          "internalType": "address",
          "name": "newOwner",
          "type": "address"
        }
      ],
      "name": "OwnershipTransferred",
      "type": "event"
    },
    {
      "anonymous": false,
      "inputs": [
        {
          "indexed": false,
          "internalType": "address",
          "name": "account",
          "type": "address"
        }
      ],
      "name": "Paused",
      "type": "event"
    },
    {
      "anonymous": false,
      "inputs": [
        {
          "indexed": true,
          "internalType": "uint256",
          "name": "roundId",
          "type": "uint256"
        },
        {
          "indexed": true,
          "internalType": "address",
          "name": "contributor",
          "type": "address"
        },
        {
          "indexed": false,
          "internalType": "uint256",
          "name": "timestamp",
          "type": "uint256"
        }
      ],
      "name": "PoolContribution",
      "type": "event"
    },
    {
      "anonymous": false,
      "inputs": [
        {
          "indexed": true,
          "internalType": "address",
          "name": "user",
          "type": "address"
        },
        {
          "indexed": true,
          "internalType": "bytes32",
          "name": "dataId",
          "type": "bytes32"
        }
      ],
      "name": "ReencryptionPermissionGranted",
      "type": "event"
    },
    {
      "anonymous": false,
      "inputs": [
        {
          "indexed": true,
          "internalType": "address",
          "name": "user",
          "type": "address"
        },
        {
          "indexed": true,
          "internalType": "bytes32",
          "name": "dataId",
          "type": "bytes32"
        }
      ],
      "name": "ReencryptionPermissionRevoked",
      "type": "event"
    },
    {
      "anonymous": false,
      "inputs": [
        {
          "indexed": true,
          "internalType": "uint256",
          "name": "roundId",
          "type": "uint256"
        },
        {
          "indexed": true,
          "internalType": "uint256",
          "name": "projectId",
          "type": "uint256"
        },
        {
          "indexed": false,
          "internalType": "address",
          "name": "requester",
          "type": "address"
        }
      ],
      "name": "RevealRequested",
      "type": "event"
    },
    {
      "anonymous": false,
      "inputs": [
        {
          "indexed": true,
          "internalType": "uint256",
          "name": "streamId",
          "type": "uint256"
        }
      ],
      "name": "StreamCancelled",
      "type": "event"
    },
    {
      "anonymous": false,
      "inputs": [
        {
          "indexed": true,
          "internalType": "uint256",
          "name": "streamId",
          "type": "uint256"
        },
        {
          "indexed": true,
          "internalType": "address",
          "name": "sender",
          "type": "address"
        },
        {
          "indexed": true,
          "internalType": "uint256",
          "name": "projectId",
          "type": "uint256"
        }
      ],
      "name": "StreamCreated",
      "type": "event"
    },
    {
      "anonymous": false,
      "inputs": [
        {
          "indexed": true,
          "internalType": "uint256",
          "name": "streamId",
          "type": "uint256"
        },
        {
          "indexed": false,
          "internalType": "uint256",
          "name": "totalStreamed",
          "type": "uint256"
        }
      ],
      "name": "StreamUpdated",
      "type": "event"
    },
    {
      "anonymous": false,
      "inputs": [
        {
          "indexed": false,
          "internalType": "address",
          "name": "account",
          "type": "address"
        }
      ],
      "name": "Unpaused",
      "type": "event"
    },
    {
      "inputs": [
        {
          "internalType": "uint256[]",
          "name": "streamIds",
          "type": "uint256[]"
        }
      ],
      "name": "batchUpdateStreams",
      "outputs": [],
      "stateMutability": "nonpayable",
      "type": "function"
    },
    {
      "inputs": [
        {
          "internalType": "uint256",
          "name": "streamId",
          "type": "uint256"
        }
      ],
      "name": "cancelStream",
      "outputs": [],
      "stateMutability": "nonpayable",
      "type": "function"
    },
    {
      "inputs": [],
      "name": "claimDeadline",
      "outputs": [
        {
          "internalType": "uint256",
          "name": "",
          "type": "uint256"
        }
      ],
      "stateMutability": "view",
      "type": "function"
    },
    {
      "inputs": [
        {
          "internalType": "uint256",
          "name": "roundId",
          "type": "uint256"
        },
        {
          "internalType": "uint256",
          "name": "projectId",
          "type": "uint256"
        },
        {
          "internalType": "uint32",
          "name": "decryptedAmount",
          "type": "uint32"
        }
      ],
      "name": "claimMatching",
      "outputs": [],
      "stateMutability": "nonpayable",
      "type": "function"
    },
    {
      "inputs": [
        {
          "internalType": "uint256",
          "name": "roundId",
          "type": "uint256"
        },
        {
          "internalType": "externalEuint32",
          "name": "encryptedAmountHandle",
          "type": "bytes32"
        },
        {
          "internalType": "bytes",
          "name": "inputProof",
          "type": "bytes"
        }
      ],
      "name": "contributeToPool",
      "outputs": [],
      "stateMutability": "nonpayable",
      "type": "function"
    },
    {
      "inputs": [
        {
          "internalType": "uint256",
          "name": "",
          "type": "uint256"
        },
        {
          "internalType": "address",
          "name": "",
          "type": "address"
        }
      ],
      "name": "contributorIndex",
      "outputs": [
        {
          "internalType": "uint256",
          "name": "",
          "type": "uint256"
        }
      ],
      "stateMutability": "view",
      "type": "function"
    },
    {
      "inputs": [
        {
          "internalType": "uint256",
          "name": "roundId",
          "type": "uint256"
        },
        {
          "internalType": "uint256",
          "name": "projectId",
          "type": "uint256"
        },
        {
          "internalType": "externalEuint32",
          "name": "encryptedAmountHandle",
          "type": "bytes32"
        },
        {
          "internalType": "bytes",
          "name": "inputProof",
          "type": "bytes"
        },
        {
          "internalType": "address",
          "name": "recipient",
          "type": "address"
        }
      ],
      "name": "createDistribution",
      "outputs": [],
      "stateMutability": "nonpayable",
      "type": "function"
    },
    {
      "inputs": [
        {
          "internalType": "uint256",
          "name": "projectId",
          "type": "uint256"
        },
        {
          "internalType": "externalEuint32",
          "name": "encryptedRateHandle",
          "type": "bytes32"
        },
        {
          "internalType": "bytes",
          "name": "inputProof",
          "type": "bytes"
        },
        {
          "internalType": "uint256",
          "name": "duration",
          "type": "uint256"
        }
      ],
      "name": "createStream",
      "outputs": [
        {
          "internalType": "uint256",
          "name": "streamId",
          "type": "uint256"
        }
      ],
      "stateMutability": "nonpayable",
      "type": "function"
    },
    {
      "inputs": [
        {
          "internalType": "uint256",
          "name": "",
          "type": "uint256"
        },
        {
          "internalType": "uint256",
          "name": "",
          "type": "uint256"
        }
      ],
      "name": "distributions",
      "outputs": [
        {
          "internalType": "uint256",
          "name": "roundId",
          "type": "uint256"
        },
        {
          "internalType": "uint256",
          "name": "projectId",
          "type": "uint256"
        },
        {
          "internalType": "euint32",
          "name": "amount",
          "type": "bytes32"
        },
        {
          "internalType": "address",
          "name": "recipient",
          "type": "address"
        },
        {
          "internalType": "bool",
          "name": "claimed",
          "type": "bool"
        },
        {
          "internalType": "uint256",
          "name": "claimTime",
          "type": "uint256"
        }
      ],
      "stateMutability": "view",
      "type": "function"
    },
    {
      "inputs": [],
      "name": "donationToken",
      "outputs": [
        {
          "internalType": "contract IERC20",
          "name": "",
          "type": "address"
        }
      ],
      "stateMutability": "view",
      "type": "function"
    },
    {
      "inputs": [
        {
          "internalType": "address",
          "name": "token",
          "type": "address"
        },
        {
          "internalType": "uint256",
          "name": "amount",
          "type": "uint256"
        }
      ],
      "name": "emergencyWithdraw",
      "outputs": [],
      "stateMutability": "nonpayable",
      "type": "function"
    },
    {
      "inputs": [
        {
          "internalType": "address",
          "name": "",
          "type": "address"
        }
      ],
      "name": "encryptedBalances",
      "outputs": [
        {
          "internalType": "euint32",
          "name": "",
          "type": "bytes32"
        }
      ],
      "stateMutability": "view",
      "type": "function"
    },
    {
      "inputs": [
        {
          "internalType": "uint256",
          "name": "roundId",
          "type": "uint256"
        }
      ],
      "name": "getPoolStats",
      "outputs": [
        {
          "internalType": "uint256",
          "name": "totalContributors",
          "type": "uint256"
        },
        {
          "internalType": "euint32",
          "name": "poolSize",
          "type": "bytes32"
        }
      ],
      "stateMutability": "view",
      "type": "function"
    },
    {
      "inputs": [
        {
          "internalType": "uint256",
          "name": "streamId",
          "type": "uint256"
        }
      ],
      "name": "getStreamInfo",
      "outputs": [
        {
          "internalType": "address",
          "name": "sender",
          "type": "address"
        },
        {
          "internalType": "uint256",
          "name": "projectId",
          "type": "uint256"
        },
        {
          "internalType": "uint256",
          "name": "startTime",
          "type": "uint256"
        },
        {
          "internalType": "uint256",
          "name": "endTime",
          "type": "uint256"
        },
        {
          "internalType": "bool",
          "name": "isActive",
          "type": "bool"
        }
      ],
      "stateMutability": "view",
      "type": "function"
    },
    {
      "inputs": [
        {
          "internalType": "address",
          "name": "user",
          "type": "address"
        },
        {
          "internalType": "bytes32",
          "name": "dataId",
          "type": "bytes32"
        }
      ],
      "name": "hasReencryptionPermission",
      "outputs": [
        {
          "internalType": "bool",
          "name": "",
          "type": "bool"
        }
      ],
      "stateMutability": "view",
      "type": "function"
    },
    {
      "inputs": [],
      "name": "maxStreamDuration",
      "outputs": [
        {
          "internalType": "uint256",
          "name": "",
          "type": "uint256"
        }
      ],
      "stateMutability": "view",
      "type": "function"
    },
    {
      "inputs": [],
      "name": "minStreamDuration",
      "outputs": [
        {
          "internalType": "uint256",
          "name": "",
          "type": "uint256"
        }
      ],
      "stateMutability": "view",
      "type": "function"
    },
    {
      "inputs": [],
      "name": "nextStreamId",
      "outputs": [
        {
          "internalType": "uint256",
          "name": "",
          "type": "uint256"
        }
      ],
      "stateMutability": "view",
      "type": "function"
    },
    {
      "inputs": [],
      "name": "owner",
      "outputs": [
        {
          "internalType": "address",
          "name": "",
          "type": "address"
        }
      ],
      "stateMutability": "view",
      "type": "function"
    },
    {
      "inputs": [],
      "name": "pause",
      "outputs": [],
      "stateMutability": "nonpayable",
      "type": "function"
    },
    {
      "inputs": [],
      "name": "paused",
      "outputs": [
        {
          "internalType": "bool",
          "name": "",
          "type": "bool"
        }
      ],
      "stateMutability": "view",
      "type": "function"
    },
    {
      "inputs": [],
      "name": "protocolId",
      "outputs": [
        {
          "internalType": "uint256",
          "name": "",
          "type": "uint256"
        }
      ],
      "stateMutability": "pure",
      "type": "function"
    },
    {
      "inputs": [],
      "name": "renounceOwnership",
      "outputs": [],
      "stateMutability": "nonpayable",
      "type": "function"
    },
    {
      "inputs": [
        {
          "internalType": "uint256",
          "name": "roundId",
          "type": "uint256"
        },
        {
          "internalType": "uint256",
          "name": "projectId",
          "type": "uint256"
        }
      ],
      "name": "requestReveal",
      "outputs": [],
      "stateMutability": "nonpayable",
      "type": "function"
    },
    {
      "inputs": [],
      "name": "revealDelay",
      "outputs": [
        {
          "internalType": "uint256",
          "name": "",
          "type": "uint256"
        }
      ],
      "stateMutability": "view",
      "type": "function"
    },
    {
      "inputs": [
        {
          "internalType": "uint256",
          "name": "",
          "type": "uint256"
        },
        {
          "internalType": "uint256",
          "name": "",
          "type": "uint256"
        }
      ],
      "name": "roundContributors",
      "outputs": [
        {
          "internalType": "address",
          "name": "addr",
          "type": "address"
        },
        {
          "internalType": "euint32",
          "name": "totalContribution",
          "type": "bytes32"
        },
        {
          "internalType": "uint256",
          "name": "timestamp",
          "type": "uint256"
        },
        {
          "internalType": "bool",
          "name": "isActive",
          "type": "bool"
        }
      ],
      "stateMutability": "view",
      "type": "function"
    },
    {
      "inputs": [
        {
          "internalType": "uint256",
          "name": "_deadline",
          "type": "uint256"
        }
      ],
      "name": "setClaimDeadline",
      "outputs": [],
      "stateMutability": "nonpayable",
      "type": "function"
    },
    {
      "inputs": [
        {
          "internalType": "address",
          "name": "_token",
          "type": "address"
        }
      ],
      "name": "setDonationToken",
      "outputs": [],
      "stateMutability": "nonpayable",
      "type": "function"
    },
    {
      "inputs": [
        {
          "internalType": "uint256",
          "name": "_delay",
          "type": "uint256"
        }
      ],
      "name": "setRevealDelay",
      "outputs": [],
      "stateMutability": "nonpayable",
      "type": "function"
    },
    {
      "inputs": [
        {
          "internalType": "uint256",
          "name": "",
          "type": "uint256"
        }
      ],
      "name": "streams",
      "outputs": [
        {
          "internalType": "address",
          "name": "sender",
          "type": "address"
        },
        {
          "internalType": "uint256",
          "name": "projectId",
          "type": "uint256"
        },
        {
          "internalType": "euint32",
          "name": "ratePerSecond",
          "type": "bytes32"
        },
        {
          "internalType": "uint256",
          "name": "startTime",
          "type": "uint256"
        },
        {
          "internalType": "uint256",
          "name": "endTime",
          "type": "uint256"
        },
        {
          "internalType": "euint32",
          "name": "totalStreamed",
          "type": "bytes32"
        },
        {
          "internalType": "uint256",
          "name": "lastUpdate",
          "type": "uint256"
        },
        {
          "internalType": "bool",
          "name": "isActive",
          "type": "bool"
        }
      ],
      "stateMutability": "view",
      "type": "function"
    },
    {
      "inputs": [
        {
          "internalType": "uint256",
          "name": "",
          "type": "uint256"
        }
      ],
      "name": "totalPoolSize",
      "outputs": [
        {
          "internalType": "euint32",
          "name": "",
          "type": "bytes32"
        }
      ],
      "stateMutability": "view",
      "type": "function"
    },
    {
      "inputs": [
        {
          "internalType": "address",
          "name": "newOwner",
          "type": "address"
        }
      ],
      "name": "transferOwnership",
      "outputs": [],
      "stateMutability": "nonpayable",
      "type": "function"
    },
    {
      "inputs": [],
      "name": "unpause",
      "outputs": [],
      "stateMutability": "nonpayable",
      "type": "function"
    },
    {
      "inputs": [
        {
          "internalType": "uint256",
          "name": "streamId",
          "type": "uint256"
        }
      ],
      "name": "updateStream",
      "outputs": [],
      "stateMutability": "nonpayable",
      "type": "function"
    }
  ],
  "bytecode": "0x60806040523462000030576200001e62000018620000d0565b6200018a565b604051612b15620004cb8239612b1590f35b5f80fd5b634e487b7160e01b5f52604160045260245ffd5b90601f01601f191681019081106001600160401b038211176200006a57604052565b62000034565b90620000876200007f60405190565b928362000048565b565b6001600160a01b031690565b90565b6001600160a01b038116036200003057565b90505190620000878262000098565b9060208282031262000030576200009591620000aa565b6200009562002fe080380380620000e78162000070565b928339810190620000b9565b905f19905b9181191691161790565b6200009562000095620000959290565b9062000126620000956200012e9262000102565b8254620000f3565b9055565b620000959062000089906001600160a01b031682565b620000959062000132565b620000959062000148565b906001600160a01b0390620000f8565b9062000182620000956200012e9262000153565b82546200015e565b620001e4620001ec916200019d62000204565b620001ad62093a80600c62000112565b620001bd62278d00600d62000112565b620001cd62015180600e62000112565b620001de6301e13380600f62000112565b62000153565b600a6200016e565b62000087620001fc600162000102565b600962000112565b62000087620002133362000227565b62000087620002216200031c565b620003a9565b62000087906200023e565b62000095600162000102565b62000249906200027a565b620000876200025762000232565b600162000112565b6200008962000095620000959290565b62000095906200025f565b620002855f6200026f565b6001600160a01b0381166001600160a01b03831614620002ab57506200008790620003cb565b620002de90620002ba60405190565b631e4fbdf760e01b8152918291600483016001600160a01b03909116815260200190565b0390fd5b62000095608062000070565b620002f8620002e2565b5f8082526020820181905260408201819052606082015290565b62000095620002ee565b6200032662000312565b5073a02cda4ca3a71d7c46997716f4283aa851c288126200038c6200034a620002e2565b73687820221192c5b662b25367f70076a37bc79b6c81529173848b0066793bcc60346da1f49049357399b8d59560208401526001600160a01b03166040830152565b731364cbbf2cdf5032c47d8226a6f6fbd2afcdacac606082015290565b620000879062000422565b620000959062000089565b620000959054620003b4565b620003f1620003ea620003de5f620003bf565b620001de845f6200016e565b9162000153565b907f8be0079c531659141344cd1fd0a4f28419497f9722a3daafe3b4186f6b6457e06200041d60405190565b5f90a3565b62000087906003620004c260607f9e7b61f58c47dc699ac88507c4f5bb9f121c03808c5676a8078fe583e4649700936200046e6200046782516001600160a01b031690565b866200016e565b620004916200048760208301516001600160a01b031690565b600187016200016e565b620004b4620004aa60408301516001600160a01b031690565b600287016200016e565b01516001600160a01b031690565b91016200016e56fe60806040526004361015610011575f80fd5b5f3560e01c8063010a5048146102305780630972470b1461022b5780630be97c01146102265780630df72159146102215780631257b76f1461021c5780631c186893146102175780631e99d5691461021257806324ed86921461020d57806325aa22d8146102085780633ba86c44146102035780633f4ba83a146101fe57806345ce0a0c146101f957806353236d74146101f457806359408948146101ef5780635c975abb146101ea57806364d60d91146101e55780636791799d146101e05780636c1087f4146101db5780636db9241b146101d6578063715018a6146101d15780638456cb59146101cc5780638b910701146101c75780638da5cb5b146101c257806395ccea67146101bd57806396a49cd0146101b857806396bb2192146101b3578063a68c25d8146101ae578063ad62e3b1146101a9578063b473de73146101a4578063c59051cd1461019f578063cc72551a1461019a578063da1f12ab14610195578063f26563ea146101905763f2fde38b0361023557610cfd565b610ce1565b610c84565b610c65565b610bd2565b610afb565b610ae0565b610ab9565b610a88565b610a22565b6109fe565b6109c8565b6109ad565b61098a565b610972565b61095a565b610941565b6108b9565b61086f565b610783565b610755565b61071e565b6106fb565b6106e3565b6106c8565b6106a5565b61068c565b610628565b610600565b6105d1565b610587565b61050c565b6103de565b610329565b5f80fd5b805b0361023557565b9050359061024f82610239565b565b6001600160a01b031690565b90565b6001600160a01b03811661023b565b9050359061024f82610260565b91906040838203126102355761025d9060206102988286610242565b940161026f565b61025d61025d61025d9290565b906102b69061029f565b5f5260205260405f2090565b61025d90610251906001600160a01b031682565b61025d906102c2565b61025d906102d6565b906102b6906102df565b61025d916008021c81565b9061025d91546102f2565b61032061025d9261031b5f9360056102ac565b6102e8565b6102fd565b9052565b346102355761035561034561033f36600461027c565b90610308565b6040519182918290815260200190565b0390f35b909182601f830112156102355781359167ffffffffffffffff831161023557602001926001830284011161023557565b919091608081840312610235576103a08382610242565b926103ae8160208401610242565b92604083013567ffffffffffffffff811161023557826103d560609461025d938701610359565b94909501610242565b34610235576103556103456103f4366004610389565b93929092611119565b91906040838203126102355761025d9060206104198286610242565b9401610242565b61025d9081565b61025d9054610420565b61025d90610251565b61025d9054610431565b61025d9060a01c5b60ff1690565b61025d9054610444565b9061046b6104709260076102ac565b6102ac565b9061047a82610427565b9161048760018201610427565b9161049460028301610427565b916104a16003820161043a565b9161025d60046104b360038501610452565b9301610427565b91946104ff610508929897956104ef60a0966104e861024f9a6104e160c08a019e5f8b0152565b6020890152565b6040870152565b6001600160a01b03166060850152565b15156080830152565b0152565b34610235576103556105286105223660046103fd565b9061045c565b9261053896949692919260405190565b968796876104ba565b5f91031261023557565b61025d916008021c610251565b9061025d915461054b565b61025d5f600a610558565b610325906102df565b60208101929161024f919061056e565b3461023557610597366004610541565b6103556105a2610563565b60405191829182610577565b906020828203126102355761025d9161026f565b5f61032061025d92600b6102e8565b34610235576103556103456105e73660046105ae565b6105c2565b906020828203126102355761025d91610242565b34610235576106186106133660046105ec565b6112ff565b604051005b61025d5f60096102fd565b3461023557610638366004610541565b61035561034561061d565b63ffffffff811661023b565b9050359061024f82610643565b90916060828403126102355761025d6106758484610242565b9360406106858260208701610242565b940161064f565b346102355761061861069f36600461065c565b9161153f565b34610235576106186106b83660046105ec565b6115be565b61025d5f600d6102fd565b34610235576106d8366004610541565b6103556103456106bd565b34610235576106f3366004610541565b6106186115da565b346102355761061861070e3660046105ae565b61165d565b61025d5f600c6102fd565b346102355761072e366004610541565b610355610345610713565b91906040838203126102355761025d906020610419828661026f565b346102355761035561077161076b366004610739565b9061166c565b60405191829182901515815260200190565b3461023557610793366004610541565b610355610771611690565b61025d9061044c565b61025d905461079e565b6107bc9060086102ac565b906107c68261043a565b916107d360018201610427565b916107e060028301610427565b916107ed60038201610427565b916107fa60048301610427565b9161080760058201610427565b9161025d600761081960068501610427565b93016107a7565b959391989796949290986101008701995f8801610844916001600160a01b03169052565b602087015260408601526060850152608084015260a083015260c082015260e00161024f9115159052565b346102355761035561088a6108853660046105ec565b6107b1565b9461089d98969894919493929360405190565b98899889610820565b90815260408101929161024f9160200152565b34610235576108d16108cc3660046105ec565b61169a565b906103556108de60405190565b928392836108a6565b909182601f830112156102355781359167ffffffffffffffff831161023557602001926020830284011161023557565b9060208282031261023557813567ffffffffffffffff81116102355761093d92016108e7565b9091565b3461023557610618610954366004610917565b906116d5565b346102355761061861096d3660046105ec565b61181d565b3461023557610982366004610541565b610618611842565b346102355761099a366004610541565b61061861185d565b61025d5f600f6102fd565b34610235576109bd366004610541565b6103556103456109a2565b34610235576109d8366004610541565b6103556109e3611865565b6040515b918291826001600160a01b03909116815260200190565b3461023557610618610a11366004610739565b906118f3565b61025d5f600e6102fd565b3461023557610a32366004610541565b610355610345610a17565b9095949261024f94610a79610a8092610a72608096610a6b60a088019c5f8901906001600160a01b03169052565b6020870152565b6040850152565b6060830152565b019015159052565b3461023557610355610aa3610a9e3660046105ec565b6118fd565b91610ab095939560405190565b95869586610a3d565b3461023557610618610acc3660046105ec565b6119c9565b5f61032061025d9260066102ac565b3461023557610355610345610af63660046105ec565b610ad1565b3461023557610618610b0e3660046103fd565b90611a69565b634e487b7160e01b5f52603260045260245ffd5b8054821015610b4857610b406004915f5260205f2090565b910201905f90565b610b14565b610b589060046102ac565b90610b61825490565b81101561023557610b7191610b28565b5090610b7c8261043a565b91610b8960018201610427565b9161025d600361081960028501610427565b610a8061024f94610bcb606094989795610bc4608086019a5f8701906001600160a01b03169052565b6020850152565b6040830152565b3461023557610355610bee610be83660046103fd565b90610b4d565b90610bfb94929460405190565b94859485610b9b565b9160a08383031261023557610c198284610242565b92610c278360208301610242565b92610c358160408401610242565b92606083013567ffffffffffffffff81116102355782610c5c60809461025d938701610359565b9490950161026f565b3461023557610618610c78366004610c04565b94939093929192611d84565b3461023557610c94366004610541565b610355610345611d92565b9160608383031261023557610cb48284610242565b92610cc28360208301610242565b92604082013567ffffffffffffffff81116102355761093d9201610359565b3461023557610618610cf4366004610c9f565b92919091611fec565b3461023557610618610d103660046105ae565b612061565b61025161025d61025d9290565b61025d90610d15565b0190565b15610d3657565b60405162461bcd60e51b815260206004820152600d60248201526c151bdad95b881b9bdd081cd95d609a1b6044820152606490fd5b0390fd5b9061025d9594939291610db0610d8d610d88600a61043a565b6102df565b610da9610d9c6102515f610d22565b916001600160a01b031690565b1415610d2f565b9061025d9594939291610dc161206a565b90610dd79594939291610dd2612094565b610fda565b9061024f6120d4565b15610de757565b60405162461bcd60e51b8152602060048201526012602482015271111d5c985d1a5bdb881d1bdbc81cda1bdc9d60721b6044820152606490fd5b15610e2857565b60405162461bcd60e51b81526020600482015260116024820152704475726174696f6e20746f6f206c6f6e6760781b6044820152606490fd5b634e487b7160e01b5f52601160045260245ffd5b5f198114610e835760010190565b610e61565b905f19905b9181191691161790565b90610ea761025d610eae9261029f565b8254610e88565b9055565b634e487b7160e01b5f52604160045260245ffd5b90601f01601f1916810190811067ffffffffffffffff821117610ee857604052565b610eb2565b9061024f610efa60405190565b9283610ec6565b67ffffffffffffffff8111610ee857602090601f01601f19160190565b90825f939282370152565b90929192610f3e610f3982610f01565b610eed565b93818552818301116102355761024f916020850190610f1e565b61025d913691610f29565b906001600160a01b0390610e8d565b90610f8261025d610eae926102df565b8254610f63565b90610ea761025d610eae9290565b91908201809211610e8357565b610fb161025d61025d9290565b63ffffffff1690565b9060ff90610e8d565b90610fd361025d610eae92151590565b8254610fba565b60076110d69497966110a16110986110536110d19699976001965061100d61100561025d600e610427565b861015610de0565b61102561101d61025d600f610427565b861115610e21565b61104d6110326009610427565b9961104661103f8c610e75565b6009610e97565b8a9e610f58565b906120e6565b9261108561106561025d8a60086102ac565b946110703387610f72565b61107c8c898801610e97565b60028601610f89565b6110924260038601610e97565b42610f97565b60048301610e97565b6110be6110b56110b05f610fa4565b6120ff565b60058301610f89565b6110cb4260068301610e97565b01610fc3565b61029f565b906110e96110e3336102df565b9161029f565b917f9b75bb6b5d76707693bc56d2793d08ca515b19570eff8dcca55f2578b960beca61111460405190565b5f90a4565b61025d94939291905f610d6f565b61024f9061113361206a565b61119e565b1561113f57565b60405162461bcd60e51b815260206004820152601160248201527053747265616d206e6f742061637469766560781b6044820152606490fd5b91908203918211610e8357565b6103259061029f565b60208101929161024f9190611185565b6111ac61025d8260086102ac565b90600782016111c26111bd826107a7565b611138565b6004830192426111d461025d86610427565b42116112f0575b60068201946111f26111ec87610427565b83611178565b956111fc5f61029f565b871161120c575b50505050505050565b83611296958461127c61127861025d5f976112736112909a61129c9f9961126e61126860056112576112899e6112518f61124b60026110b09201610427565b92610fa4565b9061211d565b9c019b6112638d610427565b612127565b8b610f89565b610e97565b610427565b9190565b10156112e0575b50610427565b920161043a565b90612159565b5061029f565b7f11f23cf1c7a2a194f2b700a80fe1987bf966eb2f8176a0ecf94eec6eb22f408f6112c660405190565b806112d15f8261118e565b0390a25f808080808080611203565b836112ea91610fc3565b5f611283565b506112fa84610427565b6111db565b61024f90611127565b9061024f929161131e610d8d610d88600a61043a565b9061024f929161132c61206a565b9061133f929161133a612094565b611436565b61024f6120d4565b1561134e57565b60405162461bcd60e51b815260206004820152600d60248201526c139bdd081c9958da5c1a595b9d609a1b6044820152606490fd5b1561138a57565b60405162461bcd60e51b815260206004820152600f60248201526e105b1c9958591e4818db185a5b5959608a1b6044820152606490fd5b156113c857565b60405162461bcd60e51b815260206004820152600d60248201526c10db185a5b48195e1c1a5c9959609a1b6044820152606490fd5b9060ff60a01b9060a01b610e8d565b9061141c61025d610eae92151590565b82546113fd565b61025d61025d61025d9263ffffffff1690565b6110e3906114e692936114cb61145461025d8761046b8660076102ac565b6114c460016004600384019361147b61146c8661043a565b61147533610d9c565b14611347565b61149361148e61148a87610452565b1590565b611383565b01926114bf6114b761025d6114a787610427565b6114b1600d610427565b90610f97565b4211156113c1565b61140c565b4290610e97565b6114d45f610fa4565b63ffffffff82161161151a575061029f565b6114ef336102df565b917f35b8d5d67ba485b65ad824a0044f9247139c298b9daa97127a83fe0f9c1d3eb961111460405190565b6115399061153161152b600a61043a565b91611423565b9033906121a7565b5f611296565b9061024f9291611308565b61024f906115566121ef565b61159c565b1561156257565b60405162461bcd60e51b8152602060048201526012602482015271111958591b1a5b99481d1bdbc81cda1bdc9d60721b6044820152606490fd5b61024f906115b76115af62093a8061029f565b82101561155b565b600d610e97565b61024f9061154a565b6115cf6121ef565b61024f61024f612280565b61024f6115c7565b61024f906115ee6121ef565b61162f565b156115fa57565b60405162461bcd60e51b815260206004820152600d60248201526c24b73b30b634b2103a37b5b2b760991b6044820152606490fd5b61165661024f91610d886116456102515f610d22565b6001600160a01b03831614156115f3565b600a610f72565b61024f906115e2565b906102b6565b61025d9161168661168b9261167e5f90565b5060036102e8565b611666565b6107a7565b61025d60026107a7565b9061025d6112736116b36116af8560046102ac565b5490565b9360066102ac565b9190811015610b48576020020190565b3561025d81610239565b9190916116e15f61029f565b8381101561173c57611720906117166007611710600861170a611705868b8a6116bb565b6116cb565b906102ac565b016107a7565b6117255760010190565b6116e1565b6117366106136117058388876116bb565b60010190565b50509050565b61024f9061174e61206a565b611792565b1561175a57565b60405162461bcd60e51b815260206004820152601060248201526f2737ba1039ba3932b0b69037bbb732b960811b6044820152606490fd5b6117ee906110d16117a761025d8360086102ac565b6117c26117b38261043a565b6117bc33610d9c565b14611753565b6117e45f600783016117d66111bd826107a7565b6117df866112ff565b610fc3565b6004429101610e97565b7f75b8c91e46f219f2164d6bce576e7cebd2d3ff8749726009fcafdf04e2e1eb7b61181860405190565b5f90a2565b61024f90611742565b61182e6121ef565b61024f61024f61183d5f610d22565b612288565b61024f611826565b6118526121ef565b61024f61024f61231a565b61024f61184a565b61025d5f61043a565b9061024f9161187b6121ef565b61188b565b6040513d5f823e3d90fd5b6118976102515f610d22565b6001600160a01b038216036118d857505f808080936118ba610d88610d88611865565b8282156118cf575bf1156118ca57565b611880565b506108fc6118c2565b906118e561024f926102df565b6118ed611865565b906121a7565b9061024f9161186e565b61025d6119139161190b5f90565b5060086102ac565b9061191d8261043a565b9161192a60018201610427565b9261193760038301610427565b92611950600761194960048601610427565b94016107a7565b919493929190565b61024f906119646121ef565b6119a7565b1561197057565b60405162461bcd60e51b815260206004820152600f60248201526e11195b185e481d1bdbc81cda1bdc9d608a1b6044820152606490fd5b61024f906119c26119ba6201518061029f565b821015611969565b600c610e97565b61024f90611958565b156119d957565b60405162461bcd60e51b815260206004820152600e60248201526d139bdd08185d5d1a1bdc9a5e995960921b6044820152606490fd5b15611a1657565b60405162461bcd60e51b815260206004820152601460248201527314995d99585b0819195b185e481b9bdd081b595d60621b6044820152606490fd5b602081611a63610d2b938396959052565b01918252565b6110e3611b0a91611ac6611abe61025d611ab46004611a9061025d8a61046b8960076102ac565b611aae611a9f6003830161043a565b611aa833610d9c565b146119d2565b01610427565b6114b1600c610427565b421015611a0f565b6110d1611ad260405190565b611af18160208101611ae5898783611a52565b90810382520382610ec6565b611b03611afc825190565b9160200190565b2033612322565b907fec2bedc14866982d53087454a5e736f7cebf41a32290e8288c3ebe7d6813bfeb611b3560405190565b33815280602081015b0390a3565b9061024f9594939291611b546121ef565b9061024f9594939291611b6561206a565b611c9c565b15611b7157565b60405162461bcd60e51b8152602060048201526011602482015270125b9d985b1a59081c9958da5c1a595b9d607a1b6044820152606490fd5b15611bb157565b60405162461bcd60e51b8152602060048201526013602482015272105b1c9958591e48191a5cdd1c9a589d5d1959606a1b6044820152606490fd5b61025d60c0610eed565b634e487b7160e01b5f525f60045260245ffd5b6004611c8b60a061024f94611c27611c215f83015190565b86610e97565b611c3e611c35602083015190565b60018701610e97565b611c55611c4c604083015190565b60028701610f89565b611c8660038601611c79611c7360608501516001600160a01b031690565b82610f72565b608083015115159061140c565b015190565b9101610e97565b9061024f91611c09565b611d74906110d1611d19611b3e9561104d86997f6ee9630043428e9a92d7660c5e6b852c3de07073e89e83d75bf6e6e629a7db2899611d14611d0f61148a8f611d09611d7a9d611cfe600393611cf7610d9c6102515f610d22565b1415611b6a565b61046b8d60076102ac565b01610452565b611baa565b610f58565b611d38611d24611bec565b91611d2d858452565b610bcb8a6020850152565b6001600160a01b03891660608201525f6080820152611d60611d595f61029f565b60a0830152565b611d6f8861046b8560076102ac565b611c92565b9361029f565b936109e760405190565b9061024f9594939291611b43565b61025d612368565b9061024f939291611db1610d8d610d88600a61043a565b9061024f939291611dc061206a565b9061133f939291611dcf612094565b611e83565b61025d6080610eed565b6003611e3a606061024f94611e05611dff5f8301516001600160a01b031690565b86610f72565b611e1c611e13602083015190565b60018701610f89565b611e33611e2a604083015190565b60028701610e97565b0151151590565b9101610fc3565b9190611e505761024f91611dde565b611bf6565b9081549168010000000000000000831015610ee85782611e7d91600161024f95018155610b28565b90611e41565b91611e9b6110d19261104d611f5e96611f5394610f58565b611eb3611273611eac8660056102ac565b33906102e8565b611ebc5f61029f565b8103611f9f5750611f01611ece611dd4565b338152611edc836020830152565b611ee7426040830152565b60016060820152611efc61025d8760046102ac565b611e55565b611f20611f126116af8660046102ac565b61126e611eac8760056102ac565b611f45611f35826112636112738860066102ac565b611f408660066102ac565b610f89565b61126361127333600b6102e8565b611f4033600b6102e8565b611f67336102df565b907f6d4bd91981fbdb61501518166f3984149ac9be767c3e2e6ea211beaa2257ffb5611f9260405190565b4281528060208101611b3e565b6001611fd3611fcf611fe793611fc9611fb98a60046102ac565b91611fc38661029f565b90611178565b90610b28565b5090565b01611fe18361126383610427565b90610f89565b611f20565b9061024f939291611d9a565b61024f906120046121ef565b61200d5f610d22565b6001600160a01b0381166001600160a01b03831614612030575061024f90612288565b610d6b9061203d60405190565b631e4fbdf760e01b8152918291600483016001600160a01b03909116815260200190565b61024f90611ff8565b612072611690565b61207857565b60405163d93c066560e01b8152600490fd5b61025d600261029f565b61209e6001610427565b6120a661208a565b9081146120b85761024f906001610e97565b604051633ee5aeb560e01b8152600490fd5b61025d600161029f565b61024f6120df6120ca565b6001610e97565b600461025d926120fa61025d93611fcf5f90565b61246c565b61025d600461211861025d936121125f90565b50611423565b6125b1565b61025d919061262e565b61214661213f61025d936121385f90565b5083612698565b9182612702565b61215363ffffffff6120ff565b9061276c565b9061025d908261278f565b61217d61217761025d9263ffffffff1690565b60e01b90565b6001600160e01b03191690565b6001600160a01b03909116815260408101929161024f9160200152565b6121ea6004926121db61024f956121c163a9059cbb612164565b926121cb60405190565b968794602086019081520161218a565b60208201810382520383610ec6565b6127f2565b6121f7611865565b339061220282610d9c565b0361220a5750565b610d6b9061221760405190565b63118cdaa760e01b8152918291600483016001600160a01b03909116815260200190565b612243612889565b61024f6122515f6002610fc3565b7f5db9ee0a495bf2e6ff9c91a7834c1ba4fdd244a5e8aa4e537bd38aeae4b073aa61227b336109e3565b0390a1565b61024f61223b565b6122a76122a16122975f61043a565b610d88845f610f72565b916102df565b907f8be0079c531659141344cd1fd0a4f28419497f9722a3daafe3b4186f6b6457e06122d260405190565b8080611b3e565b6122e161206a565b61024f6122f060016002610fc3565b7f62e78cea01bee320cd4e420270b5ea74000d11b0c9f74754ebdbfc544b05a25861227b336109e3565b61024f6122d9565b61127861233d91610d8860016117df866116868560036102e8565b907f1470bd4c5c36892e3132722f94e5774fcc1ebfa1df798f3aaed1f3167e69df056122d260405190565b61025d61271161029f565b9050519061024f82610239565b906020828203126102355761025d91612373565b5f5b8381106123a55750505f910152565b8181015183820152602001612396565b6123d66123df602093610d2b936123ca815190565b80835293849260200190565b95869101612394565b601f01601f191690565b634e487b7160e01b5f52602160045260245ffd5b6054111561240757565b6123e9565b9061024f826123fd565b61025d9061240c565b61032590612416565b94939160609161024f946124576124649361244760808b01945f8c0152565b6001600160a01b031660208a0152565b87820360408901526123b5565b94019061241f565b6124e091939260209161247c5f90565b505f80516020612ac0833981519152955f6124ba610d88807f9e7b61f58c47dc699ac88507c4f5bb9f121c03808c5676a8078fe583e464970161043a565b926124c460405190565b9687958694859363196d0b9b60e01b8552339060048601612428565b03925af19081156118ca575f9161256c575b50612505610d88610d885f84960161043a565b803b15610235576125445f9291839261251d60405190565b630f8e573b60e21b8152600481019190915233602482015293849283919082906044820190565b03925af180156118ca576125555750565b61024f905f6125648183610ec6565b810190610541565b61258e915060203d602011612594575b6125868183610ec6565b810190612380565b5f6124f2565b503d61257c565b90815260408101929161024f916020019061241f565b612600916020916125d6610d888060015f80516020612ac08339815191525b0161043a565b905f6125e160405190565b8096819582946125f5639cd07acb60e01b90565b84526004840161259b565b03925af19081156118ca575f91612615575090565b61025d915060203d602011612594576125868183610ec6565b5f61025d9261025d9261263e5f90565b5061264b61148a826128ac565b612686575b61265c61148a836128ac565b612669575b905b9061290b565b905061266361127861267d6110b085610fa4565b92915050612661565b506126936110b083610fa4565b612650565b5f61025d9261025d926126a85f90565b506126b561148a826128ac565b6126f0575b6126c661148a836128ac565b6126d3575b905b9061297d565b90506126cd6112786126e76110b085610fa4565b929150506126cb565b506126fd6110b083610fa4565b6126ba565b5f61025d9261025d926127125f90565b5061271f61148a826128ac565b61275a575b61273061148a836128ac565b61273d575b905b906129e8565b90506127376112786127516110b085610fa4565b92915050612735565b506127676110b083610fa4565b612724565b9061025d9261278961127861278561025d95611fcf5f90565b9390565b91612a6e565b6127aa610d88805f5f80516020612ac08339815191526125d0565b91823b1561023557612544925f92836127c260405190565b8096819582946127d663b9496b6260e01b90565b845260048401526001600160a01b031660248301526044820190565b905f6020916127fe5f90565b50828151910182855af115611880573d5f519061281d6112785f61029f565b03612875575061282c816102df565b3b6128396112785f61029f565b145b6128425750565b61284e610d6b916102df565b604051635274afe760e01b8152918291600483016001600160a01b03909116815260200190565b612882611278600161029f565b141561283b565b61289461148a611690565b61289a57565b604051638dfc202b60e01b8152600490fd5b6128b86112785f61029f565b141590565b6128d06128ca61025d9290565b60f81b90565b6001600160f81b03191690565b90815260608101939261024f9290916040916128fb905b6020830152565b01906001600160f81b0319169052565b906020916126009361291a5f90565b501561296e5761292a60016128bd565b915b5f612949610d888060015f80516020612ac08339815191526125d0565b9261295360405190565b96879586948593630afe14ad60e31b5b8552600485016128dd565b6129775f6128bd565b9161292c565b906020916126009361298c5f90565b50156129d95761299c60016128bd565b915b5f6129bb610d888060015f80516020612ac08339815191526125d0565b926129c560405190565b9687958694859363022f65e760e31b612963565b6129e25f6128bd565b9161299e565b90602091612600936129f75f90565b5015612a4457612a0760016128bd565b915b5f612a26610d888060015f80516020612ac08339815191526125d0565b92612a3060405190565b96879586948593637210768160e01b612963565b612a4d5f6128bd565b91612a09565b90815260608101939261024f929091604091610508906128f4565b9161260092602092612a7d5f90565b505f612a9b610d888060015f80516020612ac08339815191526125d0565b92612aa560405190565b96879586948593637702dcff60e01b855260048501612a5356fe9e7b61f58c47dc699ac88507c4f5bb9f121c03808c5676a8078fe583e4649700a26469706673582212203cd03ae466de3bbda0f1b6ab27da2e57678ee6bdcdb45d4b5ddb6758e93a78c964736f6c63430008180033",
  "linkReferences": {},
  "deployedLinkReferences": {}
}